
C:/Users/user/Desktop/Code/C/Microprocessor_Systems/pico-apps/pico-apps/build/labs/lab03/lab03.elf:     file format elf32-littlearm

Sections:
Idx Name          Size      VMA       LMA       File off  Algn
  0 .boot2        00000100  10000000  10000000  00001000  2**0
                  CONTENTS, ALLOC, LOAD, READONLY, CODE
  1 .text         00004048  10000100  10000100  00001100  2**4
                  CONTENTS, ALLOC, LOAD, READONLY, CODE
  2 .rodata       0000104c  10004148  10004148  00005148  2**3
                  CONTENTS, ALLOC, LOAD, READONLY, DATA
  3 .binary_info  00000020  10005194  10005194  00006194  2**2
                  CONTENTS, ALLOC, LOAD, DATA
  4 .ram_vector_table 000000c0  20000000  20000000  0000726c  2**2
                  CONTENTS
  5 .data         000001ac  200000c0  100051b4  000070c0  2**4
                  CONTENTS, ALLOC, LOAD, CODE
  6 .uninitialized_data 00000000  2000026c  2000026c  0000732c  2**0
                  CONTENTS
  7 .scratch_x    00000000  20040000  20040000  0000732c  2**0
                  CONTENTS
  8 .scratch_y    00000000  20041000  20041000  0000732c  2**0
                  CONTENTS
  9 .bss          000003c8  20000270  20000270  00007270  2**3
                  ALLOC
 10 .heap         00000800  20000638  20000638  0000732c  2**2
                  CONTENTS, READONLY
 11 .stack_dummy  00000800  20041000  20041000  00007b40  2**5
                  CONTENTS, READONLY
 12 .ARM.attributes 00000028  00000000  00000000  00008340  2**0
                  CONTENTS, READONLY
 13 .comment      0000004c  00000000  00000000  00008368  2**0
                  CONTENTS, READONLY
 14 .debug_info   000164fa  00000000  00000000  000083b4  2**0
                  CONTENTS, READONLY, DEBUGGING, OCTETS
 15 .debug_abbrev 000042bc  00000000  00000000  0001e8ae  2**0
                  CONTENTS, READONLY, DEBUGGING, OCTETS
 16 .debug_loc    0000cc23  00000000  00000000  00022b6a  2**0
                  CONTENTS, READONLY, DEBUGGING, OCTETS
 17 .debug_aranges 00000d38  00000000  00000000  0002f790  2**3
                  CONTENTS, READONLY, DEBUGGING, OCTETS
 18 .debug_ranges 00002bf0  00000000  00000000  000304c8  2**3
                  CONTENTS, READONLY, DEBUGGING, OCTETS
 19 .debug_line   0000dd3f  00000000  00000000  000330b8  2**0
                  CONTENTS, READONLY, DEBUGGING, OCTETS
 20 .debug_str    00003765  00000000  00000000  00040df7  2**0
                  CONTENTS, READONLY, DEBUGGING, OCTETS
 21 .debug_frame  000014f0  00000000  00000000  0004455c  2**2
                  CONTENTS, READONLY, DEBUGGING, OCTETS

C:/Users/user/Desktop/Code/C/Microprocessor_Systems/pico-apps/pico-apps/build/labs/lab03/lab03.elf:     file format elf32-littlearm


Disassembly of section .boot2:

10000000 <__boot2_start__>:
10000000:	4b32b500 	.word	0x4b32b500
10000004:	60582021 	.word	0x60582021
10000008:	21026898 	.word	0x21026898
1000000c:	60984388 	.word	0x60984388
10000010:	611860d8 	.word	0x611860d8
10000014:	4b2e6158 	.word	0x4b2e6158
10000018:	60992100 	.word	0x60992100
1000001c:	61592102 	.word	0x61592102
10000020:	22f02101 	.word	0x22f02101
10000024:	492b5099 	.word	0x492b5099
10000028:	21016019 	.word	0x21016019
1000002c:	20356099 	.word	0x20356099
10000030:	f844f000 	.word	0xf844f000
10000034:	42902202 	.word	0x42902202
10000038:	2106d014 	.word	0x2106d014
1000003c:	f0006619 	.word	0xf0006619
10000040:	6e19f834 	.word	0x6e19f834
10000044:	66192101 	.word	0x66192101
10000048:	66182000 	.word	0x66182000
1000004c:	f000661a 	.word	0xf000661a
10000050:	6e19f82c 	.word	0x6e19f82c
10000054:	6e196e19 	.word	0x6e196e19
10000058:	f0002005 	.word	0xf0002005
1000005c:	2101f82f 	.word	0x2101f82f
10000060:	d1f94208 	.word	0xd1f94208
10000064:	60992100 	.word	0x60992100
10000068:	6019491b 	.word	0x6019491b
1000006c:	60592100 	.word	0x60592100
10000070:	481b491a 	.word	0x481b491a
10000074:	21016001 	.word	0x21016001
10000078:	21eb6099 	.word	0x21eb6099
1000007c:	21a06619 	.word	0x21a06619
10000080:	f0006619 	.word	0xf0006619
10000084:	2100f812 	.word	0x2100f812
10000088:	49166099 	.word	0x49166099
1000008c:	60014814 	.word	0x60014814
10000090:	60992101 	.word	0x60992101
10000094:	2800bc01 	.word	0x2800bc01
10000098:	4700d000 	.word	0x4700d000
1000009c:	49134812 	.word	0x49134812
100000a0:	c8036008 	.word	0xc8036008
100000a4:	8808f380 	.word	0x8808f380
100000a8:	b5034708 	.word	0xb5034708
100000ac:	20046a99 	.word	0x20046a99
100000b0:	d0fb4201 	.word	0xd0fb4201
100000b4:	42012001 	.word	0x42012001
100000b8:	bd03d1f8 	.word	0xbd03d1f8
100000bc:	6618b502 	.word	0x6618b502
100000c0:	f7ff6618 	.word	0xf7ff6618
100000c4:	6e18fff2 	.word	0x6e18fff2
100000c8:	bd026e18 	.word	0xbd026e18
100000cc:	40020000 	.word	0x40020000
100000d0:	18000000 	.word	0x18000000
100000d4:	00070000 	.word	0x00070000
100000d8:	005f0300 	.word	0x005f0300
100000dc:	00002221 	.word	0x00002221
100000e0:	180000f4 	.word	0x180000f4
100000e4:	a0002022 	.word	0xa0002022
100000e8:	10000100 	.word	0x10000100
100000ec:	e000ed08 	.word	0xe000ed08
	...
100000fc:	7a4eb274 	.word	0x7a4eb274

Disassembly of section .text:

10000100 <__VECTOR_TABLE>:
10000100:	20042000 	.word	0x20042000
10000104:	100001f7 	.word	0x100001f7
10000108:	100001c3 	.word	0x100001c3
1000010c:	100001c5 	.word	0x100001c5
10000110:	100001c1 	.word	0x100001c1
10000114:	100001c1 	.word	0x100001c1
10000118:	100001c1 	.word	0x100001c1
1000011c:	100001c1 	.word	0x100001c1
10000120:	100001c1 	.word	0x100001c1
10000124:	100001c1 	.word	0x100001c1
10000128:	100001c1 	.word	0x100001c1
1000012c:	100001c7 	.word	0x100001c7
10000130:	100001c1 	.word	0x100001c1
10000134:	100001c1 	.word	0x100001c1
10000138:	100001c9 	.word	0x100001c9
1000013c:	100001cb 	.word	0x100001cb
10000140:	100001cd 	.word	0x100001cd
10000144:	100001cd 	.word	0x100001cd
10000148:	100001cd 	.word	0x100001cd
1000014c:	100001cd 	.word	0x100001cd
10000150:	100001cd 	.word	0x100001cd
10000154:	100001cd 	.word	0x100001cd
10000158:	100001cd 	.word	0x100001cd
1000015c:	100001cd 	.word	0x100001cd
10000160:	100001cd 	.word	0x100001cd
10000164:	100001cd 	.word	0x100001cd
10000168:	100001cd 	.word	0x100001cd
1000016c:	100001cd 	.word	0x100001cd
10000170:	100001cd 	.word	0x100001cd
10000174:	100001cd 	.word	0x100001cd
10000178:	100001cd 	.word	0x100001cd
1000017c:	100001cd 	.word	0x100001cd
10000180:	100001cd 	.word	0x100001cd
10000184:	100001cd 	.word	0x100001cd
10000188:	100001cd 	.word	0x100001cd
1000018c:	100001cd 	.word	0x100001cd
10000190:	100001cd 	.word	0x100001cd
10000194:	100001cd 	.word	0x100001cd
10000198:	100001cd 	.word	0x100001cd
1000019c:	100001cd 	.word	0x100001cd
100001a0:	100001cd 	.word	0x100001cd
100001a4:	100001cd 	.word	0x100001cd
100001a8:	100001cd 	.word	0x100001cd
100001ac:	100001cd 	.word	0x100001cd
100001b0:	100001cd 	.word	0x100001cd
100001b4:	100001cd 	.word	0x100001cd
100001b8:	100001cd 	.word	0x100001cd
100001bc:	100001cd 	.word	0x100001cd

100001c0 <isr_invalid>:
100001c0:	be00      	bkpt	0x0000

100001c2 <isr_nmi>:
100001c2:	be00      	bkpt	0x0000

100001c4 <isr_hardfault>:
100001c4:	be00      	bkpt	0x0000

100001c6 <isr_svcall>:
100001c6:	be00      	bkpt	0x0000

100001c8 <isr_pendsv>:
100001c8:	be00      	bkpt	0x0000

100001ca <isr_systick>:
100001ca:	be00      	bkpt	0x0000

100001cc <__unhandled_user_irq>:
100001cc:	f000 f84b 	bl	10000266 <__get_current_exception>
100001d0:	3810      	subs	r0, #16

100001d2 <unhandled_user_irq_num_in_r0>:
100001d2:	be00      	bkpt	0x0000

100001d4 <binary_info_header>:
100001d4:	7188ebf2 	.word	0x7188ebf2
100001d8:	10005194 	.word	0x10005194
100001dc:	100051b4 	.word	0x100051b4
100001e0:	10000234 	.word	0x10000234
100001e4:	e71aa390 	.word	0xe71aa390

100001e8 <_entry_point>:
100001e8:	2000      	movs	r0, #0
100001ea:	4921      	ldr	r1, [pc, #132]	; (10000270 <__get_current_exception+0xa>)
100001ec:	6008      	str	r0, [r1, #0]
100001ee:	c806      	ldmia	r0!, {r1, r2}
100001f0:	f381 8808 	msr	MSP, r1
100001f4:	4710      	bx	r2

100001f6 <_reset_handler>:
100001f6:	481f      	ldr	r0, [pc, #124]	; (10000274 <__get_current_exception+0xe>)
100001f8:	6800      	ldr	r0, [r0, #0]
100001fa:	2800      	cmp	r0, #0
100001fc:	d12f      	bne.n	1000025e <hold_non_core0_in_bootrom>
100001fe:	a40d      	add	r4, pc, #52	; (adr r4, 10000234 <data_cpy_table>)
10000200:	cc0e      	ldmia	r4!, {r1, r2, r3}
10000202:	2900      	cmp	r1, #0
10000204:	d002      	beq.n	1000020c <_reset_handler+0x16>
10000206:	f000 f812 	bl	1000022e <data_cpy>
1000020a:	e7f9      	b.n	10000200 <_reset_handler+0xa>
1000020c:	491a      	ldr	r1, [pc, #104]	; (10000278 <__get_current_exception+0x12>)
1000020e:	4a1b      	ldr	r2, [pc, #108]	; (1000027c <__get_current_exception+0x16>)
10000210:	2000      	movs	r0, #0
10000212:	e000      	b.n	10000216 <bss_fill_test>

10000214 <bss_fill_loop>:
10000214:	c101      	stmia	r1!, {r0}

10000216 <bss_fill_test>:
10000216:	4291      	cmp	r1, r2
10000218:	d1fc      	bne.n	10000214 <bss_fill_loop>

1000021a <platform_entry>:
1000021a:	4919      	ldr	r1, [pc, #100]	; (10000280 <__get_current_exception+0x1a>)
1000021c:	4788      	blx	r1
1000021e:	4919      	ldr	r1, [pc, #100]	; (10000284 <__get_current_exception+0x1e>)
10000220:	4788      	blx	r1
10000222:	4919      	ldr	r1, [pc, #100]	; (10000288 <__get_current_exception+0x22>)
10000224:	4788      	blx	r1
10000226:	be00      	bkpt	0x0000
10000228:	e7fd      	b.n	10000226 <platform_entry+0xc>

1000022a <data_cpy_loop>:
1000022a:	c901      	ldmia	r1!, {r0}
1000022c:	c201      	stmia	r2!, {r0}

1000022e <data_cpy>:
1000022e:	429a      	cmp	r2, r3
10000230:	d3fb      	bcc.n	1000022a <data_cpy_loop>
10000232:	4770      	bx	lr

10000234 <data_cpy_table>:
10000234:	100051b4 	.word	0x100051b4
10000238:	200000c0 	.word	0x200000c0
1000023c:	2000026c 	.word	0x2000026c
10000240:	10005360 	.word	0x10005360
10000244:	20040000 	.word	0x20040000
10000248:	20040000 	.word	0x20040000
1000024c:	10005360 	.word	0x10005360
10000250:	20041000 	.word	0x20041000
10000254:	20041000 	.word	0x20041000
10000258:	00000000 	.word	0x00000000
1000025c:	4770      	bx	lr

1000025e <hold_non_core0_in_bootrom>:
1000025e:	480b      	ldr	r0, [pc, #44]	; (1000028c <__get_current_exception+0x26>)
10000260:	f002 fe86 	bl	10002f70 <rom_func_lookup>
10000264:	4700      	bx	r0

10000266 <__get_current_exception>:
10000266:	f3ef 8005 	mrs	r0, IPSR
1000026a:	b2c0      	uxtb	r0, r0
1000026c:	4770      	bx	lr
1000026e:	0000      	.short	0x0000
10000270:	e000ed08 	.word	0xe000ed08
10000274:	d0000000 	.word	0xd0000000
10000278:	20000270 	.word	0x20000270
1000027c:	20000638 	.word	0x20000638
10000280:	100015ad 	.word	0x100015ad
10000284:	10000353 	.word	0x10000353
10000288:	10001569 	.word	0x10001569
1000028c:	00005657 	.word	0x00005657

10000290 <__bi_50>:
10000290:	50520006 5360b3ab 10005144              ..RP..`SDQ..

1000029c <__bi_38>:
1000029c:	50520006 02031c86 1000513c              ..RP....<Q..

100002a8 <__bi_30>:
100002a8:	50520006 9da22254 10005154              ..RPT"..TQ..

100002b4 <__bi_22>:
100002b4:	50520005 68f465de 10005360              ..RP.e.h`S..

100002c0 <_init>:
100002c0:	b5f8      	push	{r3, r4, r5, r6, r7, lr}
100002c2:	46c0      	nop			; (mov r8, r8)

100002c4 <__do_global_dtors_aux>:
100002c4:	b510      	push	{r4, lr}
100002c6:	4c06      	ldr	r4, [pc, #24]	; (100002e0 <__do_global_dtors_aux+0x1c>)
100002c8:	7823      	ldrb	r3, [r4, #0]
100002ca:	2b00      	cmp	r3, #0
100002cc:	d107      	bne.n	100002de <__do_global_dtors_aux+0x1a>
100002ce:	4b05      	ldr	r3, [pc, #20]	; (100002e4 <__do_global_dtors_aux+0x20>)
100002d0:	2b00      	cmp	r3, #0
100002d2:	d002      	beq.n	100002da <__do_global_dtors_aux+0x16>
100002d4:	4804      	ldr	r0, [pc, #16]	; (100002e8 <__do_global_dtors_aux+0x24>)
100002d6:	e000      	b.n	100002da <__do_global_dtors_aux+0x16>
100002d8:	bf00      	nop
100002da:	2301      	movs	r3, #1
100002dc:	7023      	strb	r3, [r4, #0]
100002de:	bd10      	pop	{r4, pc}
100002e0:	20000370 	.word	0x20000370
100002e4:	00000000 	.word	0x00000000
100002e8:	10004148 	.word	0x10004148

100002ec <frame_dummy>:
100002ec:	4b04      	ldr	r3, [pc, #16]	; (10000300 <frame_dummy+0x14>)
100002ee:	b510      	push	{r4, lr}
100002f0:	2b00      	cmp	r3, #0
100002f2:	d003      	beq.n	100002fc <frame_dummy+0x10>
100002f4:	4903      	ldr	r1, [pc, #12]	; (10000304 <frame_dummy+0x18>)
100002f6:	4804      	ldr	r0, [pc, #16]	; (10000308 <frame_dummy+0x1c>)
100002f8:	e000      	b.n	100002fc <frame_dummy+0x10>
100002fa:	bf00      	nop
100002fc:	bd10      	pop	{r4, pc}
100002fe:	46c0      	nop			; (mov r8, r8)
10000300:	00000000 	.word	0x00000000
10000304:	20000374 	.word	0x20000374
10000308:	10004148 	.word	0x10004148

1000030c <asm_gpio_init>:
1000030c:	b510      	push	{r4, lr}
1000030e:	f000 f86f 	bl	100003f0 <gpio_init>
10000312:	bd10      	pop	{r4, pc}

10000314 <asm_gpio_set_dir>:
10000314:	2301      	movs	r3, #1
10000316:	4083      	lsls	r3, r0
10000318:	2900      	cmp	r1, #0
1000031a:	d003      	beq.n	10000324 <asm_gpio_set_dir+0x10>
1000031c:	22d0      	movs	r2, #208	; 0xd0
1000031e:	0612      	lsls	r2, r2, #24
10000320:	6253      	str	r3, [r2, #36]	; 0x24
10000322:	4770      	bx	lr
10000324:	22d0      	movs	r2, #208	; 0xd0
10000326:	0612      	lsls	r2, r2, #24
10000328:	6293      	str	r3, [r2, #40]	; 0x28
1000032a:	e7fa      	b.n	10000322 <asm_gpio_set_dir+0xe>

1000032c <asm_gpio_get>:
1000032c:	23d0      	movs	r3, #208	; 0xd0
1000032e:	061b      	lsls	r3, r3, #24
10000330:	685b      	ldr	r3, [r3, #4]
10000332:	40c3      	lsrs	r3, r0
10000334:	2001      	movs	r0, #1
10000336:	4018      	ands	r0, r3
10000338:	4770      	bx	lr

1000033a <asm_gpio_put>:
1000033a:	2301      	movs	r3, #1
1000033c:	4083      	lsls	r3, r0
1000033e:	2900      	cmp	r1, #0
10000340:	d003      	beq.n	1000034a <asm_gpio_put+0x10>
10000342:	22d0      	movs	r2, #208	; 0xd0
10000344:	0612      	lsls	r2, r2, #24
10000346:	6153      	str	r3, [r2, #20]
10000348:	4770      	bx	lr
1000034a:	22d0      	movs	r2, #208	; 0xd0
1000034c:	0612      	lsls	r2, r2, #24
1000034e:	6193      	str	r3, [r2, #24]
10000350:	e7fa      	b.n	10000348 <asm_gpio_put+0xe>

10000352 <main>:
10000352:	b510      	push	{r4, lr}
10000354:	f000 f804 	bl	10000360 <main_asm>
10000358:	2000      	movs	r0, #0
1000035a:	bd10      	pop	{r4, pc}
1000035c:	0000      	movs	r0, r0
	...

10000360 <main_asm>:
10000360:	2019      	movs	r0, #25
10000362:	f7ff ffd3 	bl	1000030c <asm_gpio_init>
10000366:	2019      	movs	r0, #25
10000368:	2101      	movs	r1, #1
1000036a:	f7ff ffd3 	bl	10000314 <asm_gpio_set_dir>
1000036e:	2015      	movs	r0, #21
10000370:	f7ff ffcc 	bl	1000030c <asm_gpio_init>
10000374:	2015      	movs	r0, #21
10000376:	2100      	movs	r1, #0
10000378:	f7ff ffcc 	bl	10000314 <asm_gpio_set_dir>

1000037c <loop>:
1000037c:	2700      	movs	r7, #0
1000037e:	2015      	movs	r0, #21
10000380:	f7ff ffd4 	bl	1000032c <asm_gpio_get>
10000384:	2801      	cmp	r0, #1
10000386:	d00a      	beq.n	1000039e <loop_sec>

10000388 <innerLoop>:
10000388:	2015      	movs	r0, #21
1000038a:	f7ff ffcf 	bl	1000032c <asm_gpio_get>
1000038e:	2801      	cmp	r0, #1
10000390:	d003      	beq.n	1000039a <toggle_led>
10000392:	480a      	ldr	r0, [pc, #40]	; (100003bc <led_set_state+0xa>)
10000394:	f000 fd5c 	bl	10000e50 <sleep_ms>
10000398:	e7f6      	b.n	10000388 <innerLoop>

1000039a <toggle_led>:
1000039a:	f000 f801 	bl	100003a0 <sub_toggle>

1000039e <loop_sec>:
1000039e:	e7ed      	b.n	1000037c <loop>

100003a0 <sub_toggle>:
100003a0:	b500      	push	{lr}
100003a2:	2019      	movs	r0, #25
100003a4:	f7ff ffc2 	bl	1000032c <asm_gpio_get>
100003a8:	2800      	cmp	r0, #0
100003aa:	d001      	beq.n	100003b0 <led_set_on>

100003ac <led_set_off>:
100003ac:	2100      	movs	r1, #0
100003ae:	e000      	b.n	100003b2 <led_set_state>

100003b0 <led_set_on>:
100003b0:	2101      	movs	r1, #1

100003b2 <led_set_state>:
100003b2:	2019      	movs	r0, #25
100003b4:	f7ff ffc1 	bl	1000033a <asm_gpio_put>
100003b8:	bd00      	pop	{pc}
100003ba:	0000      	.short	0x0000
100003bc:	000001f4 	.word	0x000001f4

100003c0 <gpio_set_function>:
100003c0:	b510      	push	{r4, lr}
100003c2:	0083      	lsls	r3, r0, #2
100003c4:	4a08      	ldr	r2, [pc, #32]	; (100003e8 <gpio_set_function+0x28>)
100003c6:	4694      	mov	ip, r2
100003c8:	4463      	add	r3, ip
100003ca:	681c      	ldr	r4, [r3, #0]
100003cc:	2240      	movs	r2, #64	; 0x40
100003ce:	4062      	eors	r2, r4
100003d0:	24c0      	movs	r4, #192	; 0xc0
100003d2:	4014      	ands	r4, r2
100003d4:	2280      	movs	r2, #128	; 0x80
100003d6:	0152      	lsls	r2, r2, #5
100003d8:	4313      	orrs	r3, r2
100003da:	601c      	str	r4, [r3, #0]
100003dc:	00c0      	lsls	r0, r0, #3
100003de:	4b03      	ldr	r3, [pc, #12]	; (100003ec <gpio_set_function+0x2c>)
100003e0:	469c      	mov	ip, r3
100003e2:	4460      	add	r0, ip
100003e4:	6041      	str	r1, [r0, #4]
100003e6:	bd10      	pop	{r4, pc}
100003e8:	4001c004 	.word	0x4001c004
100003ec:	40014000 	.word	0x40014000

100003f0 <gpio_init>:
100003f0:	b510      	push	{r4, lr}
100003f2:	2301      	movs	r3, #1
100003f4:	4083      	lsls	r3, r0
100003f6:	22d0      	movs	r2, #208	; 0xd0
100003f8:	0612      	lsls	r2, r2, #24
100003fa:	6293      	str	r3, [r2, #40]	; 0x28
100003fc:	6193      	str	r3, [r2, #24]
100003fe:	2105      	movs	r1, #5
10000400:	f7ff ffde 	bl	100003c0 <gpio_set_function>
10000404:	bd10      	pop	{r4, pc}
	...

10000408 <hw_claim_lock>:
10000408:	f3ef 8010 	mrs	r0, PRIMASK
1000040c:	b672      	cpsid	i
1000040e:	4b03      	ldr	r3, [pc, #12]	; (1000041c <hw_claim_lock+0x14>)
10000410:	681b      	ldr	r3, [r3, #0]
10000412:	2b00      	cmp	r3, #0
10000414:	d0fb      	beq.n	1000040e <hw_claim_lock+0x6>
10000416:	f3bf 8f5f 	dmb	sy
1000041a:	4770      	bx	lr
1000041c:	d000012c 	.word	0xd000012c

10000420 <hw_claim_unlock>:
10000420:	f3bf 8f5f 	dmb	sy
10000424:	4b02      	ldr	r3, [pc, #8]	; (10000430 <hw_claim_unlock+0x10>)
10000426:	2200      	movs	r2, #0
10000428:	601a      	str	r2, [r3, #0]
1000042a:	f380 8810 	msr	PRIMASK, r0
1000042e:	4770      	bx	lr
10000430:	d000012c 	.word	0xd000012c

10000434 <hw_claim_or_assert>:
10000434:	b5f8      	push	{r3, r4, r5, r6, r7, lr}
10000436:	0006      	movs	r6, r0
10000438:	000c      	movs	r4, r1
1000043a:	0015      	movs	r5, r2
1000043c:	f7ff ffe4 	bl	10000408 <hw_claim_lock>
10000440:	08e3      	lsrs	r3, r4, #3
10000442:	18f7      	adds	r7, r6, r3
10000444:	5cf1      	ldrb	r1, [r6, r3]
10000446:	2207      	movs	r2, #7
10000448:	4022      	ands	r2, r4
1000044a:	2301      	movs	r3, #1
1000044c:	4093      	lsls	r3, r2
1000044e:	420b      	tst	r3, r1
10000450:	d105      	bne.n	1000045e <hw_claim_or_assert+0x2a>
10000452:	b2db      	uxtb	r3, r3
10000454:	430b      	orrs	r3, r1
10000456:	703b      	strb	r3, [r7, #0]
10000458:	f7ff ffe2 	bl	10000420 <hw_claim_unlock>
1000045c:	bdf8      	pop	{r3, r4, r5, r6, r7, pc}
1000045e:	0021      	movs	r1, r4
10000460:	0028      	movs	r0, r5
10000462:	f001 f91f 	bl	100016a4 <panic>
	...

10000468 <running_on_fpga>:
10000468:	4b03      	ldr	r3, [pc, #12]	; (10000478 <running_on_fpga+0x10>)
1000046a:	681b      	ldr	r3, [r3, #0]
1000046c:	2002      	movs	r0, #2
1000046e:	4018      	ands	r0, r3
10000470:	1e43      	subs	r3, r0, #1
10000472:	4198      	sbcs	r0, r3
10000474:	b2c0      	uxtb	r0, r0
10000476:	4770      	bx	lr
10000478:	4006c000 	.word	0x4006c000

1000047c <spin_locks_reset>:
1000047c:	2300      	movs	r3, #0
1000047e:	2b1f      	cmp	r3, #31
10000480:	d808      	bhi.n	10000494 <spin_locks_reset+0x18>
10000482:	4a05      	ldr	r2, [pc, #20]	; (10000498 <spin_locks_reset+0x1c>)
10000484:	189a      	adds	r2, r3, r2
10000486:	0092      	lsls	r2, r2, #2
10000488:	f3bf 8f5f 	dmb	sy
1000048c:	2100      	movs	r1, #0
1000048e:	6011      	str	r1, [r2, #0]
10000490:	3301      	adds	r3, #1
10000492:	e7f4      	b.n	1000047e <spin_locks_reset+0x2>
10000494:	4770      	bx	lr
10000496:	46c0      	nop			; (mov r8, r8)
10000498:	34000040 	.word	0x34000040

1000049c <next_striped_spin_lock_num>:
1000049c:	4a05      	ldr	r2, [pc, #20]	; (100004b4 <next_striped_spin_lock_num+0x18>)
1000049e:	7810      	ldrb	r0, [r2, #0]
100004a0:	1c43      	adds	r3, r0, #1
100004a2:	b2db      	uxtb	r3, r3
100004a4:	7013      	strb	r3, [r2, #0]
100004a6:	2b17      	cmp	r3, #23
100004a8:	d902      	bls.n	100004b0 <next_striped_spin_lock_num+0x14>
100004aa:	0013      	movs	r3, r2
100004ac:	2210      	movs	r2, #16
100004ae:	701a      	strb	r2, [r3, #0]
100004b0:	4770      	bx	lr
100004b2:	46c0      	nop			; (mov r8, r8)
100004b4:	200001b0 	.word	0x200001b0

100004b8 <alarm_pool_post_alloc_init>:
100004b8:	b570      	push	{r4, r5, r6, lr}
100004ba:	0005      	movs	r5, r0
100004bc:	000c      	movs	r4, r1
100004be:	0008      	movs	r0, r1
100004c0:	f000 fd16 	bl	10000ef0 <hardware_alarm_claim>
100004c4:	0020      	movs	r0, r4
100004c6:	f000 fdf9 	bl	100010bc <hardware_alarm_cancel>
100004ca:	4908      	ldr	r1, [pc, #32]	; (100004ec <alarm_pool_post_alloc_init+0x34>)
100004cc:	0020      	movs	r0, r4
100004ce:	f000 fd39 	bl	10000f44 <hardware_alarm_set_callback>
100004d2:	f7ff ffe3 	bl	1000049c <next_striped_spin_lock_num>
100004d6:	4b06      	ldr	r3, [pc, #24]	; (100004f0 <alarm_pool_post_alloc_init+0x38>)
100004d8:	469c      	mov	ip, r3
100004da:	4460      	add	r0, ip
100004dc:	0080      	lsls	r0, r0, #2
100004de:	6068      	str	r0, [r5, #4]
100004e0:	752c      	strb	r4, [r5, #20]
100004e2:	00a4      	lsls	r4, r4, #2
100004e4:	4b03      	ldr	r3, [pc, #12]	; (100004f4 <alarm_pool_post_alloc_init+0x3c>)
100004e6:	50e5      	str	r5, [r4, r3]
100004e8:	bd70      	pop	{r4, r5, r6, pc}
100004ea:	46c0      	nop			; (mov r8, r8)
100004ec:	100007fd 	.word	0x100007fd
100004f0:	34000040 	.word	0x34000040
100004f4:	2000040c 	.word	0x2000040c

100004f8 <sleep_until_callback>:
100004f8:	4b0a      	ldr	r3, [pc, #40]	; (10000524 <sleep_until_callback+0x2c>)
100004fa:	681a      	ldr	r2, [r3, #0]
100004fc:	f3ef 8110 	mrs	r1, PRIMASK
10000500:	b672      	cpsid	i
10000502:	6813      	ldr	r3, [r2, #0]
10000504:	2b00      	cmp	r3, #0
10000506:	d0fc      	beq.n	10000502 <sleep_until_callback+0xa>
10000508:	f3bf 8f5f 	dmb	sy
1000050c:	4b05      	ldr	r3, [pc, #20]	; (10000524 <sleep_until_callback+0x2c>)
1000050e:	681b      	ldr	r3, [r3, #0]
10000510:	f3bf 8f5f 	dmb	sy
10000514:	2200      	movs	r2, #0
10000516:	601a      	str	r2, [r3, #0]
10000518:	f381 8810 	msr	PRIMASK, r1
1000051c:	bf40      	sev
1000051e:	2000      	movs	r0, #0
10000520:	2100      	movs	r1, #0
10000522:	4770      	bx	lr
10000524:	20000420 	.word	0x20000420

10000528 <timer_pool_entry_comparator>:
10000528:	b510      	push	{r4, lr}
1000052a:	2900      	cmp	r1, #0
1000052c:	d022      	beq.n	10000574 <timer_pool_entry_comparator+0x4c>
1000052e:	6803      	ldr	r3, [r0, #0]
10000530:	7b1b      	ldrb	r3, [r3, #12]
10000532:	4299      	cmp	r1, r3
10000534:	d81e      	bhi.n	10000574 <timer_pool_entry_comparator+0x4c>
10000536:	4b17      	ldr	r3, [pc, #92]	; (10000594 <timer_pool_entry_comparator+0x6c>)
10000538:	469c      	mov	ip, r3
1000053a:	4461      	add	r1, ip
1000053c:	0109      	lsls	r1, r1, #4
1000053e:	6883      	ldr	r3, [r0, #8]
10000540:	469c      	mov	ip, r3
10000542:	4461      	add	r1, ip
10000544:	680c      	ldr	r4, [r1, #0]
10000546:	6849      	ldr	r1, [r1, #4]
10000548:	2a00      	cmp	r2, #0
1000054a:	d019      	beq.n	10000580 <timer_pool_entry_comparator+0x58>
1000054c:	6803      	ldr	r3, [r0, #0]
1000054e:	7b1b      	ldrb	r3, [r3, #12]
10000550:	429a      	cmp	r2, r3
10000552:	d815      	bhi.n	10000580 <timer_pool_entry_comparator+0x58>
10000554:	6883      	ldr	r3, [r0, #8]
10000556:	480f      	ldr	r0, [pc, #60]	; (10000594 <timer_pool_entry_comparator+0x6c>)
10000558:	4684      	mov	ip, r0
1000055a:	4462      	add	r2, ip
1000055c:	0112      	lsls	r2, r2, #4
1000055e:	189a      	adds	r2, r3, r2
10000560:	6810      	ldr	r0, [r2, #0]
10000562:	6853      	ldr	r3, [r2, #4]
10000564:	0002      	movs	r2, r0
10000566:	2001      	movs	r0, #1
10000568:	428b      	cmp	r3, r1
1000056a:	d801      	bhi.n	10000570 <timer_pool_entry_comparator+0x48>
1000056c:	d00e      	beq.n	1000058c <timer_pool_entry_comparator+0x64>
1000056e:	2000      	movs	r0, #0
10000570:	b2c0      	uxtb	r0, r0
10000572:	bd10      	pop	{r4, pc}
10000574:	4b08      	ldr	r3, [pc, #32]	; (10000598 <timer_pool_entry_comparator+0x70>)
10000576:	4a09      	ldr	r2, [pc, #36]	; (1000059c <timer_pool_entry_comparator+0x74>)
10000578:	213b      	movs	r1, #59	; 0x3b
1000057a:	4809      	ldr	r0, [pc, #36]	; (100005a0 <timer_pool_entry_comparator+0x78>)
1000057c:	f000 fff8 	bl	10001570 <__assert_func>
10000580:	4b05      	ldr	r3, [pc, #20]	; (10000598 <timer_pool_entry_comparator+0x70>)
10000582:	4a06      	ldr	r2, [pc, #24]	; (1000059c <timer_pool_entry_comparator+0x74>)
10000584:	213b      	movs	r1, #59	; 0x3b
10000586:	4806      	ldr	r0, [pc, #24]	; (100005a0 <timer_pool_entry_comparator+0x78>)
10000588:	f000 fff2 	bl	10001570 <__assert_func>
1000058c:	42a2      	cmp	r2, r4
1000058e:	d8ef      	bhi.n	10000570 <timer_pool_entry_comparator+0x48>
10000590:	e7ed      	b.n	1000056e <timer_pool_entry_comparator+0x46>
10000592:	46c0      	nop			; (mov r8, r8)
10000594:	0fffffff 	.word	0x0fffffff
10000598:	100041c0 	.word	0x100041c0
1000059c:	100044c0 	.word	0x100044c0
100005a0:	1000415c 	.word	0x1000415c

100005a4 <ph_add_child_node>:
100005a4:	b510      	push	{r4, lr}
100005a6:	2900      	cmp	r1, #0
100005a8:	d01e      	beq.n	100005e8 <ph_add_child_node+0x44>
100005aa:	7b03      	ldrb	r3, [r0, #12]
100005ac:	4299      	cmp	r1, r3
100005ae:	d81b      	bhi.n	100005e8 <ph_add_child_node+0x44>
100005b0:	004b      	lsls	r3, r1, #1
100005b2:	185b      	adds	r3, r3, r1
100005b4:	3b03      	subs	r3, #3
100005b6:	6804      	ldr	r4, [r0, #0]
100005b8:	46a4      	mov	ip, r4
100005ba:	4463      	add	r3, ip
100005bc:	2900      	cmp	r1, #0
100005be:	d019      	beq.n	100005f4 <ph_add_child_node+0x50>
100005c0:	2a00      	cmp	r2, #0
100005c2:	d01d      	beq.n	10000600 <ph_add_child_node+0x5c>
100005c4:	4291      	cmp	r1, r2
100005c6:	d021      	beq.n	1000060c <ph_add_child_node+0x68>
100005c8:	2a00      	cmp	r2, #0
100005ca:	d025      	beq.n	10000618 <ph_add_child_node+0x74>
100005cc:	7b04      	ldrb	r4, [r0, #12]
100005ce:	42a2      	cmp	r2, r4
100005d0:	d822      	bhi.n	10000618 <ph_add_child_node+0x74>
100005d2:	6804      	ldr	r4, [r0, #0]
100005d4:	0050      	lsls	r0, r2, #1
100005d6:	1880      	adds	r0, r0, r2
100005d8:	3803      	subs	r0, #3
100005da:	1820      	adds	r0, r4, r0
100005dc:	7081      	strb	r1, [r0, #2]
100005de:	7819      	ldrb	r1, [r3, #0]
100005e0:	2900      	cmp	r1, #0
100005e2:	d11f      	bne.n	10000624 <ph_add_child_node+0x80>
100005e4:	701a      	strb	r2, [r3, #0]
100005e6:	bd10      	pop	{r4, pc}
100005e8:	4b10      	ldr	r3, [pc, #64]	; (1000062c <ph_add_child_node+0x88>)
100005ea:	4a11      	ldr	r2, [pc, #68]	; (10000630 <ph_add_child_node+0x8c>)
100005ec:	2169      	movs	r1, #105	; 0x69
100005ee:	4811      	ldr	r0, [pc, #68]	; (10000634 <ph_add_child_node+0x90>)
100005f0:	f000 ffbe 	bl	10001570 <__assert_func>
100005f4:	4b10      	ldr	r3, [pc, #64]	; (10000638 <ph_add_child_node+0x94>)
100005f6:	4a11      	ldr	r2, [pc, #68]	; (1000063c <ph_add_child_node+0x98>)
100005f8:	3170      	adds	r1, #112	; 0x70
100005fa:	480e      	ldr	r0, [pc, #56]	; (10000634 <ph_add_child_node+0x90>)
100005fc:	f000 ffb8 	bl	10001570 <__assert_func>
10000600:	4b0f      	ldr	r3, [pc, #60]	; (10000640 <ph_add_child_node+0x9c>)
10000602:	4a0e      	ldr	r2, [pc, #56]	; (1000063c <ph_add_child_node+0x98>)
10000604:	2171      	movs	r1, #113	; 0x71
10000606:	480b      	ldr	r0, [pc, #44]	; (10000634 <ph_add_child_node+0x90>)
10000608:	f000 ffb2 	bl	10001570 <__assert_func>
1000060c:	4b0d      	ldr	r3, [pc, #52]	; (10000644 <ph_add_child_node+0xa0>)
1000060e:	4a0b      	ldr	r2, [pc, #44]	; (1000063c <ph_add_child_node+0x98>)
10000610:	2172      	movs	r1, #114	; 0x72
10000612:	4808      	ldr	r0, [pc, #32]	; (10000634 <ph_add_child_node+0x90>)
10000614:	f000 ffac 	bl	10001570 <__assert_func>
10000618:	4b04      	ldr	r3, [pc, #16]	; (1000062c <ph_add_child_node+0x88>)
1000061a:	4a05      	ldr	r2, [pc, #20]	; (10000630 <ph_add_child_node+0x8c>)
1000061c:	2169      	movs	r1, #105	; 0x69
1000061e:	4805      	ldr	r0, [pc, #20]	; (10000634 <ph_add_child_node+0x90>)
10000620:	f000 ffa6 	bl	10001570 <__assert_func>
10000624:	7041      	strb	r1, [r0, #1]
10000626:	701a      	strb	r2, [r3, #0]
10000628:	e7dd      	b.n	100005e6 <ph_add_child_node+0x42>
1000062a:	46c0      	nop			; (mov r8, r8)
1000062c:	100041f4 	.word	0x100041f4
10000630:	10004480 	.word	0x10004480
10000634:	10004210 	.word	0x10004210
10000638:	10004288 	.word	0x10004288
1000063c:	1000448c 	.word	0x1000448c
10000640:	10004294 	.word	0x10004294
10000644:	100042a0 	.word	0x100042a0

10000648 <ph_merge_nodes>:
10000648:	b570      	push	{r4, r5, r6, lr}
1000064a:	0006      	movs	r6, r0
1000064c:	000d      	movs	r5, r1
1000064e:	0014      	movs	r4, r2
10000650:	2900      	cmp	r1, #0
10000652:	d014      	beq.n	1000067e <ph_merge_nodes+0x36>
10000654:	2a00      	cmp	r2, #0
10000656:	d014      	beq.n	10000682 <ph_merge_nodes+0x3a>
10000658:	6880      	ldr	r0, [r0, #8]
1000065a:	6873      	ldr	r3, [r6, #4]
1000065c:	4798      	blx	r3
1000065e:	2800      	cmp	r0, #0
10000660:	d006      	beq.n	10000670 <ph_merge_nodes+0x28>
10000662:	0022      	movs	r2, r4
10000664:	0029      	movs	r1, r5
10000666:	0030      	movs	r0, r6
10000668:	f7ff ff9c 	bl	100005a4 <ph_add_child_node>
1000066c:	0028      	movs	r0, r5
1000066e:	e007      	b.n	10000680 <ph_merge_nodes+0x38>
10000670:	002a      	movs	r2, r5
10000672:	0021      	movs	r1, r4
10000674:	0030      	movs	r0, r6
10000676:	f7ff ff95 	bl	100005a4 <ph_add_child_node>
1000067a:	0020      	movs	r0, r4
1000067c:	e000      	b.n	10000680 <ph_merge_nodes+0x38>
1000067e:	0010      	movs	r0, r2
10000680:	bd70      	pop	{r4, r5, r6, pc}
10000682:	0008      	movs	r0, r1
10000684:	e7fc      	b.n	10000680 <ph_merge_nodes+0x38>
	...

10000688 <add_alarm_under_lock>:
10000688:	b5f0      	push	{r4, r5, r6, r7, lr}
1000068a:	b083      	sub	sp, #12
1000068c:	0005      	movs	r5, r0
1000068e:	9200      	str	r2, [sp, #0]
10000690:	9301      	str	r3, [sp, #4]
10000692:	ab0a      	add	r3, sp, #40	; 0x28
10000694:	781c      	ldrb	r4, [r3, #0]
10000696:	ab0b      	add	r3, sp, #44	; 0x2c
10000698:	781f      	ldrb	r7, [r3, #0]
1000069a:	2c00      	cmp	r4, #0
1000069c:	d026      	beq.n	100006ec <add_alarm_under_lock+0x64>
1000069e:	6803      	ldr	r3, [r0, #0]
100006a0:	7b5a      	ldrb	r2, [r3, #13]
100006a2:	4294      	cmp	r4, r2
100006a4:	d107      	bne.n	100006b6 <add_alarm_under_lock+0x2e>
100006a6:	2301      	movs	r3, #1
100006a8:	2b00      	cmp	r3, #0
100006aa:	d119      	bne.n	100006e0 <add_alarm_under_lock+0x58>
100006ac:	2c00      	cmp	r4, #0
100006ae:	d13b      	bne.n	10000728 <add_alarm_under_lock+0xa0>
100006b0:	0020      	movs	r0, r4
100006b2:	b003      	add	sp, #12
100006b4:	bdf0      	pop	{r4, r5, r6, r7, pc}
100006b6:	2c00      	cmp	r4, #0
100006b8:	d00c      	beq.n	100006d4 <add_alarm_under_lock+0x4c>
100006ba:	7b1a      	ldrb	r2, [r3, #12]
100006bc:	4294      	cmp	r4, r2
100006be:	d809      	bhi.n	100006d4 <add_alarm_under_lock+0x4c>
100006c0:	681a      	ldr	r2, [r3, #0]
100006c2:	0063      	lsls	r3, r4, #1
100006c4:	191b      	adds	r3, r3, r4
100006c6:	3b03      	subs	r3, #3
100006c8:	18d3      	adds	r3, r2, r3
100006ca:	789b      	ldrb	r3, [r3, #2]
100006cc:	2b00      	cmp	r3, #0
100006ce:	d0eb      	beq.n	100006a8 <add_alarm_under_lock+0x20>
100006d0:	2301      	movs	r3, #1
100006d2:	e7e9      	b.n	100006a8 <add_alarm_under_lock+0x20>
100006d4:	4b3e      	ldr	r3, [pc, #248]	; (100007d0 <add_alarm_under_lock+0x148>)
100006d6:	4a3f      	ldr	r2, [pc, #252]	; (100007d4 <add_alarm_under_lock+0x14c>)
100006d8:	2169      	movs	r1, #105	; 0x69
100006da:	483f      	ldr	r0, [pc, #252]	; (100007d8 <add_alarm_under_lock+0x150>)
100006dc:	f000 ff48 	bl	10001570 <__assert_func>
100006e0:	4b3e      	ldr	r3, [pc, #248]	; (100007dc <add_alarm_under_lock+0x154>)
100006e2:	4a3f      	ldr	r2, [pc, #252]	; (100007e0 <add_alarm_under_lock+0x158>)
100006e4:	2165      	movs	r1, #101	; 0x65
100006e6:	483f      	ldr	r0, [pc, #252]	; (100007e4 <add_alarm_under_lock+0x15c>)
100006e8:	f000 ff42 	bl	10001570 <__assert_func>
100006ec:	6803      	ldr	r3, [r0, #0]
100006ee:	7b9c      	ldrb	r4, [r3, #14]
100006f0:	2c00      	cmp	r4, #0
100006f2:	d0db      	beq.n	100006ac <add_alarm_under_lock+0x24>
100006f4:	d012      	beq.n	1000071c <add_alarm_under_lock+0x94>
100006f6:	7b1a      	ldrb	r2, [r3, #12]
100006f8:	4294      	cmp	r4, r2
100006fa:	d80f      	bhi.n	1000071c <add_alarm_under_lock+0x94>
100006fc:	0062      	lsls	r2, r4, #1
100006fe:	1912      	adds	r2, r2, r4
10000700:	3a03      	subs	r2, #3
10000702:	6819      	ldr	r1, [r3, #0]
10000704:	468c      	mov	ip, r1
10000706:	4462      	add	r2, ip
10000708:	7851      	ldrb	r1, [r2, #1]
1000070a:	7399      	strb	r1, [r3, #14]
1000070c:	2900      	cmp	r1, #0
1000070e:	d100      	bne.n	10000712 <add_alarm_under_lock+0x8a>
10000710:	73d9      	strb	r1, [r3, #15]
10000712:	2300      	movs	r3, #0
10000714:	7093      	strb	r3, [r2, #2]
10000716:	7053      	strb	r3, [r2, #1]
10000718:	7013      	strb	r3, [r2, #0]
1000071a:	e7c7      	b.n	100006ac <add_alarm_under_lock+0x24>
1000071c:	4b2c      	ldr	r3, [pc, #176]	; (100007d0 <add_alarm_under_lock+0x148>)
1000071e:	4a2d      	ldr	r2, [pc, #180]	; (100007d4 <add_alarm_under_lock+0x14c>)
10000720:	2169      	movs	r1, #105	; 0x69
10000722:	482d      	ldr	r0, [pc, #180]	; (100007d8 <add_alarm_under_lock+0x150>)
10000724:	f000 ff24 	bl	10001570 <__assert_func>
10000728:	2c00      	cmp	r4, #0
1000072a:	d03a      	beq.n	100007a2 <add_alarm_under_lock+0x11a>
1000072c:	682b      	ldr	r3, [r5, #0]
1000072e:	7b1b      	ldrb	r3, [r3, #12]
10000730:	429c      	cmp	r4, r3
10000732:	d836      	bhi.n	100007a2 <add_alarm_under_lock+0x11a>
10000734:	4b2c      	ldr	r3, [pc, #176]	; (100007e8 <add_alarm_under_lock+0x160>)
10000736:	18e3      	adds	r3, r4, r3
10000738:	011b      	lsls	r3, r3, #4
1000073a:	68aa      	ldr	r2, [r5, #8]
1000073c:	4694      	mov	ip, r2
1000073e:	4463      	add	r3, ip
10000740:	9a00      	ldr	r2, [sp, #0]
10000742:	601a      	str	r2, [r3, #0]
10000744:	9a01      	ldr	r2, [sp, #4]
10000746:	605a      	str	r2, [r3, #4]
10000748:	9a08      	ldr	r2, [sp, #32]
1000074a:	609a      	str	r2, [r3, #8]
1000074c:	9a09      	ldr	r2, [sp, #36]	; 0x24
1000074e:	60da      	str	r2, [r3, #12]
10000750:	682e      	ldr	r6, [r5, #0]
10000752:	2c00      	cmp	r4, #0
10000754:	d02b      	beq.n	100007ae <add_alarm_under_lock+0x126>
10000756:	d030      	beq.n	100007ba <add_alarm_under_lock+0x132>
10000758:	7b33      	ldrb	r3, [r6, #12]
1000075a:	429c      	cmp	r4, r3
1000075c:	d82d      	bhi.n	100007ba <add_alarm_under_lock+0x132>
1000075e:	0063      	lsls	r3, r4, #1
10000760:	191b      	adds	r3, r3, r4
10000762:	3b03      	subs	r3, #3
10000764:	6832      	ldr	r2, [r6, #0]
10000766:	4694      	mov	ip, r2
10000768:	4463      	add	r3, ip
1000076a:	2200      	movs	r2, #0
1000076c:	709a      	strb	r2, [r3, #2]
1000076e:	705a      	strb	r2, [r3, #1]
10000770:	701a      	strb	r2, [r3, #0]
10000772:	7b71      	ldrb	r1, [r6, #13]
10000774:	0022      	movs	r2, r4
10000776:	0030      	movs	r0, r6
10000778:	f7ff ff66 	bl	10000648 <ph_merge_nodes>
1000077c:	7370      	strb	r0, [r6, #13]
1000077e:	4284      	cmp	r4, r0
10000780:	d000      	beq.n	10000784 <add_alarm_under_lock+0xfc>
10000782:	e795      	b.n	100006b0 <add_alarm_under_lock+0x28>
10000784:	7d28      	ldrb	r0, [r5, #20]
10000786:	9a00      	ldr	r2, [sp, #0]
10000788:	9b01      	ldr	r3, [sp, #4]
1000078a:	f000 fc23 	bl	10000fd4 <hardware_alarm_set_target>
1000078e:	1e06      	subs	r6, r0, #0
10000790:	d001      	beq.n	10000796 <add_alarm_under_lock+0x10e>
10000792:	2f00      	cmp	r7, #0
10000794:	d017      	beq.n	100007c6 <add_alarm_under_lock+0x13e>
10000796:	9b0c      	ldr	r3, [sp, #48]	; 0x30
10000798:	2b00      	cmp	r3, #0
1000079a:	d100      	bne.n	1000079e <add_alarm_under_lock+0x116>
1000079c:	e788      	b.n	100006b0 <add_alarm_under_lock+0x28>
1000079e:	701e      	strb	r6, [r3, #0]
100007a0:	e786      	b.n	100006b0 <add_alarm_under_lock+0x28>
100007a2:	4b12      	ldr	r3, [pc, #72]	; (100007ec <add_alarm_under_lock+0x164>)
100007a4:	4a12      	ldr	r2, [pc, #72]	; (100007f0 <add_alarm_under_lock+0x168>)
100007a6:	213b      	movs	r1, #59	; 0x3b
100007a8:	480e      	ldr	r0, [pc, #56]	; (100007e4 <add_alarm_under_lock+0x15c>)
100007aa:	f000 fee1 	bl	10001570 <__assert_func>
100007ae:	4b11      	ldr	r3, [pc, #68]	; (100007f4 <add_alarm_under_lock+0x16c>)
100007b0:	4a11      	ldr	r2, [pc, #68]	; (100007f8 <add_alarm_under_lock+0x170>)
100007b2:	21a6      	movs	r1, #166	; 0xa6
100007b4:	4808      	ldr	r0, [pc, #32]	; (100007d8 <add_alarm_under_lock+0x150>)
100007b6:	f000 fedb 	bl	10001570 <__assert_func>
100007ba:	4b05      	ldr	r3, [pc, #20]	; (100007d0 <add_alarm_under_lock+0x148>)
100007bc:	4a05      	ldr	r2, [pc, #20]	; (100007d4 <add_alarm_under_lock+0x14c>)
100007be:	2169      	movs	r1, #105	; 0x69
100007c0:	4805      	ldr	r0, [pc, #20]	; (100007d8 <add_alarm_under_lock+0x150>)
100007c2:	f000 fed5 	bl	10001570 <__assert_func>
100007c6:	6828      	ldr	r0, [r5, #0]
100007c8:	0021      	movs	r1, r4
100007ca:	f000 fe4f 	bl	1000146c <ph_remove_and_free_node>
100007ce:	e7e2      	b.n	10000796 <add_alarm_under_lock+0x10e>
100007d0:	100041f4 	.word	0x100041f4
100007d4:	10004480 	.word	0x10004480
100007d8:	10004210 	.word	0x10004210
100007dc:	100042b8 	.word	0x100042b8
100007e0:	100044f8 	.word	0x100044f8
100007e4:	1000415c 	.word	0x1000415c
100007e8:	0fffffff 	.word	0x0fffffff
100007ec:	100041c0 	.word	0x100041c0
100007f0:	100044c0 	.word	0x100044c0
100007f4:	10004158 	.word	0x10004158
100007f8:	100044a0 	.word	0x100044a0

100007fc <alarm_pool_alarm_callback>:
100007fc:	b5f0      	push	{r4, r5, r6, r7, lr}
100007fe:	46de      	mov	lr, fp
10000800:	4657      	mov	r7, sl
10000802:	464e      	mov	r6, r9
10000804:	4645      	mov	r5, r8
10000806:	b5e0      	push	{r5, r6, r7, lr}
10000808:	b08b      	sub	sp, #44	; 0x2c
1000080a:	9009      	str	r0, [sp, #36]	; 0x24
1000080c:	2300      	movs	r3, #0
1000080e:	9308      	str	r3, [sp, #32]
10000810:	0082      	lsls	r2, r0, #2
10000812:	4bb3      	ldr	r3, [pc, #716]	; (10000ae0 <alarm_pool_alarm_callback+0x2e4>)
10000814:	58d6      	ldr	r6, [r2, r3]
10000816:	0037      	movs	r7, r6
10000818:	e052      	b.n	100008c0 <alarm_pool_alarm_callback+0xc4>
1000081a:	4bb2      	ldr	r3, [pc, #712]	; (10000ae4 <alarm_pool_alarm_callback+0x2e8>)
1000081c:	4ab2      	ldr	r2, [pc, #712]	; (10000ae8 <alarm_pool_alarm_callback+0x2ec>)
1000081e:	213f      	movs	r1, #63	; 0x3f
10000820:	48b2      	ldr	r0, [pc, #712]	; (10000aec <alarm_pool_alarm_callback+0x2f0>)
10000822:	f000 fea5 	bl	10001570 <__assert_func>
10000826:	4bb2      	ldr	r3, [pc, #712]	; (10000af0 <alarm_pool_alarm_callback+0x2f4>)
10000828:	4ab2      	ldr	r2, [pc, #712]	; (10000af4 <alarm_pool_alarm_callback+0x2f8>)
1000082a:	213b      	movs	r1, #59	; 0x3b
1000082c:	48b2      	ldr	r0, [pc, #712]	; (10000af8 <alarm_pool_alarm_callback+0x2fc>)
1000082e:	f000 fe9f 	bl	10001570 <__assert_func>
10000832:	2900      	cmp	r1, #0
10000834:	d101      	bne.n	1000083a <alarm_pool_alarm_callback+0x3e>
10000836:	2800      	cmp	r0, #0
10000838:	d169      	bne.n	1000090e <alarm_pool_alarm_callback+0x112>
1000083a:	2100      	movs	r1, #0
1000083c:	4640      	mov	r0, r8
1000083e:	f000 fe0b 	bl	10001458 <ph_remove_head>
10000842:	42a0      	cmp	r0, r4
10000844:	d119      	bne.n	1000087a <alarm_pool_alarm_callback+0x7e>
10000846:	682a      	ldr	r2, [r5, #0]
10000848:	686b      	ldr	r3, [r5, #4]
1000084a:	9206      	str	r2, [sp, #24]
1000084c:	9307      	str	r3, [sp, #28]
1000084e:	68ab      	ldr	r3, [r5, #8]
10000850:	4698      	mov	r8, r3
10000852:	68eb      	ldr	r3, [r5, #12]
10000854:	469a      	mov	sl, r3
10000856:	4643      	mov	r3, r8
10000858:	2b00      	cmp	r3, #0
1000085a:	d014      	beq.n	10000886 <alarm_pool_alarm_callback+0x8a>
1000085c:	2c00      	cmp	r4, #0
1000085e:	d018      	beq.n	10000892 <alarm_pool_alarm_callback+0x96>
10000860:	683b      	ldr	r3, [r7, #0]
10000862:	7b1b      	ldrb	r3, [r3, #12]
10000864:	429c      	cmp	r4, r3
10000866:	d814      	bhi.n	10000892 <alarm_pool_alarm_callback+0x96>
10000868:	1e63      	subs	r3, r4, #1
1000086a:	68fa      	ldr	r2, [r7, #12]
1000086c:	5cd3      	ldrb	r3, [r2, r3]
1000086e:	9308      	str	r3, [sp, #32]
10000870:	021b      	lsls	r3, r3, #8
10000872:	4318      	orrs	r0, r3
10000874:	6138      	str	r0, [r7, #16]
10000876:	2000      	movs	r0, #0
10000878:	e015      	b.n	100008a6 <alarm_pool_alarm_callback+0xaa>
1000087a:	4ba0      	ldr	r3, [pc, #640]	; (10000afc <alarm_pool_alarm_callback+0x300>)
1000087c:	4aa0      	ldr	r2, [pc, #640]	; (10000b00 <alarm_pool_alarm_callback+0x304>)
1000087e:	218c      	movs	r1, #140	; 0x8c
10000880:	489d      	ldr	r0, [pc, #628]	; (10000af8 <alarm_pool_alarm_callback+0x2fc>)
10000882:	f000 fe75 	bl	10001570 <__assert_func>
10000886:	4b9f      	ldr	r3, [pc, #636]	; (10000b04 <alarm_pool_alarm_callback+0x308>)
10000888:	4a9d      	ldr	r2, [pc, #628]	; (10000b00 <alarm_pool_alarm_callback+0x304>)
1000088a:	2190      	movs	r1, #144	; 0x90
1000088c:	489a      	ldr	r0, [pc, #616]	; (10000af8 <alarm_pool_alarm_callback+0x2fc>)
1000088e:	f000 fe6f 	bl	10001570 <__assert_func>
10000892:	4b97      	ldr	r3, [pc, #604]	; (10000af0 <alarm_pool_alarm_callback+0x2f4>)
10000894:	4a9c      	ldr	r2, [pc, #624]	; (10000b08 <alarm_pool_alarm_callback+0x30c>)
10000896:	2140      	movs	r1, #64	; 0x40
10000898:	4897      	ldr	r0, [pc, #604]	; (10000af8 <alarm_pool_alarm_callback+0x2fc>)
1000089a:	f000 fe69 	bl	10001570 <__assert_func>
1000089e:	2300      	movs	r3, #0
100008a0:	469a      	mov	sl, r3
100008a2:	4698      	mov	r8, r3
100008a4:	2000      	movs	r0, #0
100008a6:	687b      	ldr	r3, [r7, #4]
100008a8:	f3bf 8f5f 	dmb	sy
100008ac:	2200      	movs	r2, #0
100008ae:	601a      	str	r2, [r3, #0]
100008b0:	f386 8810 	msr	PRIMASK, r6
100008b4:	4643      	mov	r3, r8
100008b6:	2b00      	cmp	r3, #0
100008b8:	d132      	bne.n	10000920 <alarm_pool_alarm_callback+0x124>
100008ba:	2800      	cmp	r0, #0
100008bc:	d100      	bne.n	100008c0 <alarm_pool_alarm_callback+0xc4>
100008be:	e107      	b.n	10000ad0 <alarm_pool_alarm_callback+0x2d4>
100008c0:	f000 fb22 	bl	10000f08 <time_us_64>
100008c4:	0002      	movs	r2, r0
100008c6:	1e0b      	subs	r3, r1, #0
100008c8:	dba7      	blt.n	1000081a <alarm_pool_alarm_callback+0x1e>
100008ca:	2000      	movs	r0, #0
100008cc:	2100      	movs	r1, #0
100008ce:	9006      	str	r0, [sp, #24]
100008d0:	9107      	str	r1, [sp, #28]
100008d2:	6878      	ldr	r0, [r7, #4]
100008d4:	f3ef 8610 	mrs	r6, PRIMASK
100008d8:	b672      	cpsid	i
100008da:	6801      	ldr	r1, [r0, #0]
100008dc:	2900      	cmp	r1, #0
100008de:	d0fc      	beq.n	100008da <alarm_pool_alarm_callback+0xde>
100008e0:	f3bf 8f5f 	dmb	sy
100008e4:	6839      	ldr	r1, [r7, #0]
100008e6:	4688      	mov	r8, r1
100008e8:	7b4c      	ldrb	r4, [r1, #13]
100008ea:	2c00      	cmp	r4, #0
100008ec:	d0d7      	beq.n	1000089e <alarm_pool_alarm_callback+0xa2>
100008ee:	d09a      	beq.n	10000826 <alarm_pool_alarm_callback+0x2a>
100008f0:	7b09      	ldrb	r1, [r1, #12]
100008f2:	428c      	cmp	r4, r1
100008f4:	d897      	bhi.n	10000826 <alarm_pool_alarm_callback+0x2a>
100008f6:	4985      	ldr	r1, [pc, #532]	; (10000b0c <alarm_pool_alarm_callback+0x310>)
100008f8:	1865      	adds	r5, r4, r1
100008fa:	012d      	lsls	r5, r5, #4
100008fc:	68b9      	ldr	r1, [r7, #8]
100008fe:	468c      	mov	ip, r1
10000900:	4465      	add	r5, ip
10000902:	6828      	ldr	r0, [r5, #0]
10000904:	6869      	ldr	r1, [r5, #4]
10000906:	1a80      	subs	r0, r0, r2
10000908:	4199      	sbcs	r1, r3
1000090a:	2900      	cmp	r1, #0
1000090c:	dd91      	ble.n	10000832 <alarm_pool_alarm_callback+0x36>
1000090e:	682a      	ldr	r2, [r5, #0]
10000910:	686b      	ldr	r3, [r5, #4]
10000912:	9809      	ldr	r0, [sp, #36]	; 0x24
10000914:	f000 fb5e 	bl	10000fd4 <hardware_alarm_set_target>
10000918:	2300      	movs	r3, #0
1000091a:	469a      	mov	sl, r3
1000091c:	4698      	mov	r8, r3
1000091e:	e7c2      	b.n	100008a6 <alarm_pool_alarm_callback+0xaa>
10000920:	9b08      	ldr	r3, [sp, #32]
10000922:	021b      	lsls	r3, r3, #8
10000924:	4323      	orrs	r3, r4
10000926:	4699      	mov	r9, r3
10000928:	4651      	mov	r1, sl
1000092a:	0018      	movs	r0, r3
1000092c:	47c0      	blx	r8
1000092e:	0005      	movs	r5, r0
10000930:	000e      	movs	r6, r1
10000932:	687a      	ldr	r2, [r7, #4]
10000934:	f3ef 8b10 	mrs	fp, PRIMASK
10000938:	b672      	cpsid	i
1000093a:	6813      	ldr	r3, [r2, #0]
1000093c:	4259      	negs	r1, r3
1000093e:	414b      	adcs	r3, r1
10000940:	b2d9      	uxtb	r1, r3
10000942:	2b00      	cmp	r3, #0
10000944:	d1f9      	bne.n	1000093a <alarm_pool_alarm_callback+0x13e>
10000946:	f3bf 8f5f 	dmb	sy
1000094a:	2e00      	cmp	r6, #0
1000094c:	db26      	blt.n	1000099c <alarm_pool_alarm_callback+0x1a0>
1000094e:	2e00      	cmp	r6, #0
10000950:	dd52      	ble.n	100009f8 <alarm_pool_alarm_callback+0x1fc>
10000952:	693b      	ldr	r3, [r7, #16]
10000954:	2b00      	cmp	r3, #0
10000956:	d053      	beq.n	10000a00 <alarm_pool_alarm_callback+0x204>
10000958:	454b      	cmp	r3, r9
1000095a:	d172      	bne.n	10000a42 <alarm_pool_alarm_callback+0x246>
1000095c:	f000 fad4 	bl	10000f08 <time_us_64>
10000960:	0002      	movs	r2, r0
10000962:	1e0b      	subs	r3, r1, #0
10000964:	db73      	blt.n	10000a4e <alarm_pool_alarm_callback+0x252>
10000966:	0001      	movs	r1, r0
10000968:	0018      	movs	r0, r3
1000096a:	1952      	adds	r2, r2, r5
1000096c:	4173      	adcs	r3, r6
1000096e:	4298      	cmp	r0, r3
10000970:	d802      	bhi.n	10000978 <alarm_pool_alarm_callback+0x17c>
10000972:	d104      	bne.n	1000097e <alarm_pool_alarm_callback+0x182>
10000974:	4291      	cmp	r1, r2
10000976:	d902      	bls.n	1000097e <alarm_pool_alarm_callback+0x182>
10000978:	2201      	movs	r2, #1
1000097a:	4252      	negs	r2, r2
1000097c:	17d3      	asrs	r3, r2, #31
1000097e:	2b00      	cmp	r3, #0
10000980:	db6b      	blt.n	10000a5a <alarm_pool_alarm_callback+0x25e>
10000982:	2100      	movs	r1, #0
10000984:	9104      	str	r1, [sp, #16]
10000986:	3101      	adds	r1, #1
10000988:	9103      	str	r1, [sp, #12]
1000098a:	9402      	str	r4, [sp, #8]
1000098c:	4651      	mov	r1, sl
1000098e:	9101      	str	r1, [sp, #4]
10000990:	4641      	mov	r1, r8
10000992:	9100      	str	r1, [sp, #0]
10000994:	0038      	movs	r0, r7
10000996:	f7ff fe77 	bl	10000688 <add_alarm_under_lock>
1000099a:	e049      	b.n	10000a30 <alarm_pool_alarm_callback+0x234>
1000099c:	693b      	ldr	r3, [r7, #16]
1000099e:	2b00      	cmp	r3, #0
100009a0:	d0d5      	beq.n	1000094e <alarm_pool_alarm_callback+0x152>
100009a2:	454b      	cmp	r3, r9
100009a4:	d11c      	bne.n	100009e0 <alarm_pool_alarm_callback+0x1e4>
100009a6:	9a06      	ldr	r2, [sp, #24]
100009a8:	9b07      	ldr	r3, [sp, #28]
100009aa:	0010      	movs	r0, r2
100009ac:	0019      	movs	r1, r3
100009ae:	1b52      	subs	r2, r2, r5
100009b0:	41b3      	sbcs	r3, r6
100009b2:	4299      	cmp	r1, r3
100009b4:	d802      	bhi.n	100009bc <alarm_pool_alarm_callback+0x1c0>
100009b6:	d104      	bne.n	100009c2 <alarm_pool_alarm_callback+0x1c6>
100009b8:	4290      	cmp	r0, r2
100009ba:	d902      	bls.n	100009c2 <alarm_pool_alarm_callback+0x1c6>
100009bc:	2201      	movs	r2, #1
100009be:	4252      	negs	r2, r2
100009c0:	17d3      	asrs	r3, r2, #31
100009c2:	2b00      	cmp	r3, #0
100009c4:	db12      	blt.n	100009ec <alarm_pool_alarm_callback+0x1f0>
100009c6:	2100      	movs	r1, #0
100009c8:	9104      	str	r1, [sp, #16]
100009ca:	3101      	adds	r1, #1
100009cc:	9103      	str	r1, [sp, #12]
100009ce:	9402      	str	r4, [sp, #8]
100009d0:	4651      	mov	r1, sl
100009d2:	9101      	str	r1, [sp, #4]
100009d4:	4641      	mov	r1, r8
100009d6:	9100      	str	r1, [sp, #0]
100009d8:	0038      	movs	r0, r7
100009da:	f7ff fe55 	bl	10000688 <add_alarm_under_lock>
100009de:	e027      	b.n	10000a30 <alarm_pool_alarm_callback+0x234>
100009e0:	4b4b      	ldr	r3, [pc, #300]	; (10000b10 <alarm_pool_alarm_callback+0x314>)
100009e2:	4a47      	ldr	r2, [pc, #284]	; (10000b00 <alarm_pool_alarm_callback+0x304>)
100009e4:	219f      	movs	r1, #159	; 0x9f
100009e6:	4844      	ldr	r0, [pc, #272]	; (10000af8 <alarm_pool_alarm_callback+0x2fc>)
100009e8:	f000 fdc2 	bl	10001570 <__assert_func>
100009ec:	4b3d      	ldr	r3, [pc, #244]	; (10000ae4 <alarm_pool_alarm_callback+0x2e8>)
100009ee:	4a3e      	ldr	r2, [pc, #248]	; (10000ae8 <alarm_pool_alarm_callback+0x2ec>)
100009f0:	213f      	movs	r1, #63	; 0x3f
100009f2:	483e      	ldr	r0, [pc, #248]	; (10000aec <alarm_pool_alarm_callback+0x2f0>)
100009f4:	f000 fdbc 	bl	10001570 <__assert_func>
100009f8:	2e00      	cmp	r6, #0
100009fa:	d101      	bne.n	10000a00 <alarm_pool_alarm_callback+0x204>
100009fc:	2d00      	cmp	r5, #0
100009fe:	d1a8      	bne.n	10000952 <alarm_pool_alarm_callback+0x156>
10000a00:	683a      	ldr	r2, [r7, #0]
10000a02:	2c00      	cmp	r4, #0
10000a04:	d045      	beq.n	10000a92 <alarm_pool_alarm_callback+0x296>
10000a06:	7b53      	ldrb	r3, [r2, #13]
10000a08:	429c      	cmp	r4, r3
10000a0a:	d12c      	bne.n	10000a66 <alarm_pool_alarm_callback+0x26a>
10000a0c:	2101      	movs	r1, #1
10000a0e:	2900      	cmp	r1, #0
10000a10:	d13f      	bne.n	10000a92 <alarm_pool_alarm_callback+0x296>
10000a12:	7bd3      	ldrb	r3, [r2, #15]
10000a14:	2b00      	cmp	r3, #0
10000a16:	d142      	bne.n	10000a9e <alarm_pool_alarm_callback+0x2a2>
10000a18:	73d4      	strb	r4, [r2, #15]
10000a1a:	2c00      	cmp	r4, #0
10000a1c:	d052      	beq.n	10000ac4 <alarm_pool_alarm_callback+0x2c8>
10000a1e:	683b      	ldr	r3, [r7, #0]
10000a20:	7b1b      	ldrb	r3, [r3, #12]
10000a22:	429c      	cmp	r4, r3
10000a24:	d84e      	bhi.n	10000ac4 <alarm_pool_alarm_callback+0x2c8>
10000a26:	68fa      	ldr	r2, [r7, #12]
10000a28:	3c01      	subs	r4, #1
10000a2a:	5d13      	ldrb	r3, [r2, r4]
10000a2c:	3301      	adds	r3, #1
10000a2e:	5513      	strb	r3, [r2, r4]
10000a30:	2300      	movs	r3, #0
10000a32:	613b      	str	r3, [r7, #16]
10000a34:	687a      	ldr	r2, [r7, #4]
10000a36:	f3bf 8f5f 	dmb	sy
10000a3a:	6013      	str	r3, [r2, #0]
10000a3c:	f38b 8810 	msr	PRIMASK, fp
10000a40:	e73e      	b.n	100008c0 <alarm_pool_alarm_callback+0xc4>
10000a42:	4b33      	ldr	r3, [pc, #204]	; (10000b10 <alarm_pool_alarm_callback+0x314>)
10000a44:	4a2e      	ldr	r2, [pc, #184]	; (10000b00 <alarm_pool_alarm_callback+0x304>)
10000a46:	21a2      	movs	r1, #162	; 0xa2
10000a48:	482b      	ldr	r0, [pc, #172]	; (10000af8 <alarm_pool_alarm_callback+0x2fc>)
10000a4a:	f000 fd91 	bl	10001570 <__assert_func>
10000a4e:	4b25      	ldr	r3, [pc, #148]	; (10000ae4 <alarm_pool_alarm_callback+0x2e8>)
10000a50:	4a25      	ldr	r2, [pc, #148]	; (10000ae8 <alarm_pool_alarm_callback+0x2ec>)
10000a52:	213f      	movs	r1, #63	; 0x3f
10000a54:	4825      	ldr	r0, [pc, #148]	; (10000aec <alarm_pool_alarm_callback+0x2f0>)
10000a56:	f000 fd8b 	bl	10001570 <__assert_func>
10000a5a:	4b22      	ldr	r3, [pc, #136]	; (10000ae4 <alarm_pool_alarm_callback+0x2e8>)
10000a5c:	4a22      	ldr	r2, [pc, #136]	; (10000ae8 <alarm_pool_alarm_callback+0x2ec>)
10000a5e:	213f      	movs	r1, #63	; 0x3f
10000a60:	4822      	ldr	r0, [pc, #136]	; (10000aec <alarm_pool_alarm_callback+0x2f0>)
10000a62:	f000 fd85 	bl	10001570 <__assert_func>
10000a66:	2c00      	cmp	r4, #0
10000a68:	d00d      	beq.n	10000a86 <alarm_pool_alarm_callback+0x28a>
10000a6a:	7b13      	ldrb	r3, [r2, #12]
10000a6c:	429c      	cmp	r4, r3
10000a6e:	d80a      	bhi.n	10000a86 <alarm_pool_alarm_callback+0x28a>
10000a70:	0063      	lsls	r3, r4, #1
10000a72:	191b      	adds	r3, r3, r4
10000a74:	3b03      	subs	r3, #3
10000a76:	6810      	ldr	r0, [r2, #0]
10000a78:	4684      	mov	ip, r0
10000a7a:	4463      	add	r3, ip
10000a7c:	789b      	ldrb	r3, [r3, #2]
10000a7e:	2b00      	cmp	r3, #0
10000a80:	d0c5      	beq.n	10000a0e <alarm_pool_alarm_callback+0x212>
10000a82:	2101      	movs	r1, #1
10000a84:	e7c3      	b.n	10000a0e <alarm_pool_alarm_callback+0x212>
10000a86:	4b23      	ldr	r3, [pc, #140]	; (10000b14 <alarm_pool_alarm_callback+0x318>)
10000a88:	4a23      	ldr	r2, [pc, #140]	; (10000b18 <alarm_pool_alarm_callback+0x31c>)
10000a8a:	2169      	movs	r1, #105	; 0x69
10000a8c:	4823      	ldr	r0, [pc, #140]	; (10000b1c <alarm_pool_alarm_callback+0x320>)
10000a8e:	f000 fd6f 	bl	10001570 <__assert_func>
10000a92:	4b23      	ldr	r3, [pc, #140]	; (10000b20 <alarm_pool_alarm_callback+0x324>)
10000a94:	4a23      	ldr	r2, [pc, #140]	; (10000b24 <alarm_pool_alarm_callback+0x328>)
10000a96:	21f7      	movs	r1, #247	; 0xf7
10000a98:	4820      	ldr	r0, [pc, #128]	; (10000b1c <alarm_pool_alarm_callback+0x320>)
10000a9a:	f000 fd69 	bl	10001570 <__assert_func>
10000a9e:	2b00      	cmp	r3, #0
10000aa0:	d00a      	beq.n	10000ab8 <alarm_pool_alarm_callback+0x2bc>
10000aa2:	7b11      	ldrb	r1, [r2, #12]
10000aa4:	428b      	cmp	r3, r1
10000aa6:	d807      	bhi.n	10000ab8 <alarm_pool_alarm_callback+0x2bc>
10000aa8:	0059      	lsls	r1, r3, #1
10000aaa:	18cb      	adds	r3, r1, r3
10000aac:	3b03      	subs	r3, #3
10000aae:	6811      	ldr	r1, [r2, #0]
10000ab0:	468c      	mov	ip, r1
10000ab2:	4463      	add	r3, ip
10000ab4:	705c      	strb	r4, [r3, #1]
10000ab6:	e7af      	b.n	10000a18 <alarm_pool_alarm_callback+0x21c>
10000ab8:	4b16      	ldr	r3, [pc, #88]	; (10000b14 <alarm_pool_alarm_callback+0x318>)
10000aba:	4a17      	ldr	r2, [pc, #92]	; (10000b18 <alarm_pool_alarm_callback+0x31c>)
10000abc:	2169      	movs	r1, #105	; 0x69
10000abe:	4817      	ldr	r0, [pc, #92]	; (10000b1c <alarm_pool_alarm_callback+0x320>)
10000ac0:	f000 fd56 	bl	10001570 <__assert_func>
10000ac4:	4b0a      	ldr	r3, [pc, #40]	; (10000af0 <alarm_pool_alarm_callback+0x2f4>)
10000ac6:	4a10      	ldr	r2, [pc, #64]	; (10000b08 <alarm_pool_alarm_callback+0x30c>)
10000ac8:	2140      	movs	r1, #64	; 0x40
10000aca:	480b      	ldr	r0, [pc, #44]	; (10000af8 <alarm_pool_alarm_callback+0x2fc>)
10000acc:	f000 fd50 	bl	10001570 <__assert_func>
10000ad0:	b00b      	add	sp, #44	; 0x2c
10000ad2:	bcf0      	pop	{r4, r5, r6, r7}
10000ad4:	46bb      	mov	fp, r7
10000ad6:	46b2      	mov	sl, r6
10000ad8:	46a9      	mov	r9, r5
10000ada:	46a0      	mov	r8, r4
10000adc:	bdf0      	pop	{r4, r5, r6, r7, pc}
10000ade:	46c0      	nop			; (mov r8, r8)
10000ae0:	2000040c 	.word	0x2000040c
10000ae4:	100042e0 	.word	0x100042e0
10000ae8:	10004468 	.word	0x10004468
10000aec:	100042fc 	.word	0x100042fc
10000af0:	100041c0 	.word	0x100041c0
10000af4:	100044c0 	.word	0x100044c0
10000af8:	1000415c 	.word	0x1000415c
10000afc:	10004370 	.word	0x10004370
10000b00:	10004510 	.word	0x10004510
10000b04:	10004388 	.word	0x10004388
10000b08:	100044cc 	.word	0x100044cc
10000b0c:	0fffffff 	.word	0x0fffffff
10000b10:	10004394 	.word	0x10004394
10000b14:	100041f4 	.word	0x100041f4
10000b18:	10004480 	.word	0x10004480
10000b1c:	10004210 	.word	0x10004210
10000b20:	100043d0 	.word	0x100043d0
10000b24:	100044b0 	.word	0x100044b0

10000b28 <alarm_pool_init_default>:
10000b28:	b510      	push	{r4, lr}
10000b2a:	4b0a      	ldr	r3, [pc, #40]	; (10000b54 <alarm_pool_init_default+0x2c>)
10000b2c:	685b      	ldr	r3, [r3, #4]
10000b2e:	2b00      	cmp	r3, #0
10000b30:	d004      	beq.n	10000b3c <alarm_pool_init_default+0x14>
10000b32:	210a      	movs	r1, #10
10000b34:	4808      	ldr	r0, [pc, #32]	; (10000b58 <alarm_pool_init_default+0x30>)
10000b36:	f000 fae1 	bl	100010fc <lock_init>
10000b3a:	bd10      	pop	{r4, pc}
10000b3c:	4c05      	ldr	r4, [pc, #20]	; (10000b54 <alarm_pool_init_default+0x2c>)
10000b3e:	0023      	movs	r3, r4
10000b40:	4a06      	ldr	r2, [pc, #24]	; (10000b5c <alarm_pool_init_default+0x34>)
10000b42:	2110      	movs	r1, #16
10000b44:	6820      	ldr	r0, [r4, #0]
10000b46:	f000 fba7 	bl	10001298 <ph_post_alloc_init>
10000b4a:	2103      	movs	r1, #3
10000b4c:	0020      	movs	r0, r4
10000b4e:	f7ff fcb3 	bl	100004b8 <alarm_pool_post_alloc_init>
10000b52:	e7ee      	b.n	10000b32 <alarm_pool_init_default+0xa>
10000b54:	200001b4 	.word	0x200001b4
10000b58:	20000420 	.word	0x20000420
10000b5c:	10000529 	.word	0x10000529

10000b60 <alarm_pool_get_default>:
10000b60:	b510      	push	{r4, lr}
10000b62:	4b06      	ldr	r3, [pc, #24]	; (10000b7c <alarm_pool_get_default+0x1c>)
10000b64:	685b      	ldr	r3, [r3, #4]
10000b66:	2b00      	cmp	r3, #0
10000b68:	d001      	beq.n	10000b6e <alarm_pool_get_default+0xe>
10000b6a:	4804      	ldr	r0, [pc, #16]	; (10000b7c <alarm_pool_get_default+0x1c>)
10000b6c:	bd10      	pop	{r4, pc}
10000b6e:	4b04      	ldr	r3, [pc, #16]	; (10000b80 <alarm_pool_get_default+0x20>)
10000b70:	4a04      	ldr	r2, [pc, #16]	; (10000b84 <alarm_pool_get_default+0x24>)
10000b72:	215c      	movs	r1, #92	; 0x5c
10000b74:	4804      	ldr	r0, [pc, #16]	; (10000b88 <alarm_pool_get_default+0x28>)
10000b76:	f000 fcfb 	bl	10001570 <__assert_func>
10000b7a:	46c0      	nop			; (mov r8, r8)
10000b7c:	200001b4 	.word	0x200001b4
10000b80:	100043f4 	.word	0x100043f4
10000b84:	100044e0 	.word	0x100044e0
10000b88:	1000415c 	.word	0x1000415c

10000b8c <alarm_pool_add_alarm_at>:
10000b8c:	b5f0      	push	{r4, r5, r6, r7, lr}
10000b8e:	46de      	mov	lr, fp
10000b90:	4657      	mov	r7, sl
10000b92:	464e      	mov	r6, r9
10000b94:	4645      	mov	r5, r8
10000b96:	b5e0      	push	{r5, r6, r7, lr}
10000b98:	b08b      	sub	sp, #44	; 0x2c
10000b9a:	4680      	mov	r8, r0
10000b9c:	0016      	movs	r6, r2
10000b9e:	001f      	movs	r7, r3
10000ba0:	9b14      	ldr	r3, [sp, #80]	; 0x50
10000ba2:	469a      	mov	sl, r3
10000ba4:	9b15      	ldr	r3, [sp, #84]	; 0x54
10000ba6:	4699      	mov	r9, r3
10000ba8:	ab16      	add	r3, sp, #88	; 0x58
10000baa:	781b      	ldrb	r3, [r3, #0]
10000bac:	469b      	mov	fp, r3
10000bae:	231f      	movs	r3, #31
10000bb0:	aa02      	add	r2, sp, #8
10000bb2:	4694      	mov	ip, r2
10000bb4:	4463      	add	r3, ip
10000bb6:	2200      	movs	r2, #0
10000bb8:	701a      	strb	r2, [r3, #0]
10000bba:	e032      	b.n	10000c22 <alarm_pool_add_alarm_at+0x96>
10000bbc:	2800      	cmp	r0, #0
10000bbe:	d009      	beq.n	10000bd4 <alarm_pool_add_alarm_at+0x48>
10000bc0:	4642      	mov	r2, r8
10000bc2:	6812      	ldr	r2, [r2, #0]
10000bc4:	7b12      	ldrb	r2, [r2, #12]
10000bc6:	4290      	cmp	r0, r2
10000bc8:	d804      	bhi.n	10000bd4 <alarm_pool_add_alarm_at+0x48>
10000bca:	1e42      	subs	r2, r0, #1
10000bcc:	4641      	mov	r1, r8
10000bce:	68c9      	ldr	r1, [r1, #12]
10000bd0:	5c8a      	ldrb	r2, [r1, r2]
10000bd2:	e048      	b.n	10000c66 <alarm_pool_add_alarm_at+0xda>
10000bd4:	4b43      	ldr	r3, [pc, #268]	; (10000ce4 <alarm_pool_add_alarm_at+0x158>)
10000bd6:	4a44      	ldr	r2, [pc, #272]	; (10000ce8 <alarm_pool_add_alarm_at+0x15c>)
10000bd8:	2140      	movs	r1, #64	; 0x40
10000bda:	4844      	ldr	r0, [pc, #272]	; (10000cec <alarm_pool_add_alarm_at+0x160>)
10000bdc:	f000 fcc8 	bl	10001570 <__assert_func>
10000be0:	9807      	ldr	r0, [sp, #28]
10000be2:	2b00      	cmp	r3, #0
10000be4:	d075      	beq.n	10000cd2 <alarm_pool_add_alarm_at+0x146>
10000be6:	465b      	mov	r3, fp
10000be8:	2b00      	cmp	r3, #0
10000bea:	d072      	beq.n	10000cd2 <alarm_pool_add_alarm_at+0x146>
10000bec:	4649      	mov	r1, r9
10000bee:	47d0      	blx	sl
10000bf0:	0004      	movs	r4, r0
10000bf2:	000d      	movs	r5, r1
10000bf4:	0003      	movs	r3, r0
10000bf6:	430b      	orrs	r3, r1
10000bf8:	d100      	bne.n	10000bfc <alarm_pool_add_alarm_at+0x70>
10000bfa:	e071      	b.n	10000ce0 <alarm_pool_add_alarm_at+0x154>
10000bfc:	2900      	cmp	r1, #0
10000bfe:	db46      	blt.n	10000c8e <alarm_pool_add_alarm_at+0x102>
10000c00:	f000 f982 	bl	10000f08 <time_us_64>
10000c04:	0006      	movs	r6, r0
10000c06:	1e0f      	subs	r7, r1, #0
10000c08:	db55      	blt.n	10000cb6 <alarm_pool_add_alarm_at+0x12a>
10000c0a:	1936      	adds	r6, r6, r4
10000c0c:	416f      	adcs	r7, r5
10000c0e:	42b9      	cmp	r1, r7
10000c10:	d802      	bhi.n	10000c18 <alarm_pool_add_alarm_at+0x8c>
10000c12:	d104      	bne.n	10000c1e <alarm_pool_add_alarm_at+0x92>
10000c14:	42b0      	cmp	r0, r6
10000c16:	d902      	bls.n	10000c1e <alarm_pool_add_alarm_at+0x92>
10000c18:	2601      	movs	r6, #1
10000c1a:	4276      	negs	r6, r6
10000c1c:	17f7      	asrs	r7, r6, #31
10000c1e:	2f00      	cmp	r7, #0
10000c20:	db4f      	blt.n	10000cc2 <alarm_pool_add_alarm_at+0x136>
10000c22:	4643      	mov	r3, r8
10000c24:	685a      	ldr	r2, [r3, #4]
10000c26:	f3ef 8410 	mrs	r4, PRIMASK
10000c2a:	b672      	cpsid	i
10000c2c:	6813      	ldr	r3, [r2, #0]
10000c2e:	4259      	negs	r1, r3
10000c30:	414b      	adcs	r3, r1
10000c32:	b2d9      	uxtb	r1, r3
10000c34:	9107      	str	r1, [sp, #28]
10000c36:	2b00      	cmp	r3, #0
10000c38:	d1f8      	bne.n	10000c2c <alarm_pool_add_alarm_at+0xa0>
10000c3a:	f3bf 8f5f 	dmb	sy
10000c3e:	331f      	adds	r3, #31
10000c40:	aa02      	add	r2, sp, #8
10000c42:	4694      	mov	ip, r2
10000c44:	4463      	add	r3, ip
10000c46:	9304      	str	r3, [sp, #16]
10000c48:	2300      	movs	r3, #0
10000c4a:	9303      	str	r3, [sp, #12]
10000c4c:	9302      	str	r3, [sp, #8]
10000c4e:	464b      	mov	r3, r9
10000c50:	9301      	str	r3, [sp, #4]
10000c52:	4653      	mov	r3, sl
10000c54:	9300      	str	r3, [sp, #0]
10000c56:	0032      	movs	r2, r6
10000c58:	003b      	movs	r3, r7
10000c5a:	4640      	mov	r0, r8
10000c5c:	f7ff fd14 	bl	10000688 <add_alarm_under_lock>
10000c60:	1e03      	subs	r3, r0, #0
10000c62:	d1ab      	bne.n	10000bbc <alarm_pool_add_alarm_at+0x30>
10000c64:	0002      	movs	r2, r0
10000c66:	4641      	mov	r1, r8
10000c68:	6849      	ldr	r1, [r1, #4]
10000c6a:	f3bf 8f5f 	dmb	sy
10000c6e:	2500      	movs	r5, #0
10000c70:	600d      	str	r5, [r1, #0]
10000c72:	f384 8810 	msr	PRIMASK, r4
10000c76:	2b00      	cmp	r3, #0
10000c78:	d029      	beq.n	10000cce <alarm_pool_add_alarm_at+0x142>
10000c7a:	231f      	movs	r3, #31
10000c7c:	a902      	add	r1, sp, #8
10000c7e:	468c      	mov	ip, r1
10000c80:	4463      	add	r3, ip
10000c82:	781b      	ldrb	r3, [r3, #0]
10000c84:	2b00      	cmp	r3, #0
10000c86:	d1ab      	bne.n	10000be0 <alarm_pool_add_alarm_at+0x54>
10000c88:	0212      	lsls	r2, r2, #8
10000c8a:	4310      	orrs	r0, r2
10000c8c:	e7a9      	b.n	10000be2 <alarm_pool_add_alarm_at+0x56>
10000c8e:	0032      	movs	r2, r6
10000c90:	003b      	movs	r3, r7
10000c92:	1b36      	subs	r6, r6, r4
10000c94:	41af      	sbcs	r7, r5
10000c96:	42bb      	cmp	r3, r7
10000c98:	d802      	bhi.n	10000ca0 <alarm_pool_add_alarm_at+0x114>
10000c9a:	d104      	bne.n	10000ca6 <alarm_pool_add_alarm_at+0x11a>
10000c9c:	42b2      	cmp	r2, r6
10000c9e:	d902      	bls.n	10000ca6 <alarm_pool_add_alarm_at+0x11a>
10000ca0:	2601      	movs	r6, #1
10000ca2:	4276      	negs	r6, r6
10000ca4:	17f7      	asrs	r7, r6, #31
10000ca6:	2f00      	cmp	r7, #0
10000ca8:	dabb      	bge.n	10000c22 <alarm_pool_add_alarm_at+0x96>
10000caa:	4b11      	ldr	r3, [pc, #68]	; (10000cf0 <alarm_pool_add_alarm_at+0x164>)
10000cac:	4a11      	ldr	r2, [pc, #68]	; (10000cf4 <alarm_pool_add_alarm_at+0x168>)
10000cae:	213f      	movs	r1, #63	; 0x3f
10000cb0:	4811      	ldr	r0, [pc, #68]	; (10000cf8 <alarm_pool_add_alarm_at+0x16c>)
10000cb2:	f000 fc5d 	bl	10001570 <__assert_func>
10000cb6:	4b0e      	ldr	r3, [pc, #56]	; (10000cf0 <alarm_pool_add_alarm_at+0x164>)
10000cb8:	4a0e      	ldr	r2, [pc, #56]	; (10000cf4 <alarm_pool_add_alarm_at+0x168>)
10000cba:	213f      	movs	r1, #63	; 0x3f
10000cbc:	480e      	ldr	r0, [pc, #56]	; (10000cf8 <alarm_pool_add_alarm_at+0x16c>)
10000cbe:	f000 fc57 	bl	10001570 <__assert_func>
10000cc2:	4b0b      	ldr	r3, [pc, #44]	; (10000cf0 <alarm_pool_add_alarm_at+0x164>)
10000cc4:	4a0b      	ldr	r2, [pc, #44]	; (10000cf4 <alarm_pool_add_alarm_at+0x168>)
10000cc6:	213f      	movs	r1, #63	; 0x3f
10000cc8:	480b      	ldr	r0, [pc, #44]	; (10000cf8 <alarm_pool_add_alarm_at+0x16c>)
10000cca:	f000 fc51 	bl	10001570 <__assert_func>
10000cce:	2001      	movs	r0, #1
10000cd0:	4240      	negs	r0, r0
10000cd2:	b00b      	add	sp, #44	; 0x2c
10000cd4:	bcf0      	pop	{r4, r5, r6, r7}
10000cd6:	46bb      	mov	fp, r7
10000cd8:	46b2      	mov	sl, r6
10000cda:	46a9      	mov	r9, r5
10000cdc:	46a0      	mov	r8, r4
10000cde:	bdf0      	pop	{r4, r5, r6, r7, pc}
10000ce0:	9807      	ldr	r0, [sp, #28]
10000ce2:	e7f6      	b.n	10000cd2 <alarm_pool_add_alarm_at+0x146>
10000ce4:	100041c0 	.word	0x100041c0
10000ce8:	100044cc 	.word	0x100044cc
10000cec:	1000415c 	.word	0x1000415c
10000cf0:	100042e0 	.word	0x100042e0
10000cf4:	10004468 	.word	0x10004468
10000cf8:	100042fc 	.word	0x100042fc

10000cfc <sleep_until>:
10000cfc:	b5f0      	push	{r4, r5, r6, r7, lr}
10000cfe:	b087      	sub	sp, #28
10000d00:	0006      	movs	r6, r0
10000d02:	000f      	movs	r7, r1
10000d04:	f7ff faaf 	bl	10000266 <__get_current_exception>
10000d08:	2800      	cmp	r0, #0
10000d0a:	d11f      	bne.n	10000d4c <sleep_until+0x50>
10000d0c:	2406      	movs	r4, #6
10000d0e:	4264      	negs	r4, r4
10000d10:	17e5      	asrs	r5, r4, #31
10000d12:	19a4      	adds	r4, r4, r6
10000d14:	417d      	adcs	r5, r7
10000d16:	42bd      	cmp	r5, r7
10000d18:	d802      	bhi.n	10000d20 <sleep_until+0x24>
10000d1a:	d103      	bne.n	10000d24 <sleep_until+0x28>
10000d1c:	42b4      	cmp	r4, r6
10000d1e:	d901      	bls.n	10000d24 <sleep_until+0x28>
10000d20:	2400      	movs	r4, #0
10000d22:	2500      	movs	r5, #0
10000d24:	2d00      	cmp	r5, #0
10000d26:	db14      	blt.n	10000d52 <sleep_until+0x56>
10000d28:	9404      	str	r4, [sp, #16]
10000d2a:	9505      	str	r5, [sp, #20]
10000d2c:	f000 f8ec 	bl	10000f08 <time_us_64>
10000d30:	0002      	movs	r2, r0
10000d32:	1e0b      	subs	r3, r1, #0
10000d34:	db13      	blt.n	10000d5e <sleep_until+0x62>
10000d36:	1aa4      	subs	r4, r4, r2
10000d38:	419d      	sbcs	r5, r3
10000d3a:	2d00      	cmp	r5, #0
10000d3c:	dc17      	bgt.n	10000d6e <sleep_until+0x72>
10000d3e:	d014      	beq.n	10000d6a <sleep_until+0x6e>
10000d40:	0030      	movs	r0, r6
10000d42:	0039      	movs	r1, r7
10000d44:	f000 f8ec 	bl	10000f20 <busy_wait_until>
10000d48:	b007      	add	sp, #28
10000d4a:	bdf0      	pop	{r4, r5, r6, r7, pc}
10000d4c:	4823      	ldr	r0, [pc, #140]	; (10000ddc <sleep_until+0xe0>)
10000d4e:	f000 fca9 	bl	100016a4 <panic>
10000d52:	4b23      	ldr	r3, [pc, #140]	; (10000de0 <sleep_until+0xe4>)
10000d54:	4a23      	ldr	r2, [pc, #140]	; (10000de4 <sleep_until+0xe8>)
10000d56:	213f      	movs	r1, #63	; 0x3f
10000d58:	4823      	ldr	r0, [pc, #140]	; (10000de8 <sleep_until+0xec>)
10000d5a:	f000 fc09 	bl	10001570 <__assert_func>
10000d5e:	4b20      	ldr	r3, [pc, #128]	; (10000de0 <sleep_until+0xe4>)
10000d60:	4a20      	ldr	r2, [pc, #128]	; (10000de4 <sleep_until+0xe8>)
10000d62:	213f      	movs	r1, #63	; 0x3f
10000d64:	4820      	ldr	r0, [pc, #128]	; (10000de8 <sleep_until+0xec>)
10000d66:	f000 fc03 	bl	10001570 <__assert_func>
10000d6a:	2c00      	cmp	r4, #0
10000d6c:	d0e8      	beq.n	10000d40 <sleep_until+0x44>
10000d6e:	f7ff fef7 	bl	10000b60 <alarm_pool_get_default>
10000d72:	2300      	movs	r3, #0
10000d74:	9302      	str	r3, [sp, #8]
10000d76:	9301      	str	r3, [sp, #4]
10000d78:	4b1c      	ldr	r3, [pc, #112]	; (10000dec <sleep_until+0xf0>)
10000d7a:	9300      	str	r3, [sp, #0]
10000d7c:	9a04      	ldr	r2, [sp, #16]
10000d7e:	9b05      	ldr	r3, [sp, #20]
10000d80:	f7ff ff04 	bl	10000b8c <alarm_pool_add_alarm_at>
10000d84:	2800      	cmp	r0, #0
10000d86:	da18      	bge.n	10000dba <sleep_until+0xbe>
10000d88:	e7da      	b.n	10000d40 <sleep_until+0x44>
10000d8a:	2300      	movs	r3, #0
10000d8c:	e000      	b.n	10000d90 <sleep_until+0x94>
10000d8e:	2300      	movs	r3, #0
10000d90:	2b00      	cmp	r3, #0
10000d92:	d1d5      	bne.n	10000d40 <sleep_until+0x44>
10000d94:	4b16      	ldr	r3, [pc, #88]	; (10000df0 <sleep_until+0xf4>)
10000d96:	681a      	ldr	r2, [r3, #0]
10000d98:	f3ef 8110 	mrs	r1, PRIMASK
10000d9c:	b672      	cpsid	i
10000d9e:	6813      	ldr	r3, [r2, #0]
10000da0:	2b00      	cmp	r3, #0
10000da2:	d0fc      	beq.n	10000d9e <sleep_until+0xa2>
10000da4:	f3bf 8f5f 	dmb	sy
10000da8:	4b11      	ldr	r3, [pc, #68]	; (10000df0 <sleep_until+0xf4>)
10000daa:	681b      	ldr	r3, [r3, #0]
10000dac:	f3bf 8f5f 	dmb	sy
10000db0:	2200      	movs	r2, #0
10000db2:	601a      	str	r2, [r3, #0]
10000db4:	f381 8810 	msr	PRIMASK, r1
10000db8:	bf20      	wfe
10000dba:	9904      	ldr	r1, [sp, #16]
10000dbc:	9a05      	ldr	r2, [sp, #20]
10000dbe:	4b0d      	ldr	r3, [pc, #52]	; (10000df4 <sleep_until+0xf8>)
10000dc0:	6a5b      	ldr	r3, [r3, #36]	; 0x24
10000dc2:	429a      	cmp	r2, r3
10000dc4:	d8e3      	bhi.n	10000d8e <sleep_until+0x92>
10000dc6:	480b      	ldr	r0, [pc, #44]	; (10000df4 <sleep_until+0xf8>)
10000dc8:	6a80      	ldr	r0, [r0, #40]	; 0x28
10000dca:	4288      	cmp	r0, r1
10000dcc:	d203      	bcs.n	10000dd6 <sleep_until+0xda>
10000dce:	429a      	cmp	r2, r3
10000dd0:	d0db      	beq.n	10000d8a <sleep_until+0x8e>
10000dd2:	2301      	movs	r3, #1
10000dd4:	e7dc      	b.n	10000d90 <sleep_until+0x94>
10000dd6:	2301      	movs	r3, #1
10000dd8:	e7da      	b.n	10000d90 <sleep_until+0x94>
10000dda:	46c0      	nop			; (mov r8, r8)
10000ddc:	10004418 	.word	0x10004418
10000de0:	100042e0 	.word	0x100042e0
10000de4:	10004468 	.word	0x10004468
10000de8:	100042fc 	.word	0x100042fc
10000dec:	100004f9 	.word	0x100004f9
10000df0:	20000420 	.word	0x20000420
10000df4:	40054000 	.word	0x40054000

10000df8 <sleep_us>:
10000df8:	b5f8      	push	{r3, r4, r5, r6, r7, lr}
10000dfa:	0004      	movs	r4, r0
10000dfc:	000d      	movs	r5, r1
10000dfe:	f000 f883 	bl	10000f08 <time_us_64>
10000e02:	0002      	movs	r2, r0
10000e04:	1e0b      	subs	r3, r1, #0
10000e06:	db10      	blt.n	10000e2a <sleep_us+0x32>
10000e08:	0020      	movs	r0, r4
10000e0a:	0029      	movs	r1, r5
10000e0c:	1880      	adds	r0, r0, r2
10000e0e:	4159      	adcs	r1, r3
10000e10:	428b      	cmp	r3, r1
10000e12:	d802      	bhi.n	10000e1a <sleep_us+0x22>
10000e14:	d104      	bne.n	10000e20 <sleep_us+0x28>
10000e16:	4282      	cmp	r2, r0
10000e18:	d902      	bls.n	10000e20 <sleep_us+0x28>
10000e1a:	2001      	movs	r0, #1
10000e1c:	4240      	negs	r0, r0
10000e1e:	17c1      	asrs	r1, r0, #31
10000e20:	2900      	cmp	r1, #0
10000e22:	db08      	blt.n	10000e36 <sleep_us+0x3e>
10000e24:	f7ff ff6a 	bl	10000cfc <sleep_until>
10000e28:	bdf8      	pop	{r3, r4, r5, r6, r7, pc}
10000e2a:	4b06      	ldr	r3, [pc, #24]	; (10000e44 <sleep_us+0x4c>)
10000e2c:	4a06      	ldr	r2, [pc, #24]	; (10000e48 <sleep_us+0x50>)
10000e2e:	213f      	movs	r1, #63	; 0x3f
10000e30:	4806      	ldr	r0, [pc, #24]	; (10000e4c <sleep_us+0x54>)
10000e32:	f000 fb9d 	bl	10001570 <__assert_func>
10000e36:	4b03      	ldr	r3, [pc, #12]	; (10000e44 <sleep_us+0x4c>)
10000e38:	4a03      	ldr	r2, [pc, #12]	; (10000e48 <sleep_us+0x50>)
10000e3a:	213f      	movs	r1, #63	; 0x3f
10000e3c:	4803      	ldr	r0, [pc, #12]	; (10000e4c <sleep_us+0x54>)
10000e3e:	f000 fb97 	bl	10001570 <__assert_func>
10000e42:	46c0      	nop			; (mov r8, r8)
10000e44:	100042e0 	.word	0x100042e0
10000e48:	10004468 	.word	0x10004468
10000e4c:	100042fc 	.word	0x100042fc

10000e50 <sleep_ms>:
10000e50:	b510      	push	{r4, lr}
10000e52:	22fa      	movs	r2, #250	; 0xfa
10000e54:	0092      	lsls	r2, r2, #2
10000e56:	2300      	movs	r3, #0
10000e58:	2100      	movs	r1, #0
10000e5a:	f002 ff21 	bl	10003ca0 <__wrap___aeabi_lmul>
10000e5e:	f7ff ffcb 	bl	10000df8 <sleep_us>
10000e62:	bd10      	pop	{r4, pc}

10000e64 <hardware_alarm_irq_handler>:
10000e64:	b570      	push	{r4, r5, r6, lr}
10000e66:	f3ef 8305 	mrs	r3, IPSR
10000e6a:	203f      	movs	r0, #63	; 0x3f
10000e6c:	4018      	ands	r0, r3
10000e6e:	3810      	subs	r0, #16
10000e70:	f3ef 8410 	mrs	r4, PRIMASK
10000e74:	b672      	cpsid	i
10000e76:	4b19      	ldr	r3, [pc, #100]	; (10000edc <hardware_alarm_irq_handler+0x78>)
10000e78:	681b      	ldr	r3, [r3, #0]
10000e7a:	2b00      	cmp	r3, #0
10000e7c:	d0fb      	beq.n	10000e76 <hardware_alarm_irq_handler+0x12>
10000e7e:	f3bf 8f5f 	dmb	sy
10000e82:	2301      	movs	r3, #1
10000e84:	0019      	movs	r1, r3
10000e86:	4081      	lsls	r1, r0
10000e88:	4a15      	ldr	r2, [pc, #84]	; (10000ee0 <hardware_alarm_irq_handler+0x7c>)
10000e8a:	6351      	str	r1, [r2, #52]	; 0x34
10000e8c:	4a15      	ldr	r2, [pc, #84]	; (10000ee4 <hardware_alarm_irq_handler+0x80>)
10000e8e:	7812      	ldrb	r2, [r2, #0]
10000e90:	0015      	movs	r5, r2
10000e92:	40c5      	lsrs	r5, r0
10000e94:	422b      	tst	r3, r5
10000e96:	d014      	beq.n	10000ec2 <hardware_alarm_irq_handler+0x5e>
10000e98:	4b11      	ldr	r3, [pc, #68]	; (10000ee0 <hardware_alarm_irq_handler+0x7c>)
10000e9a:	6a5d      	ldr	r5, [r3, #36]	; 0x24
10000e9c:	0083      	lsls	r3, r0, #2
10000e9e:	4e12      	ldr	r6, [pc, #72]	; (10000ee8 <hardware_alarm_irq_handler+0x84>)
10000ea0:	599b      	ldr	r3, [r3, r6]
10000ea2:	429d      	cmp	r5, r3
10000ea4:	d306      	bcc.n	10000eb4 <hardware_alarm_irq_handler+0x50>
10000ea6:	0083      	lsls	r3, r0, #2
10000ea8:	4d10      	ldr	r5, [pc, #64]	; (10000eec <hardware_alarm_irq_handler+0x88>)
10000eaa:	595b      	ldr	r3, [r3, r5]
10000eac:	438a      	bics	r2, r1
10000eae:	490d      	ldr	r1, [pc, #52]	; (10000ee4 <hardware_alarm_irq_handler+0x80>)
10000eb0:	700a      	strb	r2, [r1, #0]
10000eb2:	e007      	b.n	10000ec4 <hardware_alarm_irq_handler+0x60>
10000eb4:	4a0a      	ldr	r2, [pc, #40]	; (10000ee0 <hardware_alarm_irq_handler+0x7c>)
10000eb6:	1d03      	adds	r3, r0, #4
10000eb8:	009b      	lsls	r3, r3, #2
10000eba:	5899      	ldr	r1, [r3, r2]
10000ebc:	5099      	str	r1, [r3, r2]
10000ebe:	2300      	movs	r3, #0
10000ec0:	e000      	b.n	10000ec4 <hardware_alarm_irq_handler+0x60>
10000ec2:	2300      	movs	r3, #0
10000ec4:	f3bf 8f5f 	dmb	sy
10000ec8:	4a04      	ldr	r2, [pc, #16]	; (10000edc <hardware_alarm_irq_handler+0x78>)
10000eca:	2100      	movs	r1, #0
10000ecc:	6011      	str	r1, [r2, #0]
10000ece:	f384 8810 	msr	PRIMASK, r4
10000ed2:	2b00      	cmp	r3, #0
10000ed4:	d000      	beq.n	10000ed8 <hardware_alarm_irq_handler+0x74>
10000ed6:	4798      	blx	r3
10000ed8:	bd70      	pop	{r4, r5, r6, pc}
10000eda:	46c0      	nop			; (mov r8, r8)
10000edc:	d0000128 	.word	0xd0000128
10000ee0:	40054000 	.word	0x40054000
10000ee4:	20000436 	.word	0x20000436
10000ee8:	20000424 	.word	0x20000424
10000eec:	2000038c 	.word	0x2000038c

10000ef0 <hardware_alarm_claim>:
10000ef0:	b510      	push	{r4, lr}
10000ef2:	0001      	movs	r1, r0
10000ef4:	4a02      	ldr	r2, [pc, #8]	; (10000f00 <hardware_alarm_claim+0x10>)
10000ef6:	4803      	ldr	r0, [pc, #12]	; (10000f04 <hardware_alarm_claim+0x14>)
10000ef8:	f7ff fa9c 	bl	10000434 <hw_claim_or_assert>
10000efc:	bd10      	pop	{r4, pc}
10000efe:	46c0      	nop			; (mov r8, r8)
10000f00:	1000452c 	.word	0x1000452c
10000f04:	20000434 	.word	0x20000434

10000f08 <time_us_64>:
10000f08:	4b04      	ldr	r3, [pc, #16]	; (10000f1c <time_us_64+0x14>)
10000f0a:	6a5b      	ldr	r3, [r3, #36]	; 0x24
10000f0c:	4a03      	ldr	r2, [pc, #12]	; (10000f1c <time_us_64+0x14>)
10000f0e:	6a90      	ldr	r0, [r2, #40]	; 0x28
10000f10:	0019      	movs	r1, r3
10000f12:	6a53      	ldr	r3, [r2, #36]	; 0x24
10000f14:	4299      	cmp	r1, r3
10000f16:	d1f9      	bne.n	10000f0c <time_us_64+0x4>
10000f18:	4770      	bx	lr
10000f1a:	46c0      	nop			; (mov r8, r8)
10000f1c:	40054000 	.word	0x40054000

10000f20 <busy_wait_until>:
10000f20:	4b07      	ldr	r3, [pc, #28]	; (10000f40 <busy_wait_until+0x20>)
10000f22:	6a5b      	ldr	r3, [r3, #36]	; 0x24
10000f24:	428b      	cmp	r3, r1
10000f26:	d204      	bcs.n	10000f32 <busy_wait_until+0x12>
10000f28:	4b05      	ldr	r3, [pc, #20]	; (10000f40 <busy_wait_until+0x20>)
10000f2a:	6a5b      	ldr	r3, [r3, #36]	; 0x24
10000f2c:	e7fa      	b.n	10000f24 <busy_wait_until+0x4>
10000f2e:	4b04      	ldr	r3, [pc, #16]	; (10000f40 <busy_wait_until+0x20>)
10000f30:	6a5b      	ldr	r3, [r3, #36]	; 0x24
10000f32:	428b      	cmp	r3, r1
10000f34:	d103      	bne.n	10000f3e <busy_wait_until+0x1e>
10000f36:	4b02      	ldr	r3, [pc, #8]	; (10000f40 <busy_wait_until+0x20>)
10000f38:	6a9b      	ldr	r3, [r3, #40]	; 0x28
10000f3a:	4283      	cmp	r3, r0
10000f3c:	d3f7      	bcc.n	10000f2e <busy_wait_until+0xe>
10000f3e:	4770      	bx	lr
10000f40:	40054000 	.word	0x40054000

10000f44 <hardware_alarm_set_callback>:
10000f44:	b570      	push	{r4, r5, r6, lr}
10000f46:	0004      	movs	r4, r0
10000f48:	000d      	movs	r5, r1
10000f4a:	f3ef 8610 	mrs	r6, PRIMASK
10000f4e:	b672      	cpsid	i
10000f50:	4b1b      	ldr	r3, [pc, #108]	; (10000fc0 <hardware_alarm_set_callback+0x7c>)
10000f52:	681b      	ldr	r3, [r3, #0]
10000f54:	2b00      	cmp	r3, #0
10000f56:	d0fb      	beq.n	10000f50 <hardware_alarm_set_callback+0xc>
10000f58:	f3bf 8f5f 	dmb	sy
10000f5c:	2d00      	cmp	r5, #0
10000f5e:	d01c      	beq.n	10000f9a <hardware_alarm_set_callback+0x56>
10000f60:	0020      	movs	r0, r4
10000f62:	f000 fd2b 	bl	100019bc <irq_get_vtable_handler>
10000f66:	4b17      	ldr	r3, [pc, #92]	; (10000fc4 <hardware_alarm_set_callback+0x80>)
10000f68:	4283      	cmp	r3, r0
10000f6a:	d00b      	beq.n	10000f84 <hardware_alarm_set_callback+0x40>
10000f6c:	0019      	movs	r1, r3
10000f6e:	0020      	movs	r0, r4
10000f70:	f000 fd2c 	bl	100019cc <irq_set_exclusive_handler>
10000f74:	2101      	movs	r1, #1
10000f76:	0020      	movs	r0, r4
10000f78:	f000 fd18 	bl	100019ac <irq_set_enabled>
10000f7c:	2301      	movs	r3, #1
10000f7e:	40a3      	lsls	r3, r4
10000f80:	4a11      	ldr	r2, [pc, #68]	; (10000fc8 <hardware_alarm_set_callback+0x84>)
10000f82:	6013      	str	r3, [r2, #0]
10000f84:	00a4      	lsls	r4, r4, #2
10000f86:	4b11      	ldr	r3, [pc, #68]	; (10000fcc <hardware_alarm_set_callback+0x88>)
10000f88:	50e5      	str	r5, [r4, r3]
10000f8a:	f3bf 8f5f 	dmb	sy
10000f8e:	4b0c      	ldr	r3, [pc, #48]	; (10000fc0 <hardware_alarm_set_callback+0x7c>)
10000f90:	2200      	movs	r2, #0
10000f92:	601a      	str	r2, [r3, #0]
10000f94:	f386 8810 	msr	PRIMASK, r6
10000f98:	bd70      	pop	{r4, r5, r6, pc}
10000f9a:	00a2      	lsls	r2, r4, #2
10000f9c:	4b0b      	ldr	r3, [pc, #44]	; (10000fcc <hardware_alarm_set_callback+0x88>)
10000f9e:	2100      	movs	r1, #0
10000fa0:	50d1      	str	r1, [r2, r3]
10000fa2:	2201      	movs	r2, #1
10000fa4:	40a2      	lsls	r2, r4
10000fa6:	490a      	ldr	r1, [pc, #40]	; (10000fd0 <hardware_alarm_set_callback+0x8c>)
10000fa8:	780b      	ldrb	r3, [r1, #0]
10000faa:	4393      	bics	r3, r2
10000fac:	700b      	strb	r3, [r1, #0]
10000fae:	4905      	ldr	r1, [pc, #20]	; (10000fc4 <hardware_alarm_set_callback+0x80>)
10000fb0:	0020      	movs	r0, r4
10000fb2:	f000 fd35 	bl	10001a20 <irq_remove_handler>
10000fb6:	2100      	movs	r1, #0
10000fb8:	0020      	movs	r0, r4
10000fba:	f000 fcf7 	bl	100019ac <irq_set_enabled>
10000fbe:	e7e4      	b.n	10000f8a <hardware_alarm_set_callback+0x46>
10000fc0:	d0000128 	.word	0xd0000128
10000fc4:	10000e65 	.word	0x10000e65
10000fc8:	40056038 	.word	0x40056038
10000fcc:	2000038c 	.word	0x2000038c
10000fd0:	20000436 	.word	0x20000436

10000fd4 <hardware_alarm_set_target>:
10000fd4:	b5f0      	push	{r4, r5, r6, r7, lr}
10000fd6:	46de      	mov	lr, fp
10000fd8:	b500      	push	{lr}
10000fda:	b084      	sub	sp, #16
10000fdc:	0004      	movs	r4, r0
10000fde:	0015      	movs	r5, r2
10000fe0:	9201      	str	r2, [sp, #4]
10000fe2:	001e      	movs	r6, r3
10000fe4:	9302      	str	r3, [sp, #8]
10000fe6:	f7ff ff8f 	bl	10000f08 <time_us_64>
10000fea:	9503      	str	r5, [sp, #12]
10000fec:	428e      	cmp	r6, r1
10000fee:	d802      	bhi.n	10000ff6 <hardware_alarm_set_target+0x22>
10000ff0:	d14e      	bne.n	10001090 <hardware_alarm_set_target+0xbc>
10000ff2:	4285      	cmp	r5, r0
10000ff4:	d94c      	bls.n	10001090 <hardware_alarm_set_target+0xbc>
10000ff6:	f3ef 8b10 	mrs	fp, PRIMASK
10000ffa:	b672      	cpsid	i
10000ffc:	4b27      	ldr	r3, [pc, #156]	; (1000109c <hardware_alarm_set_target+0xc8>)
10000ffe:	681b      	ldr	r3, [r3, #0]
10001000:	2b00      	cmp	r3, #0
10001002:	d0fb      	beq.n	10000ffc <hardware_alarm_set_target+0x28>
10001004:	f3bf 8f5f 	dmb	sy
10001008:	4a25      	ldr	r2, [pc, #148]	; (100010a0 <hardware_alarm_set_target+0xcc>)
1000100a:	7817      	ldrb	r7, [r2, #0]
1000100c:	2501      	movs	r5, #1
1000100e:	40a5      	lsls	r5, r4
10001010:	b2eb      	uxtb	r3, r5
10001012:	433b      	orrs	r3, r7
10001014:	7013      	strb	r3, [r2, #0]
10001016:	4b23      	ldr	r3, [pc, #140]	; (100010a4 <hardware_alarm_set_target+0xd0>)
10001018:	635d      	str	r5, [r3, #52]	; 0x34
1000101a:	1d22      	adds	r2, r4, #4
1000101c:	0092      	lsls	r2, r2, #2
1000101e:	9901      	ldr	r1, [sp, #4]
10001020:	50d1      	str	r1, [r2, r3]
10001022:	00a2      	lsls	r2, r4, #2
10001024:	4920      	ldr	r1, [pc, #128]	; (100010a8 <hardware_alarm_set_target+0xd4>)
10001026:	9802      	ldr	r0, [sp, #8]
10001028:	5050      	str	r0, [r2, r1]
1000102a:	6a1b      	ldr	r3, [r3, #32]
1000102c:	422b      	tst	r3, r5
1000102e:	d112      	bne.n	10001056 <hardware_alarm_set_target+0x82>
10001030:	4b1c      	ldr	r3, [pc, #112]	; (100010a4 <hardware_alarm_set_target+0xd0>)
10001032:	6c1b      	ldr	r3, [r3, #64]	; 0x40
10001034:	422b      	tst	r3, r5
10001036:	d008      	beq.n	1000104a <hardware_alarm_set_target+0x76>
10001038:	2000      	movs	r0, #0
1000103a:	f3bf 8f5f 	dmb	sy
1000103e:	4b17      	ldr	r3, [pc, #92]	; (1000109c <hardware_alarm_set_target+0xc8>)
10001040:	2200      	movs	r2, #0
10001042:	601a      	str	r2, [r3, #0]
10001044:	f38b 8810 	msr	PRIMASK, fp
10001048:	e023      	b.n	10001092 <hardware_alarm_set_target+0xbe>
1000104a:	4b18      	ldr	r3, [pc, #96]	; (100010ac <hardware_alarm_set_target+0xd8>)
1000104c:	4a18      	ldr	r2, [pc, #96]	; (100010b0 <hardware_alarm_set_target+0xdc>)
1000104e:	21c1      	movs	r1, #193	; 0xc1
10001050:	4818      	ldr	r0, [pc, #96]	; (100010b4 <hardware_alarm_set_target+0xe0>)
10001052:	f000 fa8d 	bl	10001570 <__assert_func>
10001056:	f7ff ff57 	bl	10000f08 <time_us_64>
1000105a:	428e      	cmp	r6, r1
1000105c:	d814      	bhi.n	10001088 <hardware_alarm_set_target+0xb4>
1000105e:	d102      	bne.n	10001066 <hardware_alarm_set_target+0x92>
10001060:	9b03      	ldr	r3, [sp, #12]
10001062:	4283      	cmp	r3, r0
10001064:	d810      	bhi.n	10001088 <hardware_alarm_set_target+0xb4>
10001066:	4b0e      	ldr	r3, [pc, #56]	; (100010a0 <hardware_alarm_set_target+0xcc>)
10001068:	781b      	ldrb	r3, [r3, #0]
1000106a:	42bb      	cmp	r3, r7
1000106c:	d00e      	beq.n	1000108c <hardware_alarm_set_target+0xb8>
1000106e:	4b0d      	ldr	r3, [pc, #52]	; (100010a4 <hardware_alarm_set_target+0xd0>)
10001070:	621d      	str	r5, [r3, #32]
10001072:	635d      	str	r5, [r3, #52]	; 0x34
10001074:	201f      	movs	r0, #31
10001076:	4004      	ands	r4, r0
10001078:	2301      	movs	r3, #1
1000107a:	40a3      	lsls	r3, r4
1000107c:	4a0e      	ldr	r2, [pc, #56]	; (100010b8 <hardware_alarm_set_target+0xe4>)
1000107e:	6013      	str	r3, [r2, #0]
10001080:	4b07      	ldr	r3, [pc, #28]	; (100010a0 <hardware_alarm_set_target+0xcc>)
10001082:	701f      	strb	r7, [r3, #0]
10001084:	381e      	subs	r0, #30
10001086:	e7d8      	b.n	1000103a <hardware_alarm_set_target+0x66>
10001088:	2000      	movs	r0, #0
1000108a:	e7d6      	b.n	1000103a <hardware_alarm_set_target+0x66>
1000108c:	2001      	movs	r0, #1
1000108e:	e7d4      	b.n	1000103a <hardware_alarm_set_target+0x66>
10001090:	2001      	movs	r0, #1
10001092:	b004      	add	sp, #16
10001094:	bc80      	pop	{r7}
10001096:	46bb      	mov	fp, r7
10001098:	bdf0      	pop	{r4, r5, r6, r7, pc}
1000109a:	46c0      	nop			; (mov r8, r8)
1000109c:	d0000128 	.word	0xd0000128
100010a0:	20000436 	.word	0x20000436
100010a4:	40054000 	.word	0x40054000
100010a8:	20000424 	.word	0x20000424
100010ac:	10004550 	.word	0x10004550
100010b0:	100045e4 	.word	0x100045e4
100010b4:	10004574 	.word	0x10004574
100010b8:	e000e280 	.word	0xe000e280

100010bc <hardware_alarm_cancel>:
100010bc:	b510      	push	{r4, lr}
100010be:	f3ef 8410 	mrs	r4, PRIMASK
100010c2:	b672      	cpsid	i
100010c4:	4b0a      	ldr	r3, [pc, #40]	; (100010f0 <hardware_alarm_cancel+0x34>)
100010c6:	681b      	ldr	r3, [r3, #0]
100010c8:	2b00      	cmp	r3, #0
100010ca:	d0fb      	beq.n	100010c4 <hardware_alarm_cancel+0x8>
100010cc:	f3bf 8f5f 	dmb	sy
100010d0:	2301      	movs	r3, #1
100010d2:	4083      	lsls	r3, r0
100010d4:	4a07      	ldr	r2, [pc, #28]	; (100010f4 <hardware_alarm_cancel+0x38>)
100010d6:	6213      	str	r3, [r2, #32]
100010d8:	4907      	ldr	r1, [pc, #28]	; (100010f8 <hardware_alarm_cancel+0x3c>)
100010da:	780a      	ldrb	r2, [r1, #0]
100010dc:	439a      	bics	r2, r3
100010de:	700a      	strb	r2, [r1, #0]
100010e0:	f3bf 8f5f 	dmb	sy
100010e4:	4b02      	ldr	r3, [pc, #8]	; (100010f0 <hardware_alarm_cancel+0x34>)
100010e6:	2200      	movs	r2, #0
100010e8:	601a      	str	r2, [r3, #0]
100010ea:	f384 8810 	msr	PRIMASK, r4
100010ee:	bd10      	pop	{r4, pc}
100010f0:	d0000128 	.word	0xd0000128
100010f4:	40054000 	.word	0x40054000
100010f8:	20000436 	.word	0x20000436

100010fc <lock_init>:
100010fc:	4b02      	ldr	r3, [pc, #8]	; (10001108 <lock_init+0xc>)
100010fe:	469c      	mov	ip, r3
10001100:	4461      	add	r1, ip
10001102:	0089      	lsls	r1, r1, #2
10001104:	6001      	str	r1, [r0, #0]
10001106:	4770      	bx	lr
10001108:	34000040 	.word	0x34000040

1000110c <mutex_init>:
1000110c:	b510      	push	{r4, lr}
1000110e:	0004      	movs	r4, r0
10001110:	f7ff f9c4 	bl	1000049c <next_striped_spin_lock_num>
10001114:	0001      	movs	r1, r0
10001116:	0020      	movs	r0, r4
10001118:	f7ff fff0 	bl	100010fc <lock_init>
1000111c:	23ff      	movs	r3, #255	; 0xff
1000111e:	7123      	strb	r3, [r4, #4]
10001120:	f3bf 8f5f 	dmb	sy
10001124:	bd10      	pop	{r4, pc}

10001126 <recursive_mutex_init>:
10001126:	b510      	push	{r4, lr}
10001128:	0004      	movs	r4, r0
1000112a:	f7ff f9b7 	bl	1000049c <next_striped_spin_lock_num>
1000112e:	0001      	movs	r1, r0
10001130:	0020      	movs	r0, r4
10001132:	f7ff ffe3 	bl	100010fc <lock_init>
10001136:	23ff      	movs	r3, #255	; 0xff
10001138:	7123      	strb	r3, [r4, #4]
1000113a:	2300      	movs	r3, #0
1000113c:	7163      	strb	r3, [r4, #5]
1000113e:	f3bf 8f5f 	dmb	sy
10001142:	bd10      	pop	{r4, pc}

10001144 <ph_add_child_node>:
10001144:	b510      	push	{r4, lr}
10001146:	2900      	cmp	r1, #0
10001148:	d01e      	beq.n	10001188 <ph_add_child_node+0x44>
1000114a:	7b03      	ldrb	r3, [r0, #12]
1000114c:	4299      	cmp	r1, r3
1000114e:	d81b      	bhi.n	10001188 <ph_add_child_node+0x44>
10001150:	004b      	lsls	r3, r1, #1
10001152:	185b      	adds	r3, r3, r1
10001154:	3b03      	subs	r3, #3
10001156:	6804      	ldr	r4, [r0, #0]
10001158:	46a4      	mov	ip, r4
1000115a:	4463      	add	r3, ip
1000115c:	2900      	cmp	r1, #0
1000115e:	d019      	beq.n	10001194 <ph_add_child_node+0x50>
10001160:	2a00      	cmp	r2, #0
10001162:	d01d      	beq.n	100011a0 <ph_add_child_node+0x5c>
10001164:	4291      	cmp	r1, r2
10001166:	d021      	beq.n	100011ac <ph_add_child_node+0x68>
10001168:	2a00      	cmp	r2, #0
1000116a:	d025      	beq.n	100011b8 <ph_add_child_node+0x74>
1000116c:	7b04      	ldrb	r4, [r0, #12]
1000116e:	42a2      	cmp	r2, r4
10001170:	d822      	bhi.n	100011b8 <ph_add_child_node+0x74>
10001172:	6804      	ldr	r4, [r0, #0]
10001174:	0050      	lsls	r0, r2, #1
10001176:	1880      	adds	r0, r0, r2
10001178:	3803      	subs	r0, #3
1000117a:	1820      	adds	r0, r4, r0
1000117c:	7081      	strb	r1, [r0, #2]
1000117e:	7819      	ldrb	r1, [r3, #0]
10001180:	2900      	cmp	r1, #0
10001182:	d11f      	bne.n	100011c4 <ph_add_child_node+0x80>
10001184:	701a      	strb	r2, [r3, #0]
10001186:	bd10      	pop	{r4, pc}
10001188:	4b10      	ldr	r3, [pc, #64]	; (100011cc <ph_add_child_node+0x88>)
1000118a:	4a11      	ldr	r2, [pc, #68]	; (100011d0 <ph_add_child_node+0x8c>)
1000118c:	2169      	movs	r1, #105	; 0x69
1000118e:	4811      	ldr	r0, [pc, #68]	; (100011d4 <ph_add_child_node+0x90>)
10001190:	f000 f9ee 	bl	10001570 <__assert_func>
10001194:	4b10      	ldr	r3, [pc, #64]	; (100011d8 <ph_add_child_node+0x94>)
10001196:	4a11      	ldr	r2, [pc, #68]	; (100011dc <ph_add_child_node+0x98>)
10001198:	3170      	adds	r1, #112	; 0x70
1000119a:	480e      	ldr	r0, [pc, #56]	; (100011d4 <ph_add_child_node+0x90>)
1000119c:	f000 f9e8 	bl	10001570 <__assert_func>
100011a0:	4b0f      	ldr	r3, [pc, #60]	; (100011e0 <ph_add_child_node+0x9c>)
100011a2:	4a0e      	ldr	r2, [pc, #56]	; (100011dc <ph_add_child_node+0x98>)
100011a4:	2171      	movs	r1, #113	; 0x71
100011a6:	480b      	ldr	r0, [pc, #44]	; (100011d4 <ph_add_child_node+0x90>)
100011a8:	f000 f9e2 	bl	10001570 <__assert_func>
100011ac:	4b0d      	ldr	r3, [pc, #52]	; (100011e4 <ph_add_child_node+0xa0>)
100011ae:	4a0b      	ldr	r2, [pc, #44]	; (100011dc <ph_add_child_node+0x98>)
100011b0:	2172      	movs	r1, #114	; 0x72
100011b2:	4808      	ldr	r0, [pc, #32]	; (100011d4 <ph_add_child_node+0x90>)
100011b4:	f000 f9dc 	bl	10001570 <__assert_func>
100011b8:	4b04      	ldr	r3, [pc, #16]	; (100011cc <ph_add_child_node+0x88>)
100011ba:	4a05      	ldr	r2, [pc, #20]	; (100011d0 <ph_add_child_node+0x8c>)
100011bc:	2169      	movs	r1, #105	; 0x69
100011be:	4805      	ldr	r0, [pc, #20]	; (100011d4 <ph_add_child_node+0x90>)
100011c0:	f000 f9d6 	bl	10001570 <__assert_func>
100011c4:	7041      	strb	r1, [r0, #1]
100011c6:	701a      	strb	r2, [r3, #0]
100011c8:	e7dd      	b.n	10001186 <ph_add_child_node+0x42>
100011ca:	46c0      	nop			; (mov r8, r8)
100011cc:	100041f4 	.word	0x100041f4
100011d0:	100047a4 	.word	0x100047a4
100011d4:	10004210 	.word	0x10004210
100011d8:	10004288 	.word	0x10004288
100011dc:	100047b0 	.word	0x100047b0
100011e0:	10004294 	.word	0x10004294
100011e4:	100042a0 	.word	0x100042a0

100011e8 <ph_merge_nodes>:
100011e8:	b570      	push	{r4, r5, r6, lr}
100011ea:	0006      	movs	r6, r0
100011ec:	000d      	movs	r5, r1
100011ee:	0014      	movs	r4, r2
100011f0:	2900      	cmp	r1, #0
100011f2:	d014      	beq.n	1000121e <ph_merge_nodes+0x36>
100011f4:	2a00      	cmp	r2, #0
100011f6:	d014      	beq.n	10001222 <ph_merge_nodes+0x3a>
100011f8:	6880      	ldr	r0, [r0, #8]
100011fa:	6873      	ldr	r3, [r6, #4]
100011fc:	4798      	blx	r3
100011fe:	2800      	cmp	r0, #0
10001200:	d006      	beq.n	10001210 <ph_merge_nodes+0x28>
10001202:	0022      	movs	r2, r4
10001204:	0029      	movs	r1, r5
10001206:	0030      	movs	r0, r6
10001208:	f7ff ff9c 	bl	10001144 <ph_add_child_node>
1000120c:	0028      	movs	r0, r5
1000120e:	e007      	b.n	10001220 <ph_merge_nodes+0x38>
10001210:	002a      	movs	r2, r5
10001212:	0021      	movs	r1, r4
10001214:	0030      	movs	r0, r6
10001216:	f7ff ff95 	bl	10001144 <ph_add_child_node>
1000121a:	0020      	movs	r0, r4
1000121c:	e000      	b.n	10001220 <ph_merge_nodes+0x38>
1000121e:	0010      	movs	r0, r2
10001220:	bd70      	pop	{r4, r5, r6, pc}
10001222:	0008      	movs	r0, r1
10001224:	e7fc      	b.n	10001220 <ph_merge_nodes+0x38>
	...

10001228 <ph_clear>:
10001228:	b510      	push	{r4, lr}
1000122a:	2300      	movs	r3, #0
1000122c:	7343      	strb	r3, [r0, #13]
1000122e:	3301      	adds	r3, #1
10001230:	7383      	strb	r3, [r0, #14]
10001232:	7b03      	ldrb	r3, [r0, #12]
10001234:	73c3      	strb	r3, [r0, #15]
10001236:	2301      	movs	r3, #1
10001238:	7b02      	ldrb	r2, [r0, #12]
1000123a:	429a      	cmp	r2, r3
1000123c:	d914      	bls.n	10001268 <ph_clear+0x40>
1000123e:	2b00      	cmp	r3, #0
10001240:	d00c      	beq.n	1000125c <ph_clear+0x34>
10001242:	7b02      	ldrb	r2, [r0, #12]
10001244:	4293      	cmp	r3, r2
10001246:	d809      	bhi.n	1000125c <ph_clear+0x34>
10001248:	005a      	lsls	r2, r3, #1
1000124a:	18d2      	adds	r2, r2, r3
1000124c:	3a03      	subs	r2, #3
1000124e:	6801      	ldr	r1, [r0, #0]
10001250:	468c      	mov	ip, r1
10001252:	4462      	add	r2, ip
10001254:	3301      	adds	r3, #1
10001256:	b2db      	uxtb	r3, r3
10001258:	7053      	strb	r3, [r2, #1]
1000125a:	e7ed      	b.n	10001238 <ph_clear+0x10>
1000125c:	4b0b      	ldr	r3, [pc, #44]	; (1000128c <ph_clear+0x64>)
1000125e:	4a0c      	ldr	r2, [pc, #48]	; (10001290 <ph_clear+0x68>)
10001260:	2169      	movs	r1, #105	; 0x69
10001262:	480c      	ldr	r0, [pc, #48]	; (10001294 <ph_clear+0x6c>)
10001264:	f000 f984 	bl	10001570 <__assert_func>
10001268:	2a00      	cmp	r2, #0
1000126a:	d009      	beq.n	10001280 <ph_clear+0x58>
1000126c:	4292      	cmp	r2, r2
1000126e:	d807      	bhi.n	10001280 <ph_clear+0x58>
10001270:	6801      	ldr	r1, [r0, #0]
10001272:	0053      	lsls	r3, r2, #1
10001274:	189a      	adds	r2, r3, r2
10001276:	3a03      	subs	r2, #3
10001278:	188a      	adds	r2, r1, r2
1000127a:	2300      	movs	r3, #0
1000127c:	7053      	strb	r3, [r2, #1]
1000127e:	bd10      	pop	{r4, pc}
10001280:	4b02      	ldr	r3, [pc, #8]	; (1000128c <ph_clear+0x64>)
10001282:	4a03      	ldr	r2, [pc, #12]	; (10001290 <ph_clear+0x68>)
10001284:	2169      	movs	r1, #105	; 0x69
10001286:	4803      	ldr	r0, [pc, #12]	; (10001294 <ph_clear+0x6c>)
10001288:	f000 f972 	bl	10001570 <__assert_func>
1000128c:	100041f4 	.word	0x100041f4
10001290:	100047a4 	.word	0x100047a4
10001294:	10004210 	.word	0x10004210

10001298 <ph_post_alloc_init>:
10001298:	b510      	push	{r4, lr}
1000129a:	7301      	strb	r1, [r0, #12]
1000129c:	6042      	str	r2, [r0, #4]
1000129e:	6083      	str	r3, [r0, #8]
100012a0:	f7ff ffc2 	bl	10001228 <ph_clear>
100012a4:	bd10      	pop	{r4, pc}
	...

100012a8 <ph_merge_two_pass>:
100012a8:	b570      	push	{r4, r5, r6, lr}
100012aa:	0004      	movs	r4, r0
100012ac:	1e08      	subs	r0, r1, #0
100012ae:	d100      	bne.n	100012b2 <ph_merge_two_pass+0xa>
100012b0:	bd70      	pop	{r4, r5, r6, pc}
100012b2:	2900      	cmp	r1, #0
100012b4:	d034      	beq.n	10001320 <ph_merge_two_pass+0x78>
100012b6:	7b23      	ldrb	r3, [r4, #12]
100012b8:	4299      	cmp	r1, r3
100012ba:	d831      	bhi.n	10001320 <ph_merge_two_pass+0x78>
100012bc:	004b      	lsls	r3, r1, #1
100012be:	185b      	adds	r3, r3, r1
100012c0:	3b03      	subs	r3, #3
100012c2:	6822      	ldr	r2, [r4, #0]
100012c4:	4694      	mov	ip, r2
100012c6:	4463      	add	r3, ip
100012c8:	785a      	ldrb	r2, [r3, #1]
100012ca:	2a00      	cmp	r2, #0
100012cc:	d0f0      	beq.n	100012b0 <ph_merge_two_pass+0x8>
100012ce:	d02d      	beq.n	1000132c <ph_merge_two_pass+0x84>
100012d0:	7b23      	ldrb	r3, [r4, #12]
100012d2:	429a      	cmp	r2, r3
100012d4:	d82a      	bhi.n	1000132c <ph_merge_two_pass+0x84>
100012d6:	0053      	lsls	r3, r2, #1
100012d8:	189b      	adds	r3, r3, r2
100012da:	3b03      	subs	r3, #3
100012dc:	6821      	ldr	r1, [r4, #0]
100012de:	468c      	mov	ip, r1
100012e0:	4463      	add	r3, ip
100012e2:	785d      	ldrb	r5, [r3, #1]
100012e4:	2100      	movs	r1, #0
100012e6:	7059      	strb	r1, [r3, #1]
100012e8:	2800      	cmp	r0, #0
100012ea:	d025      	beq.n	10001338 <ph_merge_two_pass+0x90>
100012ec:	7b23      	ldrb	r3, [r4, #12]
100012ee:	4298      	cmp	r0, r3
100012f0:	d822      	bhi.n	10001338 <ph_merge_two_pass+0x90>
100012f2:	0043      	lsls	r3, r0, #1
100012f4:	181b      	adds	r3, r3, r0
100012f6:	3b03      	subs	r3, #3
100012f8:	6821      	ldr	r1, [r4, #0]
100012fa:	468c      	mov	ip, r1
100012fc:	4463      	add	r3, ip
100012fe:	2100      	movs	r1, #0
10001300:	7059      	strb	r1, [r3, #1]
10001302:	0001      	movs	r1, r0
10001304:	0020      	movs	r0, r4
10001306:	f7ff ff6f 	bl	100011e8 <ph_merge_nodes>
1000130a:	0006      	movs	r6, r0
1000130c:	0029      	movs	r1, r5
1000130e:	0020      	movs	r0, r4
10001310:	f7ff ffca 	bl	100012a8 <ph_merge_two_pass>
10001314:	0002      	movs	r2, r0
10001316:	0031      	movs	r1, r6
10001318:	0020      	movs	r0, r4
1000131a:	f7ff ff65 	bl	100011e8 <ph_merge_nodes>
1000131e:	e7c7      	b.n	100012b0 <ph_merge_two_pass+0x8>
10001320:	4b08      	ldr	r3, [pc, #32]	; (10001344 <ph_merge_two_pass+0x9c>)
10001322:	4a09      	ldr	r2, [pc, #36]	; (10001348 <ph_merge_two_pass+0xa0>)
10001324:	2169      	movs	r1, #105	; 0x69
10001326:	4809      	ldr	r0, [pc, #36]	; (1000134c <ph_merge_two_pass+0xa4>)
10001328:	f000 f922 	bl	10001570 <__assert_func>
1000132c:	4b05      	ldr	r3, [pc, #20]	; (10001344 <ph_merge_two_pass+0x9c>)
1000132e:	4a06      	ldr	r2, [pc, #24]	; (10001348 <ph_merge_two_pass+0xa0>)
10001330:	2169      	movs	r1, #105	; 0x69
10001332:	4806      	ldr	r0, [pc, #24]	; (1000134c <ph_merge_two_pass+0xa4>)
10001334:	f000 f91c 	bl	10001570 <__assert_func>
10001338:	4b02      	ldr	r3, [pc, #8]	; (10001344 <ph_merge_two_pass+0x9c>)
1000133a:	4a03      	ldr	r2, [pc, #12]	; (10001348 <ph_merge_two_pass+0xa0>)
1000133c:	2169      	movs	r1, #105	; 0x69
1000133e:	4803      	ldr	r0, [pc, #12]	; (1000134c <ph_merge_two_pass+0xa4>)
10001340:	f000 f916 	bl	10001570 <__assert_func>
10001344:	100041f4 	.word	0x100041f4
10001348:	100047a4 	.word	0x100047a4
1000134c:	10004210 	.word	0x10004210

10001350 <ph_remove_any_head>:
10001350:	b570      	push	{r4, r5, r6, lr}
10001352:	0005      	movs	r5, r0
10001354:	000c      	movs	r4, r1
10001356:	0016      	movs	r6, r2
10001358:	2900      	cmp	r1, #0
1000135a:	d028      	beq.n	100013ae <ph_remove_any_head+0x5e>
1000135c:	d02d      	beq.n	100013ba <ph_remove_any_head+0x6a>
1000135e:	7b03      	ldrb	r3, [r0, #12]
10001360:	4299      	cmp	r1, r3
10001362:	d82a      	bhi.n	100013ba <ph_remove_any_head+0x6a>
10001364:	004b      	lsls	r3, r1, #1
10001366:	185b      	adds	r3, r3, r1
10001368:	3b03      	subs	r3, #3
1000136a:	6802      	ldr	r2, [r0, #0]
1000136c:	4694      	mov	ip, r2
1000136e:	4463      	add	r3, ip
10001370:	785a      	ldrb	r2, [r3, #1]
10001372:	2a00      	cmp	r2, #0
10001374:	d127      	bne.n	100013c6 <ph_remove_any_head+0x76>
10001376:	789a      	ldrb	r2, [r3, #2]
10001378:	2a00      	cmp	r2, #0
1000137a:	d12a      	bne.n	100013d2 <ph_remove_any_head+0x82>
1000137c:	7819      	ldrb	r1, [r3, #0]
1000137e:	f7ff ff93 	bl	100012a8 <ph_merge_two_pass>
10001382:	0003      	movs	r3, r0
10001384:	2e00      	cmp	r6, #0
10001386:	d003      	beq.n	10001390 <ph_remove_any_head+0x40>
10001388:	7bea      	ldrb	r2, [r5, #15]
1000138a:	2a00      	cmp	r2, #0
1000138c:	d127      	bne.n	100013de <ph_remove_any_head+0x8e>
1000138e:	73ec      	strb	r4, [r5, #15]
10001390:	2b00      	cmp	r3, #0
10001392:	d137      	bne.n	10001404 <ph_remove_any_head+0xb4>
10001394:	2c00      	cmp	r4, #0
10001396:	d049      	beq.n	1000142c <ph_remove_any_head+0xdc>
10001398:	7b2b      	ldrb	r3, [r5, #12]
1000139a:	429c      	cmp	r4, r3
1000139c:	d846      	bhi.n	1000142c <ph_remove_any_head+0xdc>
1000139e:	682b      	ldr	r3, [r5, #0]
100013a0:	0061      	lsls	r1, r4, #1
100013a2:	190c      	adds	r4, r1, r4
100013a4:	3c03      	subs	r4, #3
100013a6:	191c      	adds	r4, r3, r4
100013a8:	2300      	movs	r3, #0
100013aa:	7063      	strb	r3, [r4, #1]
100013ac:	bd70      	pop	{r4, r5, r6, pc}
100013ae:	4b22      	ldr	r3, [pc, #136]	; (10001438 <ph_remove_any_head+0xe8>)
100013b0:	4a22      	ldr	r2, [pc, #136]	; (1000143c <ph_remove_any_head+0xec>)
100013b2:	2138      	movs	r1, #56	; 0x38
100013b4:	4822      	ldr	r0, [pc, #136]	; (10001440 <ph_remove_any_head+0xf0>)
100013b6:	f000 f8db 	bl	10001570 <__assert_func>
100013ba:	4b22      	ldr	r3, [pc, #136]	; (10001444 <ph_remove_any_head+0xf4>)
100013bc:	4a22      	ldr	r2, [pc, #136]	; (10001448 <ph_remove_any_head+0xf8>)
100013be:	2169      	movs	r1, #105	; 0x69
100013c0:	4822      	ldr	r0, [pc, #136]	; (1000144c <ph_remove_any_head+0xfc>)
100013c2:	f000 f8d5 	bl	10001570 <__assert_func>
100013c6:	4b22      	ldr	r3, [pc, #136]	; (10001450 <ph_remove_any_head+0x100>)
100013c8:	4a1c      	ldr	r2, [pc, #112]	; (1000143c <ph_remove_any_head+0xec>)
100013ca:	213a      	movs	r1, #58	; 0x3a
100013cc:	481c      	ldr	r0, [pc, #112]	; (10001440 <ph_remove_any_head+0xf0>)
100013ce:	f000 f8cf 	bl	10001570 <__assert_func>
100013d2:	4b20      	ldr	r3, [pc, #128]	; (10001454 <ph_remove_any_head+0x104>)
100013d4:	4a19      	ldr	r2, [pc, #100]	; (1000143c <ph_remove_any_head+0xec>)
100013d6:	213b      	movs	r1, #59	; 0x3b
100013d8:	4819      	ldr	r0, [pc, #100]	; (10001440 <ph_remove_any_head+0xf0>)
100013da:	f000 f8c9 	bl	10001570 <__assert_func>
100013de:	2a00      	cmp	r2, #0
100013e0:	d00a      	beq.n	100013f8 <ph_remove_any_head+0xa8>
100013e2:	7b29      	ldrb	r1, [r5, #12]
100013e4:	428a      	cmp	r2, r1
100013e6:	d807      	bhi.n	100013f8 <ph_remove_any_head+0xa8>
100013e8:	0051      	lsls	r1, r2, #1
100013ea:	188a      	adds	r2, r1, r2
100013ec:	3a03      	subs	r2, #3
100013ee:	6829      	ldr	r1, [r5, #0]
100013f0:	468c      	mov	ip, r1
100013f2:	4462      	add	r2, ip
100013f4:	7054      	strb	r4, [r2, #1]
100013f6:	e7ca      	b.n	1000138e <ph_remove_any_head+0x3e>
100013f8:	4b12      	ldr	r3, [pc, #72]	; (10001444 <ph_remove_any_head+0xf4>)
100013fa:	4a13      	ldr	r2, [pc, #76]	; (10001448 <ph_remove_any_head+0xf8>)
100013fc:	2169      	movs	r1, #105	; 0x69
100013fe:	4813      	ldr	r0, [pc, #76]	; (1000144c <ph_remove_any_head+0xfc>)
10001400:	f000 f8b6 	bl	10001570 <__assert_func>
10001404:	2b00      	cmp	r3, #0
10001406:	d00b      	beq.n	10001420 <ph_remove_any_head+0xd0>
10001408:	7b2a      	ldrb	r2, [r5, #12]
1000140a:	4293      	cmp	r3, r2
1000140c:	d808      	bhi.n	10001420 <ph_remove_any_head+0xd0>
1000140e:	0043      	lsls	r3, r0, #1
10001410:	181b      	adds	r3, r3, r0
10001412:	3b03      	subs	r3, #3
10001414:	682a      	ldr	r2, [r5, #0]
10001416:	4694      	mov	ip, r2
10001418:	4463      	add	r3, ip
1000141a:	2200      	movs	r2, #0
1000141c:	709a      	strb	r2, [r3, #2]
1000141e:	e7b9      	b.n	10001394 <ph_remove_any_head+0x44>
10001420:	4b08      	ldr	r3, [pc, #32]	; (10001444 <ph_remove_any_head+0xf4>)
10001422:	4a09      	ldr	r2, [pc, #36]	; (10001448 <ph_remove_any_head+0xf8>)
10001424:	2169      	movs	r1, #105	; 0x69
10001426:	4809      	ldr	r0, [pc, #36]	; (1000144c <ph_remove_any_head+0xfc>)
10001428:	f000 f8a2 	bl	10001570 <__assert_func>
1000142c:	4b05      	ldr	r3, [pc, #20]	; (10001444 <ph_remove_any_head+0xf4>)
1000142e:	4a06      	ldr	r2, [pc, #24]	; (10001448 <ph_remove_any_head+0xf8>)
10001430:	2169      	movs	r1, #105	; 0x69
10001432:	4806      	ldr	r0, [pc, #24]	; (1000144c <ph_remove_any_head+0xfc>)
10001434:	f000 f89c 	bl	10001570 <__assert_func>
10001438:	100046c4 	.word	0x100046c4
1000143c:	100047c4 	.word	0x100047c4
10001440:	100046cc 	.word	0x100046cc
10001444:	100041f4 	.word	0x100041f4
10001448:	100047a4 	.word	0x100047a4
1000144c:	10004210 	.word	0x10004210
10001450:	10004730 	.word	0x10004730
10001454:	10004758 	.word	0x10004758

10001458 <ph_remove_head>:
10001458:	b570      	push	{r4, r5, r6, lr}
1000145a:	0004      	movs	r4, r0
1000145c:	000a      	movs	r2, r1
1000145e:	7b45      	ldrb	r5, [r0, #13]
10001460:	0029      	movs	r1, r5
10001462:	f7ff ff75 	bl	10001350 <ph_remove_any_head>
10001466:	7360      	strb	r0, [r4, #13]
10001468:	0028      	movs	r0, r5
1000146a:	bd70      	pop	{r4, r5, r6, pc}

1000146c <ph_remove_and_free_node>:
1000146c:	b570      	push	{r4, r5, r6, lr}
1000146e:	0004      	movs	r4, r0
10001470:	2900      	cmp	r1, #0
10001472:	d066      	beq.n	10001542 <ph_remove_and_free_node+0xd6>
10001474:	7b43      	ldrb	r3, [r0, #13]
10001476:	428b      	cmp	r3, r1
10001478:	d00e      	beq.n	10001498 <ph_remove_and_free_node+0x2c>
1000147a:	2900      	cmp	r1, #0
1000147c:	d011      	beq.n	100014a2 <ph_remove_and_free_node+0x36>
1000147e:	7b03      	ldrb	r3, [r0, #12]
10001480:	4299      	cmp	r1, r3
10001482:	d80e      	bhi.n	100014a2 <ph_remove_and_free_node+0x36>
10001484:	004b      	lsls	r3, r1, #1
10001486:	185b      	adds	r3, r3, r1
10001488:	3b03      	subs	r3, #3
1000148a:	6802      	ldr	r2, [r0, #0]
1000148c:	18d0      	adds	r0, r2, r3
1000148e:	7883      	ldrb	r3, [r0, #2]
10001490:	2b00      	cmp	r3, #0
10001492:	d10c      	bne.n	100014ae <ph_remove_and_free_node+0x42>
10001494:	2000      	movs	r0, #0
10001496:	e055      	b.n	10001544 <ph_remove_and_free_node+0xd8>
10001498:	2101      	movs	r1, #1
1000149a:	f7ff ffdd 	bl	10001458 <ph_remove_head>
1000149e:	2001      	movs	r0, #1
100014a0:	e050      	b.n	10001544 <ph_remove_and_free_node+0xd8>
100014a2:	4b29      	ldr	r3, [pc, #164]	; (10001548 <ph_remove_and_free_node+0xdc>)
100014a4:	4a29      	ldr	r2, [pc, #164]	; (1000154c <ph_remove_and_free_node+0xe0>)
100014a6:	2169      	movs	r1, #105	; 0x69
100014a8:	4829      	ldr	r0, [pc, #164]	; (10001550 <ph_remove_and_free_node+0xe4>)
100014aa:	f000 f861 	bl	10001570 <__assert_func>
100014ae:	2b00      	cmp	r3, #0
100014b0:	d01f      	beq.n	100014f2 <ph_remove_and_free_node+0x86>
100014b2:	7b22      	ldrb	r2, [r4, #12]
100014b4:	4293      	cmp	r3, r2
100014b6:	d81c      	bhi.n	100014f2 <ph_remove_and_free_node+0x86>
100014b8:	6825      	ldr	r5, [r4, #0]
100014ba:	005a      	lsls	r2, r3, #1
100014bc:	18d3      	adds	r3, r2, r3
100014be:	3b03      	subs	r3, #3
100014c0:	18ea      	adds	r2, r5, r3
100014c2:	5ceb      	ldrb	r3, [r5, r3]
100014c4:	428b      	cmp	r3, r1
100014c6:	d01a      	beq.n	100014fe <ph_remove_and_free_node+0x92>
100014c8:	2b00      	cmp	r3, #0
100014ca:	d01b      	beq.n	10001504 <ph_remove_and_free_node+0x98>
100014cc:	7b22      	ldrb	r2, [r4, #12]
100014ce:	4293      	cmp	r3, r2
100014d0:	d818      	bhi.n	10001504 <ph_remove_and_free_node+0x98>
100014d2:	005a      	lsls	r2, r3, #1
100014d4:	18d3      	adds	r3, r2, r3
100014d6:	3b03      	subs	r3, #3
100014d8:	6822      	ldr	r2, [r4, #0]
100014da:	18d2      	adds	r2, r2, r3
100014dc:	7853      	ldrb	r3, [r2, #1]
100014de:	428b      	cmp	r3, r1
100014e0:	d016      	beq.n	10001510 <ph_remove_and_free_node+0xa4>
100014e2:	2b00      	cmp	r3, #0
100014e4:	d1f0      	bne.n	100014c8 <ph_remove_and_free_node+0x5c>
100014e6:	4b1b      	ldr	r3, [pc, #108]	; (10001554 <ph_remove_and_free_node+0xe8>)
100014e8:	4a1b      	ldr	r2, [pc, #108]	; (10001558 <ph_remove_and_free_node+0xec>)
100014ea:	2167      	movs	r1, #103	; 0x67
100014ec:	481b      	ldr	r0, [pc, #108]	; (1000155c <ph_remove_and_free_node+0xf0>)
100014ee:	f000 f83f 	bl	10001570 <__assert_func>
100014f2:	4b15      	ldr	r3, [pc, #84]	; (10001548 <ph_remove_and_free_node+0xdc>)
100014f4:	4a15      	ldr	r2, [pc, #84]	; (1000154c <ph_remove_and_free_node+0xe0>)
100014f6:	2169      	movs	r1, #105	; 0x69
100014f8:	4815      	ldr	r0, [pc, #84]	; (10001550 <ph_remove_and_free_node+0xe4>)
100014fa:	f000 f839 	bl	10001570 <__assert_func>
100014fe:	7843      	ldrb	r3, [r0, #1]
10001500:	7013      	strb	r3, [r2, #0]
10001502:	e007      	b.n	10001514 <ph_remove_and_free_node+0xa8>
10001504:	4b10      	ldr	r3, [pc, #64]	; (10001548 <ph_remove_and_free_node+0xdc>)
10001506:	4a11      	ldr	r2, [pc, #68]	; (1000154c <ph_remove_and_free_node+0xe0>)
10001508:	2169      	movs	r1, #105	; 0x69
1000150a:	4811      	ldr	r0, [pc, #68]	; (10001550 <ph_remove_and_free_node+0xe4>)
1000150c:	f000 f830 	bl	10001570 <__assert_func>
10001510:	7843      	ldrb	r3, [r0, #1]
10001512:	7053      	strb	r3, [r2, #1]
10001514:	2300      	movs	r3, #0
10001516:	7083      	strb	r3, [r0, #2]
10001518:	7043      	strb	r3, [r0, #1]
1000151a:	2201      	movs	r2, #1
1000151c:	0020      	movs	r0, r4
1000151e:	f7ff ff17 	bl	10001350 <ph_remove_any_head>
10001522:	0002      	movs	r2, r0
10001524:	7b61      	ldrb	r1, [r4, #13]
10001526:	4281      	cmp	r1, r0
10001528:	d005      	beq.n	10001536 <ph_remove_and_free_node+0xca>
1000152a:	0020      	movs	r0, r4
1000152c:	f7ff fe5c 	bl	100011e8 <ph_merge_nodes>
10001530:	7360      	strb	r0, [r4, #13]
10001532:	2001      	movs	r0, #1
10001534:	e006      	b.n	10001544 <ph_remove_and_free_node+0xd8>
10001536:	4b0a      	ldr	r3, [pc, #40]	; (10001560 <ph_remove_and_free_node+0xf4>)
10001538:	4a07      	ldr	r2, [pc, #28]	; (10001558 <ph_remove_and_free_node+0xec>)
1000153a:	216d      	movs	r1, #109	; 0x6d
1000153c:	4807      	ldr	r0, [pc, #28]	; (1000155c <ph_remove_and_free_node+0xf0>)
1000153e:	f000 f817 	bl	10001570 <__assert_func>
10001542:	2000      	movs	r0, #0
10001544:	bd70      	pop	{r4, r5, r6, pc}
10001546:	46c0      	nop			; (mov r8, r8)
10001548:	100041f4 	.word	0x100041f4
1000154c:	100047a4 	.word	0x100047a4
10001550:	10004210 	.word	0x10004210
10001554:	1000477c 	.word	0x1000477c
10001558:	100047d8 	.word	0x100047d8
1000155c:	100046cc 	.word	0x100046cc
10001560:	10004784 	.word	0x10004784

10001564 <_exit>:
10001564:	be00      	bkpt	0x0000
10001566:	e7fd      	b.n	10001564 <_exit>

10001568 <exit>:
10001568:	b510      	push	{r4, lr}
1000156a:	f7ff fffb 	bl	10001564 <_exit>
	...

10001570 <__assert_func>:
10001570:	b510      	push	{r4, lr}
10001572:	b082      	sub	sp, #8
10001574:	000c      	movs	r4, r1
10001576:	0019      	movs	r1, r3
10001578:	2a00      	cmp	r2, #0
1000157a:	d00c      	beq.n	10001596 <__assert_func+0x26>
1000157c:	4b08      	ldr	r3, [pc, #32]	; (100015a0 <__assert_func+0x30>)
1000157e:	2a00      	cmp	r2, #0
10001580:	d00b      	beq.n	1000159a <__assert_func+0x2a>
10001582:	9201      	str	r2, [sp, #4]
10001584:	9300      	str	r3, [sp, #0]
10001586:	0023      	movs	r3, r4
10001588:	0002      	movs	r2, r0
1000158a:	4806      	ldr	r0, [pc, #24]	; (100015a4 <__assert_func+0x34>)
1000158c:	f002 fd76 	bl	1000407c <__wrap_printf>
10001590:	2001      	movs	r0, #1
10001592:	f7ff ffe7 	bl	10001564 <_exit>
10001596:	4b04      	ldr	r3, [pc, #16]	; (100015a8 <__assert_func+0x38>)
10001598:	e7f1      	b.n	1000157e <__assert_func+0xe>
1000159a:	4a03      	ldr	r2, [pc, #12]	; (100015a8 <__assert_func+0x38>)
1000159c:	e7f1      	b.n	10001582 <__assert_func+0x12>
1000159e:	46c0      	nop			; (mov r8, r8)
100015a0:	100047f0 	.word	0x100047f0
100015a4:	10004800 	.word	0x10004800
100015a8:	100047fc 	.word	0x100047fc

100015ac <runtime_init>:
100015ac:	b570      	push	{r4, r5, r6, lr}
100015ae:	4b2b      	ldr	r3, [pc, #172]	; (1000165c <runtime_init+0xb0>)
100015b0:	4a2b      	ldr	r2, [pc, #172]	; (10001660 <runtime_init+0xb4>)
100015b2:	601a      	str	r2, [r3, #0]
100015b4:	4b2b      	ldr	r3, [pc, #172]	; (10001664 <runtime_init+0xb8>)
100015b6:	4a2c      	ldr	r2, [pc, #176]	; (10001668 <runtime_init+0xbc>)
100015b8:	601a      	str	r2, [r3, #0]
100015ba:	4b2c      	ldr	r3, [pc, #176]	; (1000166c <runtime_init+0xc0>)
100015bc:	689a      	ldr	r2, [r3, #8]
100015be:	4b2a      	ldr	r3, [pc, #168]	; (10001668 <runtime_init+0xbc>)
100015c0:	4393      	bics	r3, r2
100015c2:	d1fa      	bne.n	100015ba <runtime_init+0xe>
100015c4:	4c2a      	ldr	r4, [pc, #168]	; (10001670 <runtime_init+0xc4>)
100015c6:	4b2b      	ldr	r3, [pc, #172]	; (10001674 <runtime_init+0xc8>)
100015c8:	429c      	cmp	r4, r3
100015ca:	d202      	bcs.n	100015d2 <runtime_init+0x26>
100015cc:	cc08      	ldmia	r4!, {r3}
100015ce:	4798      	blx	r3
100015d0:	e7f9      	b.n	100015c6 <runtime_init+0x1a>
100015d2:	f000 f901 	bl	100017d8 <clocks_init>
100015d6:	4b23      	ldr	r3, [pc, #140]	; (10001664 <runtime_init+0xb8>)
100015d8:	4a27      	ldr	r2, [pc, #156]	; (10001678 <runtime_init+0xcc>)
100015da:	601a      	str	r2, [r3, #0]
100015dc:	4b23      	ldr	r3, [pc, #140]	; (1000166c <runtime_init+0xc0>)
100015de:	689b      	ldr	r3, [r3, #8]
100015e0:	43db      	mvns	r3, r3
100015e2:	01db      	lsls	r3, r3, #7
100015e4:	d1fa      	bne.n	100015dc <runtime_init+0x30>
100015e6:	4b25      	ldr	r3, [pc, #148]	; (1000167c <runtime_init+0xd0>)
100015e8:	2240      	movs	r2, #64	; 0x40
100015ea:	679a      	str	r2, [r3, #120]	; 0x78
100015ec:	675a      	str	r2, [r3, #116]	; 0x74
100015ee:	671a      	str	r2, [r3, #112]	; 0x70
100015f0:	66da      	str	r2, [r3, #108]	; 0x6c
100015f2:	4c23      	ldr	r4, [pc, #140]	; (10001680 <runtime_init+0xd4>)
100015f4:	e009      	b.n	1000160a <runtime_init+0x5e>
100015f6:	4b23      	ldr	r3, [pc, #140]	; (10001684 <runtime_init+0xd8>)
100015f8:	4a23      	ldr	r2, [pc, #140]	; (10001688 <runtime_init+0xdc>)
100015fa:	2183      	movs	r1, #131	; 0x83
100015fc:	4823      	ldr	r0, [pc, #140]	; (1000168c <runtime_init+0xe0>)
100015fe:	f7ff ffb7 	bl	10001570 <__assert_func>
10001602:	0020      	movs	r0, r4
10001604:	f7ff fd82 	bl	1000110c <mutex_init>
10001608:	3408      	adds	r4, #8
1000160a:	4b21      	ldr	r3, [pc, #132]	; (10001690 <runtime_init+0xe4>)
1000160c:	429c      	cmp	r4, r3
1000160e:	d209      	bcs.n	10001624 <runtime_init+0x78>
10001610:	6823      	ldr	r3, [r4, #0]
10001612:	2b00      	cmp	r3, #0
10001614:	d0f5      	beq.n	10001602 <runtime_init+0x56>
10001616:	2b01      	cmp	r3, #1
10001618:	d1ed      	bne.n	100015f6 <runtime_init+0x4a>
1000161a:	0020      	movs	r0, r4
1000161c:	f7ff fd83 	bl	10001126 <recursive_mutex_init>
10001620:	3408      	adds	r4, #8
10001622:	e7f2      	b.n	1000160a <runtime_init+0x5e>
10001624:	4c1b      	ldr	r4, [pc, #108]	; (10001694 <runtime_init+0xe8>)
10001626:	68a1      	ldr	r1, [r4, #8]
10001628:	4d1b      	ldr	r5, [pc, #108]	; (10001698 <runtime_init+0xec>)
1000162a:	22c0      	movs	r2, #192	; 0xc0
1000162c:	0028      	movs	r0, r5
1000162e:	f002 fbf7 	bl	10003e20 <__wrap___aeabi_memcpy>
10001632:	60a5      	str	r5, [r4, #8]
10001634:	f7fe fe17 	bl	10000266 <__get_current_exception>
10001638:	2800      	cmp	r0, #0
1000163a:	d000      	beq.n	1000163e <runtime_init+0x92>
1000163c:	be00      	bkpt	0x0000
1000163e:	f7fe ff1d 	bl	1000047c <spin_locks_reset>
10001642:	f000 fb3b 	bl	10001cbc <irq_init_priorities>
10001646:	f7ff fa6f 	bl	10000b28 <alarm_pool_init_default>
1000164a:	4c14      	ldr	r4, [pc, #80]	; (1000169c <runtime_init+0xf0>)
1000164c:	4b14      	ldr	r3, [pc, #80]	; (100016a0 <runtime_init+0xf4>)
1000164e:	429c      	cmp	r4, r3
10001650:	d202      	bcs.n	10001658 <runtime_init+0xac>
10001652:	cc08      	ldmia	r4!, {r3}
10001654:	4798      	blx	r3
10001656:	e7f9      	b.n	1000164c <runtime_init+0xa0>
10001658:	bd70      	pop	{r4, r5, r6, pc}
1000165a:	46c0      	nop			; (mov r8, r8)
1000165c:	4000e000 	.word	0x4000e000
10001660:	fefbcdbf 	.word	0xfefbcdbf
10001664:	4000f000 	.word	0x4000f000
10001668:	003c7ffe 	.word	0x003c7ffe
1000166c:	4000c000 	.word	0x4000c000
10001670:	20000258 	.word	0x20000258
10001674:	20000268 	.word	0x20000268
10001678:	01ffffff 	.word	0x01ffffff
1000167c:	4001f000 	.word	0x4001f000
10001680:	20000250 	.word	0x20000250
10001684:	10004830 	.word	0x10004830
10001688:	100048d4 	.word	0x100048d4
1000168c:	10004850 	.word	0x10004850
10001690:	20000258 	.word	0x20000258
10001694:	e000ed00 	.word	0xe000ed00
10001698:	20000000 	.word	0x20000000
1000169c:	20000268 	.word	0x20000268
100016a0:	2000026c 	.word	0x2000026c

100016a4 <panic>:
100016a4:	b40f      	push	{r0, r1, r2, r3}
100016a6:	b500      	push	{lr}
100016a8:	b083      	sub	sp, #12
100016aa:	4808      	ldr	r0, [pc, #32]	; (100016cc <panic+0x28>)
100016ac:	f002 fcb4 	bl	10004018 <__wrap_puts>
100016b0:	9b04      	ldr	r3, [sp, #16]
100016b2:	2b00      	cmp	r3, #0
100016b4:	d007      	beq.n	100016c6 <panic+0x22>
100016b6:	a905      	add	r1, sp, #20
100016b8:	9101      	str	r1, [sp, #4]
100016ba:	0018      	movs	r0, r3
100016bc:	f002 fcbc 	bl	10004038 <__wrap_vprintf>
100016c0:	4803      	ldr	r0, [pc, #12]	; (100016d0 <panic+0x2c>)
100016c2:	f002 fca9 	bl	10004018 <__wrap_puts>
100016c6:	2001      	movs	r0, #1
100016c8:	f7ff ff4c 	bl	10001564 <_exit>
100016cc:	100048c0 	.word	0x100048c0
100016d0:	100048d0 	.word	0x100048d0

100016d4 <clock_configure>:
100016d4:	b5f8      	push	{r3, r4, r5, r6, r7, lr}
100016d6:	46de      	mov	lr, fp
100016d8:	4657      	mov	r7, sl
100016da:	464e      	mov	r6, r9
100016dc:	4645      	mov	r5, r8
100016de:	b5e0      	push	{r5, r6, r7, lr}
100016e0:	0005      	movs	r5, r0
100016e2:	000f      	movs	r7, r1
100016e4:	4692      	mov	sl, r2
100016e6:	001e      	movs	r6, r3
100016e8:	9b0a      	ldr	r3, [sp, #40]	; 0x28
100016ea:	429e      	cmp	r6, r3
100016ec:	d34e      	bcc.n	1000178c <clock_configure+0xb8>
100016ee:	0e33      	lsrs	r3, r6, #24
100016f0:	4699      	mov	r9, r3
100016f2:	0236      	lsls	r6, r6, #8
100016f4:	9a0a      	ldr	r2, [sp, #40]	; 0x28
100016f6:	2300      	movs	r3, #0
100016f8:	0030      	movs	r0, r6
100016fa:	4649      	mov	r1, r9
100016fc:	f001 fcce 	bl	1000309c <__wrap___aeabi_uldivmod>
10001700:	4680      	mov	r8, r0
10001702:	006c      	lsls	r4, r5, #1
10001704:	1964      	adds	r4, r4, r5
10001706:	00a4      	lsls	r4, r4, #2
10001708:	4b2e      	ldr	r3, [pc, #184]	; (100017c4 <clock_configure+0xf0>)
1000170a:	469c      	mov	ip, r3
1000170c:	4464      	add	r4, ip
1000170e:	6863      	ldr	r3, [r4, #4]
10001710:	4283      	cmp	r3, r0
10001712:	d200      	bcs.n	10001716 <clock_configure+0x42>
10001714:	6060      	str	r0, [r4, #4]
10001716:	1f2b      	subs	r3, r5, #4
10001718:	b2db      	uxtb	r3, r3
1000171a:	469b      	mov	fp, r3
1000171c:	2b01      	cmp	r3, #1
1000171e:	d93b      	bls.n	10001798 <clock_configure+0xc4>
10001720:	23c0      	movs	r3, #192	; 0xc0
10001722:	019b      	lsls	r3, r3, #6
10001724:	4323      	orrs	r3, r4
10001726:	2280      	movs	r2, #128	; 0x80
10001728:	0112      	lsls	r2, r2, #4
1000172a:	601a      	str	r2, [r3, #0]
1000172c:	00ab      	lsls	r3, r5, #2
1000172e:	4a26      	ldr	r2, [pc, #152]	; (100017c8 <clock_configure+0xf4>)
10001730:	5899      	ldr	r1, [r3, r2]
10001732:	2900      	cmp	r1, #0
10001734:	d005      	beq.n	10001742 <clock_configure+0x6e>
10001736:	6950      	ldr	r0, [r2, #20]
10001738:	f001 fc6e 	bl	10003018 <__wrap___aeabi_uidiv>
1000173c:	3001      	adds	r0, #1
1000173e:	3801      	subs	r0, #1
10001740:	d1fd      	bne.n	1000173e <clock_configure+0x6a>
10001742:	4653      	mov	r3, sl
10001744:	015a      	lsls	r2, r3, #5
10001746:	6823      	ldr	r3, [r4, #0]
10001748:	405a      	eors	r2, r3
1000174a:	23e0      	movs	r3, #224	; 0xe0
1000174c:	401a      	ands	r2, r3
1000174e:	2380      	movs	r3, #128	; 0x80
10001750:	015b      	lsls	r3, r3, #5
10001752:	4323      	orrs	r3, r4
10001754:	601a      	str	r2, [r3, #0]
10001756:	465a      	mov	r2, fp
10001758:	2a01      	cmp	r2, #1
1000175a:	d928      	bls.n	100017ae <clock_configure+0xda>
1000175c:	2380      	movs	r3, #128	; 0x80
1000175e:	019b      	lsls	r3, r3, #6
10001760:	4323      	orrs	r3, r4
10001762:	2280      	movs	r2, #128	; 0x80
10001764:	0112      	lsls	r2, r2, #4
10001766:	601a      	str	r2, [r3, #0]
10001768:	4643      	mov	r3, r8
1000176a:	6063      	str	r3, [r4, #4]
1000176c:	4642      	mov	r2, r8
1000176e:	2300      	movs	r3, #0
10001770:	0030      	movs	r0, r6
10001772:	4649      	mov	r1, r9
10001774:	f001 fc92 	bl	1000309c <__wrap___aeabi_uldivmod>
10001778:	00ad      	lsls	r5, r5, #2
1000177a:	4b13      	ldr	r3, [pc, #76]	; (100017c8 <clock_configure+0xf4>)
1000177c:	5158      	str	r0, [r3, r5]
1000177e:	2001      	movs	r0, #1
10001780:	bcf0      	pop	{r4, r5, r6, r7}
10001782:	46bb      	mov	fp, r7
10001784:	46b2      	mov	sl, r6
10001786:	46a9      	mov	r9, r5
10001788:	46a0      	mov	r8, r4
1000178a:	bdf8      	pop	{r3, r4, r5, r6, r7, pc}
1000178c:	4b0f      	ldr	r3, [pc, #60]	; (100017cc <clock_configure+0xf8>)
1000178e:	4a10      	ldr	r2, [pc, #64]	; (100017d0 <clock_configure+0xfc>)
10001790:	212d      	movs	r1, #45	; 0x2d
10001792:	4810      	ldr	r0, [pc, #64]	; (100017d4 <clock_configure+0x100>)
10001794:	f7ff feec 	bl	10001570 <__assert_func>
10001798:	2f01      	cmp	r7, #1
1000179a:	d1c1      	bne.n	10001720 <clock_configure+0x4c>
1000179c:	23c0      	movs	r3, #192	; 0xc0
1000179e:	019b      	lsls	r3, r3, #6
100017a0:	4323      	orrs	r3, r4
100017a2:	2203      	movs	r2, #3
100017a4:	601a      	str	r2, [r3, #0]
100017a6:	68a3      	ldr	r3, [r4, #8]
100017a8:	07db      	lsls	r3, r3, #31
100017aa:	d5fc      	bpl.n	100017a6 <clock_configure+0xd2>
100017ac:	e7c9      	b.n	10001742 <clock_configure+0x6e>
100017ae:	6821      	ldr	r1, [r4, #0]
100017b0:	4079      	eors	r1, r7
100017b2:	2203      	movs	r2, #3
100017b4:	400a      	ands	r2, r1
100017b6:	601a      	str	r2, [r3, #0]
100017b8:	68a3      	ldr	r3, [r4, #8]
100017ba:	2201      	movs	r2, #1
100017bc:	40ba      	lsls	r2, r7
100017be:	421a      	tst	r2, r3
100017c0:	d0fa      	beq.n	100017b8 <clock_configure+0xe4>
100017c2:	e7cb      	b.n	1000175c <clock_configure+0x88>
100017c4:	40008000 	.word	0x40008000
100017c8:	2000039c 	.word	0x2000039c
100017cc:	100048e4 	.word	0x100048e4
100017d0:	10004968 	.word	0x10004968
100017d4:	100048f8 	.word	0x100048f8

100017d8 <clocks_init>:
100017d8:	b530      	push	{r4, r5, lr}
100017da:	b083      	sub	sp, #12
100017dc:	200c      	movs	r0, #12
100017de:	f000 fb07 	bl	10001df0 <watchdog_start_tick>
100017e2:	f7fe fe41 	bl	10000468 <running_on_fpga>
100017e6:	2800      	cmp	r0, #0
100017e8:	d00d      	beq.n	10001806 <clocks_init+0x2e>
100017ea:	2300      	movs	r3, #0
100017ec:	2b09      	cmp	r3, #9
100017ee:	d805      	bhi.n	100017fc <clocks_init+0x24>
100017f0:	0099      	lsls	r1, r3, #2
100017f2:	4a2d      	ldr	r2, [pc, #180]	; (100018a8 <clocks_init+0xd0>)
100017f4:	482d      	ldr	r0, [pc, #180]	; (100018ac <clocks_init+0xd4>)
100017f6:	5088      	str	r0, [r1, r2]
100017f8:	3301      	adds	r3, #1
100017fa:	e7f7      	b.n	100017ec <clocks_init+0x14>
100017fc:	4b2a      	ldr	r3, [pc, #168]	; (100018a8 <clocks_init+0xd0>)
100017fe:	4a2c      	ldr	r2, [pc, #176]	; (100018b0 <clocks_init+0xd8>)
10001800:	625a      	str	r2, [r3, #36]	; 0x24
10001802:	b003      	add	sp, #12
10001804:	bd30      	pop	{r4, r5, pc}
10001806:	4b2b      	ldr	r3, [pc, #172]	; (100018b4 <clocks_init+0xdc>)
10001808:	2200      	movs	r2, #0
1000180a:	679a      	str	r2, [r3, #120]	; 0x78
1000180c:	f000 faf8 	bl	10001e00 <xosc_init>
10001810:	4b29      	ldr	r3, [pc, #164]	; (100018b8 <clocks_init+0xe0>)
10001812:	2201      	movs	r2, #1
10001814:	601a      	str	r2, [r3, #0]
10001816:	4b27      	ldr	r3, [pc, #156]	; (100018b4 <clocks_init+0xdc>)
10001818:	6c5b      	ldr	r3, [r3, #68]	; 0x44
1000181a:	2b01      	cmp	r3, #1
1000181c:	d1fb      	bne.n	10001816 <clocks_init+0x3e>
1000181e:	4b27      	ldr	r3, [pc, #156]	; (100018bc <clocks_init+0xe4>)
10001820:	2203      	movs	r2, #3
10001822:	601a      	str	r2, [r3, #0]
10001824:	4b23      	ldr	r3, [pc, #140]	; (100018b4 <clocks_init+0xdc>)
10001826:	6b9b      	ldr	r3, [r3, #56]	; 0x38
10001828:	2b01      	cmp	r3, #1
1000182a:	d1fb      	bne.n	10001824 <clocks_init+0x4c>
1000182c:	2402      	movs	r4, #2
1000182e:	9400      	str	r4, [sp, #0]
10001830:	3305      	adds	r3, #5
10001832:	4a23      	ldr	r2, [pc, #140]	; (100018c0 <clocks_init+0xe8>)
10001834:	2101      	movs	r1, #1
10001836:	4823      	ldr	r0, [pc, #140]	; (100018c4 <clocks_init+0xec>)
10001838:	f000 fa4e 	bl	10001cd8 <pll_init>
1000183c:	9400      	str	r4, [sp, #0]
1000183e:	2305      	movs	r3, #5
10001840:	4a21      	ldr	r2, [pc, #132]	; (100018c8 <clocks_init+0xf0>)
10001842:	2101      	movs	r1, #1
10001844:	4821      	ldr	r0, [pc, #132]	; (100018cc <clocks_init+0xf4>)
10001846:	f000 fa47 	bl	10001cd8 <pll_init>
1000184a:	4b21      	ldr	r3, [pc, #132]	; (100018d0 <clocks_init+0xf8>)
1000184c:	9300      	str	r3, [sp, #0]
1000184e:	2200      	movs	r2, #0
10001850:	2102      	movs	r1, #2
10001852:	2004      	movs	r0, #4
10001854:	f7ff ff3e 	bl	100016d4 <clock_configure>
10001858:	4d1e      	ldr	r5, [pc, #120]	; (100018d4 <clocks_init+0xfc>)
1000185a:	9500      	str	r5, [sp, #0]
1000185c:	002b      	movs	r3, r5
1000185e:	2200      	movs	r2, #0
10001860:	2101      	movs	r1, #1
10001862:	2005      	movs	r0, #5
10001864:	f7ff ff36 	bl	100016d4 <clock_configure>
10001868:	4c10      	ldr	r4, [pc, #64]	; (100018ac <clocks_init+0xd4>)
1000186a:	9400      	str	r4, [sp, #0]
1000186c:	0023      	movs	r3, r4
1000186e:	2200      	movs	r2, #0
10001870:	2100      	movs	r1, #0
10001872:	2007      	movs	r0, #7
10001874:	f7ff ff2e 	bl	100016d4 <clock_configure>
10001878:	9400      	str	r4, [sp, #0]
1000187a:	0023      	movs	r3, r4
1000187c:	2200      	movs	r2, #0
1000187e:	2100      	movs	r1, #0
10001880:	2008      	movs	r0, #8
10001882:	f7ff ff27 	bl	100016d4 <clock_configure>
10001886:	4b0a      	ldr	r3, [pc, #40]	; (100018b0 <clocks_init+0xd8>)
10001888:	9300      	str	r3, [sp, #0]
1000188a:	0023      	movs	r3, r4
1000188c:	2200      	movs	r2, #0
1000188e:	2100      	movs	r1, #0
10001890:	2009      	movs	r0, #9
10001892:	f7ff ff1f 	bl	100016d4 <clock_configure>
10001896:	9500      	str	r5, [sp, #0]
10001898:	002b      	movs	r3, r5
1000189a:	2200      	movs	r2, #0
1000189c:	2100      	movs	r1, #0
1000189e:	2006      	movs	r0, #6
100018a0:	f7ff ff18 	bl	100016d4 <clock_configure>
100018a4:	e7ad      	b.n	10001802 <clocks_init+0x2a>
100018a6:	46c0      	nop			; (mov r8, r8)
100018a8:	2000039c 	.word	0x2000039c
100018ac:	02dc6c00 	.word	0x02dc6c00
100018b0:	0000b71b 	.word	0x0000b71b
100018b4:	40008000 	.word	0x40008000
100018b8:	4000b03c 	.word	0x4000b03c
100018bc:	4000b030 	.word	0x4000b030
100018c0:	59682f00 	.word	0x59682f00
100018c4:	40028000 	.word	0x40028000
100018c8:	1c9c3800 	.word	0x1c9c3800
100018cc:	4002c000 	.word	0x4002c000
100018d0:	00b71b00 	.word	0x00b71b00
100018d4:	07735940 	.word	0x07735940

100018d8 <set_raw_irq_handler_and_unlock>:
100018d8:	4b07      	ldr	r3, [pc, #28]	; (100018f8 <set_raw_irq_handler_and_unlock+0x20>)
100018da:	689b      	ldr	r3, [r3, #8]
100018dc:	3010      	adds	r0, #16
100018de:	0080      	lsls	r0, r0, #2
100018e0:	5019      	str	r1, [r3, r0]
100018e2:	f3bf 8f5f 	dmb	sy
100018e6:	f3bf 8f5f 	dmb	sy
100018ea:	4b04      	ldr	r3, [pc, #16]	; (100018fc <set_raw_irq_handler_and_unlock+0x24>)
100018ec:	2100      	movs	r1, #0
100018ee:	6019      	str	r1, [r3, #0]
100018f0:	f382 8810 	msr	PRIMASK, r2
100018f4:	4770      	bx	lr
100018f6:	46c0      	nop			; (mov r8, r8)
100018f8:	e000ed00 	.word	0xe000ed00
100018fc:	d0000124 	.word	0xd0000124

10001900 <make_branch>:
10001900:	b510      	push	{r4, lr}
10001902:	1a09      	subs	r1, r1, r0
10001904:	3904      	subs	r1, #4
10001906:	0848      	lsrs	r0, r1, #1
10001908:	0b09      	lsrs	r1, r1, #12
1000190a:	d105      	bne.n	10001918 <make_branch+0x18>
1000190c:	0540      	lsls	r0, r0, #21
1000190e:	0d40      	lsrs	r0, r0, #21
10001910:	4b04      	ldr	r3, [pc, #16]	; (10001924 <make_branch+0x24>)
10001912:	4318      	orrs	r0, r3
10001914:	b280      	uxth	r0, r0
10001916:	bd10      	pop	{r4, pc}
10001918:	4b03      	ldr	r3, [pc, #12]	; (10001928 <make_branch+0x28>)
1000191a:	4a04      	ldr	r2, [pc, #16]	; (1000192c <make_branch+0x2c>)
1000191c:	218b      	movs	r1, #139	; 0x8b
1000191e:	4804      	ldr	r0, [pc, #16]	; (10001930 <make_branch+0x30>)
10001920:	f7ff fe26 	bl	10001570 <__assert_func>
10001924:	ffffe000 	.word	0xffffe000
10001928:	10004978 	.word	0x10004978
1000192c:	10004b84 	.word	0x10004b84
10001930:	10004988 	.word	0x10004988

10001934 <insert_branch_and_link>:
10001934:	b510      	push	{r4, lr}
10001936:	1a09      	subs	r1, r1, r0
10001938:	3904      	subs	r1, #4
1000193a:	084c      	lsrs	r4, r1, #1
1000193c:	0b09      	lsrs	r1, r1, #12
1000193e:	d108      	bne.n	10001952 <insert_branch_and_link+0x1e>
10001940:	0549      	lsls	r1, r1, #21
10001942:	0d49      	lsrs	r1, r1, #21
10001944:	4a06      	ldr	r2, [pc, #24]	; (10001960 <insert_branch_and_link+0x2c>)
10001946:	4311      	orrs	r1, r2
10001948:	8001      	strh	r1, [r0, #0]
1000194a:	4b06      	ldr	r3, [pc, #24]	; (10001964 <insert_branch_and_link+0x30>)
1000194c:	4323      	orrs	r3, r4
1000194e:	8043      	strh	r3, [r0, #2]
10001950:	bd10      	pop	{r4, pc}
10001952:	4b05      	ldr	r3, [pc, #20]	; (10001968 <insert_branch_and_link+0x34>)
10001954:	4a05      	ldr	r2, [pc, #20]	; (1000196c <insert_branch_and_link+0x38>)
10001956:	2193      	movs	r1, #147	; 0x93
10001958:	4805      	ldr	r0, [pc, #20]	; (10001970 <insert_branch_and_link+0x3c>)
1000195a:	f7ff fe09 	bl	10001570 <__assert_func>
1000195e:	46c0      	nop			; (mov r8, r8)
10001960:	fffff000 	.word	0xfffff000
10001964:	fffff800 	.word	0xfffff800
10001968:	10004978 	.word	0x10004978
1000196c:	10004b90 	.word	0x10004b90
10001970:	10004988 	.word	0x10004988

10001974 <irq_is_enabled>:
10001974:	2301      	movs	r3, #1
10001976:	4083      	lsls	r3, r0
10001978:	4a03      	ldr	r2, [pc, #12]	; (10001988 <irq_is_enabled+0x14>)
1000197a:	6810      	ldr	r0, [r2, #0]
1000197c:	4018      	ands	r0, r3
1000197e:	1e43      	subs	r3, r0, #1
10001980:	4198      	sbcs	r0, r3
10001982:	b2c0      	uxtb	r0, r0
10001984:	4770      	bx	lr
10001986:	46c0      	nop			; (mov r8, r8)
10001988:	e000e100 	.word	0xe000e100

1000198c <irq_set_mask_enabled>:
1000198c:	2900      	cmp	r1, #0
1000198e:	d004      	beq.n	1000199a <irq_set_mask_enabled+0xe>
10001990:	4b03      	ldr	r3, [pc, #12]	; (100019a0 <irq_set_mask_enabled+0x14>)
10001992:	6018      	str	r0, [r3, #0]
10001994:	4b03      	ldr	r3, [pc, #12]	; (100019a4 <irq_set_mask_enabled+0x18>)
10001996:	6018      	str	r0, [r3, #0]
10001998:	4770      	bx	lr
1000199a:	4b03      	ldr	r3, [pc, #12]	; (100019a8 <irq_set_mask_enabled+0x1c>)
1000199c:	6018      	str	r0, [r3, #0]
1000199e:	e7fb      	b.n	10001998 <irq_set_mask_enabled+0xc>
100019a0:	e000e280 	.word	0xe000e280
100019a4:	e000e100 	.word	0xe000e100
100019a8:	e000e180 	.word	0xe000e180

100019ac <irq_set_enabled>:
100019ac:	b510      	push	{r4, lr}
100019ae:	2301      	movs	r3, #1
100019b0:	4083      	lsls	r3, r0
100019b2:	0018      	movs	r0, r3
100019b4:	f7ff ffea 	bl	1000198c <irq_set_mask_enabled>
100019b8:	bd10      	pop	{r4, pc}
	...

100019bc <irq_get_vtable_handler>:
100019bc:	4b02      	ldr	r3, [pc, #8]	; (100019c8 <irq_get_vtable_handler+0xc>)
100019be:	689b      	ldr	r3, [r3, #8]
100019c0:	3010      	adds	r0, #16
100019c2:	0080      	lsls	r0, r0, #2
100019c4:	58c0      	ldr	r0, [r0, r3]
100019c6:	4770      	bx	lr
100019c8:	e000ed00 	.word	0xe000ed00

100019cc <irq_set_exclusive_handler>:
100019cc:	b570      	push	{r4, r5, r6, lr}
100019ce:	0004      	movs	r4, r0
100019d0:	000d      	movs	r5, r1
100019d2:	f3ef 8610 	mrs	r6, PRIMASK
100019d6:	b672      	cpsid	i
100019d8:	4b0c      	ldr	r3, [pc, #48]	; (10001a0c <irq_set_exclusive_handler+0x40>)
100019da:	681b      	ldr	r3, [r3, #0]
100019dc:	2b00      	cmp	r3, #0
100019de:	d0fb      	beq.n	100019d8 <irq_set_exclusive_handler+0xc>
100019e0:	f3bf 8f5f 	dmb	sy
100019e4:	0020      	movs	r0, r4
100019e6:	f7ff ffe9 	bl	100019bc <irq_get_vtable_handler>
100019ea:	4b09      	ldr	r3, [pc, #36]	; (10001a10 <irq_set_exclusive_handler+0x44>)
100019ec:	4298      	cmp	r0, r3
100019ee:	d001      	beq.n	100019f4 <irq_set_exclusive_handler+0x28>
100019f0:	42a8      	cmp	r0, r5
100019f2:	d105      	bne.n	10001a00 <irq_set_exclusive_handler+0x34>
100019f4:	0032      	movs	r2, r6
100019f6:	0029      	movs	r1, r5
100019f8:	0020      	movs	r0, r4
100019fa:	f7ff ff6d 	bl	100018d8 <set_raw_irq_handler_and_unlock>
100019fe:	bd70      	pop	{r4, r5, r6, pc}
10001a00:	4b04      	ldr	r3, [pc, #16]	; (10001a14 <irq_set_exclusive_handler+0x48>)
10001a02:	4a05      	ldr	r2, [pc, #20]	; (10001a18 <irq_set_exclusive_handler+0x4c>)
10001a04:	216e      	movs	r1, #110	; 0x6e
10001a06:	4805      	ldr	r0, [pc, #20]	; (10001a1c <irq_set_exclusive_handler+0x50>)
10001a08:	f7ff fdb2 	bl	10001570 <__assert_func>
10001a0c:	d0000124 	.word	0xd0000124
10001a10:	100001cd 	.word	0x100001cd
10001a14:	100049f4 	.word	0x100049f4
10001a18:	10004b68 	.word	0x10004b68
10001a1c:	10004988 	.word	0x10004988

10001a20 <irq_remove_handler>:
10001a20:	b5f0      	push	{r4, r5, r6, r7, lr}
10001a22:	46ce      	mov	lr, r9
10001a24:	4647      	mov	r7, r8
10001a26:	b580      	push	{r7, lr}
10001a28:	b083      	sub	sp, #12
10001a2a:	0006      	movs	r6, r0
10001a2c:	000d      	movs	r5, r1
10001a2e:	f3ef 8810 	mrs	r8, PRIMASK
10001a32:	b672      	cpsid	i
10001a34:	4b57      	ldr	r3, [pc, #348]	; (10001b94 <irq_remove_handler+0x174>)
10001a36:	681b      	ldr	r3, [r3, #0]
10001a38:	2b00      	cmp	r3, #0
10001a3a:	d0fb      	beq.n	10001a34 <irq_remove_handler+0x14>
10001a3c:	f3bf 8f5f 	dmb	sy
10001a40:	4b55      	ldr	r3, [pc, #340]	; (10001b98 <irq_remove_handler+0x178>)
10001a42:	689a      	ldr	r2, [r3, #8]
10001a44:	0034      	movs	r4, r6
10001a46:	3410      	adds	r4, #16
10001a48:	00a3      	lsls	r3, r4, #2
10001a4a:	58d7      	ldr	r7, [r2, r3]
10001a4c:	4b53      	ldr	r3, [pc, #332]	; (10001b9c <irq_remove_handler+0x17c>)
10001a4e:	429f      	cmp	r7, r3
10001a50:	d007      	beq.n	10001a62 <irq_remove_handler+0x42>
10001a52:	42af      	cmp	r7, r5
10001a54:	d100      	bne.n	10001a58 <irq_remove_handler+0x38>
10001a56:	e09b      	b.n	10001b90 <irq_remove_handler+0x170>
10001a58:	9701      	str	r7, [sp, #4]
10001a5a:	4b51      	ldr	r3, [pc, #324]	; (10001ba0 <irq_remove_handler+0x180>)
10001a5c:	1afb      	subs	r3, r7, r3
10001a5e:	2b2f      	cmp	r3, #47	; 0x2f
10001a60:	d909      	bls.n	10001a76 <irq_remove_handler+0x56>
10001a62:	4642      	mov	r2, r8
10001a64:	0039      	movs	r1, r7
10001a66:	0030      	movs	r0, r6
10001a68:	f7ff ff36 	bl	100018d8 <set_raw_irq_handler_and_unlock>
10001a6c:	b003      	add	sp, #12
10001a6e:	bcc0      	pop	{r6, r7}
10001a70:	46b9      	mov	r9, r7
10001a72:	46b0      	mov	r8, r6
10001a74:	bdf0      	pop	{r4, r5, r6, r7, pc}
10001a76:	0030      	movs	r0, r6
10001a78:	f7ff ff7c 	bl	10001974 <irq_is_enabled>
10001a7c:	4681      	mov	r9, r0
10001a7e:	2100      	movs	r1, #0
10001a80:	0030      	movs	r0, r6
10001a82:	f7ff ff93 	bl	100019ac <irq_set_enabled>
10001a86:	f3bf 8f5f 	dmb	sy
10001a8a:	f7fe fbec 	bl	10000266 <__get_current_exception>
10001a8e:	2800      	cmp	r0, #0
10001a90:	d001      	beq.n	10001a96 <irq_remove_handler+0x76>
10001a92:	4284      	cmp	r4, r0
10001a94:	d119      	bne.n	10001aca <irq_remove_handler+0xaa>
10001a96:	2301      	movs	r3, #1
10001a98:	9c01      	ldr	r4, [sp, #4]
10001a9a:	439c      	bics	r4, r3
10001a9c:	4941      	ldr	r1, [pc, #260]	; (10001ba4 <irq_remove_handler+0x184>)
10001a9e:	0023      	movs	r3, r4
10001aa0:	4a3f      	ldr	r2, [pc, #252]	; (10001ba0 <irq_remove_handler+0x180>)
10001aa2:	1a9b      	subs	r3, r3, r2
10001aa4:	415b      	adcs	r3, r3
10001aa6:	4359      	muls	r1, r3
10001aa8:	0d09      	lsrs	r1, r1, #20
10001aaa:	b249      	sxtb	r1, r1
10001aac:	2200      	movs	r2, #0
10001aae:	68a3      	ldr	r3, [r4, #8]
10001ab0:	42ab      	cmp	r3, r5
10001ab2:	d012      	beq.n	10001ada <irq_remove_handler+0xba>
10001ab4:	2206      	movs	r2, #6
10001ab6:	56a2      	ldrsb	r2, [r4, r2]
10001ab8:	2a00      	cmp	r2, #0
10001aba:	db0d      	blt.n	10001ad8 <irq_remove_handler+0xb8>
10001abc:	0053      	lsls	r3, r2, #1
10001abe:	189b      	adds	r3, r3, r2
10001ac0:	009b      	lsls	r3, r3, #2
10001ac2:	0022      	movs	r2, r4
10001ac4:	4c36      	ldr	r4, [pc, #216]	; (10001ba0 <irq_remove_handler+0x180>)
10001ac6:	18e4      	adds	r4, r4, r3
10001ac8:	e7f1      	b.n	10001aae <irq_remove_handler+0x8e>
10001aca:	211e      	movs	r1, #30
10001acc:	4b36      	ldr	r3, [pc, #216]	; (10001ba8 <irq_remove_handler+0x188>)
10001ace:	4a37      	ldr	r2, [pc, #220]	; (10001bac <irq_remove_handler+0x18c>)
10001ad0:	31ff      	adds	r1, #255	; 0xff
10001ad2:	4837      	ldr	r0, [pc, #220]	; (10001bb0 <irq_remove_handler+0x190>)
10001ad4:	f7ff fd4c 	bl	10001570 <__assert_func>
10001ad8:	0022      	movs	r2, r4
10001ada:	42ab      	cmp	r3, r5
10001adc:	d151      	bne.n	10001b82 <irq_remove_handler+0x162>
10001ade:	2506      	movs	r5, #6
10001ae0:	5765      	ldrsb	r5, [r4, r5]
10001ae2:	2d00      	cmp	r5, #0
10001ae4:	db39      	blt.n	10001b5a <irq_remove_handler+0x13a>
10001ae6:	006b      	lsls	r3, r5, #1
10001ae8:	195b      	adds	r3, r3, r5
10001aea:	009a      	lsls	r2, r3, #2
10001aec:	4b2c      	ldr	r3, [pc, #176]	; (10001ba0 <irq_remove_handler+0x180>)
10001aee:	189b      	adds	r3, r3, r2
10001af0:	689a      	ldr	r2, [r3, #8]
10001af2:	60a2      	str	r2, [r4, #8]
10001af4:	79da      	ldrb	r2, [r3, #7]
10001af6:	71e2      	strb	r2, [r4, #7]
10001af8:	2206      	movs	r2, #6
10001afa:	569a      	ldrsb	r2, [r3, r2]
10001afc:	71a2      	strb	r2, [r4, #6]
10001afe:	799b      	ldrb	r3, [r3, #6]
10001b00:	b25b      	sxtb	r3, r3
10001b02:	2b00      	cmp	r3, #0
10001b04:	da10      	bge.n	10001b28 <irq_remove_handler+0x108>
10001b06:	20bd      	movs	r0, #189	; 0xbd
10001b08:	0200      	lsls	r0, r0, #8
10001b0a:	80a0      	strh	r0, [r4, #4]
10001b0c:	006b      	lsls	r3, r5, #1
10001b0e:	195b      	adds	r3, r3, r5
10001b10:	009b      	lsls	r3, r3, #2
10001b12:	4a23      	ldr	r2, [pc, #140]	; (10001ba0 <irq_remove_handler+0x180>)
10001b14:	18d3      	adds	r3, r2, r3
10001b16:	4a27      	ldr	r2, [pc, #156]	; (10001bb4 <irq_remove_handler+0x194>)
10001b18:	7811      	ldrb	r1, [r2, #0]
10001b1a:	7199      	strb	r1, [r3, #6]
10001b1c:	7015      	strb	r5, [r2, #0]
10001b1e:	4649      	mov	r1, r9
10001b20:	0030      	movs	r0, r6
10001b22:	f7ff ff43 	bl	100019ac <irq_set_enabled>
10001b26:	e79c      	b.n	10001a62 <irq_remove_handler+0x42>
10001b28:	1d20      	adds	r0, r4, #4
10001b2a:	006b      	lsls	r3, r5, #1
10001b2c:	195b      	adds	r3, r3, r5
10001b2e:	009b      	lsls	r3, r3, #2
10001b30:	4a1b      	ldr	r2, [pc, #108]	; (10001ba0 <irq_remove_handler+0x180>)
10001b32:	189b      	adds	r3, r3, r2
10001b34:	1d1a      	adds	r2, r3, #4
10001b36:	889b      	ldrh	r3, [r3, #4]
10001b38:	0ad9      	lsrs	r1, r3, #11
10001b3a:	291c      	cmp	r1, #28
10001b3c:	d107      	bne.n	10001b4e <irq_remove_handler+0x12e>
10001b3e:	0559      	lsls	r1, r3, #21
10001b40:	1549      	asrs	r1, r1, #21
10001b42:	3102      	adds	r1, #2
10001b44:	0049      	lsls	r1, r1, #1
10001b46:	1851      	adds	r1, r2, r1
10001b48:	f7ff feda 	bl	10001900 <make_branch>
10001b4c:	e7dd      	b.n	10001b0a <irq_remove_handler+0xea>
10001b4e:	4b1a      	ldr	r3, [pc, #104]	; (10001bb8 <irq_remove_handler+0x198>)
10001b50:	4a1a      	ldr	r2, [pc, #104]	; (10001bbc <irq_remove_handler+0x19c>)
10001b52:	2199      	movs	r1, #153	; 0x99
10001b54:	4816      	ldr	r0, [pc, #88]	; (10001bb0 <irq_remove_handler+0x190>)
10001b56:	f7ff fd0b 	bl	10001570 <__assert_func>
10001b5a:	2800      	cmp	r0, #0
10001b5c:	d10c      	bne.n	10001b78 <irq_remove_handler+0x158>
10001b5e:	2a00      	cmp	r2, #0
10001b60:	d008      	beq.n	10001b74 <irq_remove_handler+0x154>
10001b62:	23ff      	movs	r3, #255	; 0xff
10001b64:	7193      	strb	r3, [r2, #6]
10001b66:	4b16      	ldr	r3, [pc, #88]	; (10001bc0 <irq_remove_handler+0x1a0>)
10001b68:	8093      	strh	r3, [r2, #4]
10001b6a:	4b12      	ldr	r3, [pc, #72]	; (10001bb4 <irq_remove_handler+0x194>)
10001b6c:	781a      	ldrb	r2, [r3, #0]
10001b6e:	71a2      	strb	r2, [r4, #6]
10001b70:	7019      	strb	r1, [r3, #0]
10001b72:	e7d4      	b.n	10001b1e <irq_remove_handler+0xfe>
10001b74:	4f09      	ldr	r7, [pc, #36]	; (10001b9c <irq_remove_handler+0x17c>)
10001b76:	e7f8      	b.n	10001b6a <irq_remove_handler+0x14a>
10001b78:	1d20      	adds	r0, r4, #4
10001b7a:	4912      	ldr	r1, [pc, #72]	; (10001bc4 <irq_remove_handler+0x1a4>)
10001b7c:	f7ff feda 	bl	10001934 <insert_branch_and_link>
10001b80:	e7cd      	b.n	10001b1e <irq_remove_handler+0xfe>
10001b82:	21a9      	movs	r1, #169	; 0xa9
10001b84:	4b10      	ldr	r3, [pc, #64]	; (10001bc8 <irq_remove_handler+0x1a8>)
10001b86:	4a09      	ldr	r2, [pc, #36]	; (10001bac <irq_remove_handler+0x18c>)
10001b88:	0049      	lsls	r1, r1, #1
10001b8a:	4809      	ldr	r0, [pc, #36]	; (10001bb0 <irq_remove_handler+0x190>)
10001b8c:	f7ff fcf0 	bl	10001570 <__assert_func>
10001b90:	4f02      	ldr	r7, [pc, #8]	; (10001b9c <irq_remove_handler+0x17c>)
10001b92:	e766      	b.n	10001a62 <irq_remove_handler+0x42>
10001b94:	d0000124 	.word	0xd0000124
10001b98:	e000ed00 	.word	0xe000ed00
10001b9c:	100001cd 	.word	0x100001cd
10001ba0:	200001dc 	.word	0x200001dc
10001ba4:	0000aaaa 	.word	0x0000aaaa
10001ba8:	10004b08 	.word	0x10004b08
10001bac:	10004bb8 	.word	0x10004bb8
10001bb0:	10004988 	.word	0x10004988
10001bb4:	20000435 	.word	0x20000435
10001bb8:	10004af0 	.word	0x10004af0
10001bbc:	10004ba8 	.word	0x10004ba8
10001bc0:	ffffbd00 	.word	0xffffbd00
10001bc4:	20000216 	.word	0x20000216
10001bc8:	10004b2c 	.word	0x10004b2c

10001bcc <irq_add_tail_to_free_list>:
10001bcc:	b5f8      	push	{r3, r4, r5, r6, r7, lr}
10001bce:	0004      	movs	r4, r0
10001bd0:	2601      	movs	r6, #1
10001bd2:	4306      	orrs	r6, r0
10001bd4:	4b2d      	ldr	r3, [pc, #180]	; (10001c8c <irq_add_tail_to_free_list+0xc0>)
10001bd6:	1af3      	subs	r3, r6, r3
10001bd8:	2b2f      	cmp	r3, #47	; 0x2f
10001bda:	d828      	bhi.n	10001c2e <irq_add_tail_to_free_list+0x62>
10001bdc:	f7fe fb43 	bl	10000266 <__get_current_exception>
10001be0:	2800      	cmp	r0, #0
10001be2:	d02b      	beq.n	10001c3c <irq_add_tail_to_free_list+0x70>
10001be4:	f3ef 8710 	mrs	r7, PRIMASK
10001be8:	b672      	cpsid	i
10001bea:	4b29      	ldr	r3, [pc, #164]	; (10001c90 <irq_add_tail_to_free_list+0xc4>)
10001bec:	681b      	ldr	r3, [r3, #0]
10001bee:	2b00      	cmp	r3, #0
10001bf0:	d0fb      	beq.n	10001bea <irq_add_tail_to_free_list+0x1e>
10001bf2:	f3bf 8f5f 	dmb	sy
10001bf6:	4d27      	ldr	r5, [pc, #156]	; (10001c94 <irq_add_tail_to_free_list+0xc8>)
10001bf8:	0022      	movs	r2, r4
10001bfa:	4924      	ldr	r1, [pc, #144]	; (10001c8c <irq_add_tail_to_free_list+0xc0>)
10001bfc:	1a52      	subs	r2, r2, r1
10001bfe:	4152      	adcs	r2, r2
10001c00:	4355      	muls	r5, r2
10001c02:	0d2d      	lsrs	r5, r5, #20
10001c04:	b26d      	sxtb	r5, r5
10001c06:	4b24      	ldr	r3, [pc, #144]	; (10001c98 <irq_add_tail_to_free_list+0xcc>)
10001c08:	689b      	ldr	r3, [r3, #8]
10001c0a:	0080      	lsls	r0, r0, #2
10001c0c:	581b      	ldr	r3, [r3, r0]
10001c0e:	42b3      	cmp	r3, r6
10001c10:	d01b      	beq.n	10001c4a <irq_add_tail_to_free_list+0x7e>
10001c12:	2200      	movs	r2, #0
10001c14:	2a03      	cmp	r2, #3
10001c16:	d832      	bhi.n	10001c7e <irq_add_tail_to_free_list+0xb2>
10001c18:	0053      	lsls	r3, r2, #1
10001c1a:	189b      	adds	r3, r3, r2
10001c1c:	009b      	lsls	r3, r3, #2
10001c1e:	491b      	ldr	r1, [pc, #108]	; (10001c8c <irq_add_tail_to_free_list+0xc0>)
10001c20:	18cb      	adds	r3, r1, r3
10001c22:	799b      	ldrb	r3, [r3, #6]
10001c24:	b25b      	sxtb	r3, r3
10001c26:	42ab      	cmp	r3, r5
10001c28:	d01f      	beq.n	10001c6a <irq_add_tail_to_free_list+0x9e>
10001c2a:	3201      	adds	r2, #1
10001c2c:	e7f2      	b.n	10001c14 <irq_add_tail_to_free_list+0x48>
10001c2e:	2178      	movs	r1, #120	; 0x78
10001c30:	4b1a      	ldr	r3, [pc, #104]	; (10001c9c <irq_add_tail_to_free_list+0xd0>)
10001c32:	4a1b      	ldr	r2, [pc, #108]	; (10001ca0 <irq_add_tail_to_free_list+0xd4>)
10001c34:	31ff      	adds	r1, #255	; 0xff
10001c36:	481b      	ldr	r0, [pc, #108]	; (10001ca4 <irq_add_tail_to_free_list+0xd8>)
10001c38:	f7ff fc9a 	bl	10001570 <__assert_func>
10001c3c:	21bd      	movs	r1, #189	; 0xbd
10001c3e:	4b1a      	ldr	r3, [pc, #104]	; (10001ca8 <irq_add_tail_to_free_list+0xdc>)
10001c40:	4a17      	ldr	r2, [pc, #92]	; (10001ca0 <irq_add_tail_to_free_list+0xd4>)
10001c42:	0049      	lsls	r1, r1, #1
10001c44:	4817      	ldr	r0, [pc, #92]	; (10001ca4 <irq_add_tail_to_free_list+0xd8>)
10001c46:	f7ff fc93 	bl	10001570 <__assert_func>
10001c4a:	4b13      	ldr	r3, [pc, #76]	; (10001c98 <irq_add_tail_to_free_list+0xcc>)
10001c4c:	689b      	ldr	r3, [r3, #8]
10001c4e:	4a17      	ldr	r2, [pc, #92]	; (10001cac <irq_add_tail_to_free_list+0xe0>)
10001c50:	501a      	str	r2, [r3, r0]
10001c52:	4b17      	ldr	r3, [pc, #92]	; (10001cb0 <irq_add_tail_to_free_list+0xe4>)
10001c54:	781a      	ldrb	r2, [r3, #0]
10001c56:	71a2      	strb	r2, [r4, #6]
10001c58:	701d      	strb	r5, [r3, #0]
10001c5a:	f3bf 8f5f 	dmb	sy
10001c5e:	4b0c      	ldr	r3, [pc, #48]	; (10001c90 <irq_add_tail_to_free_list+0xc4>)
10001c60:	2200      	movs	r2, #0
10001c62:	601a      	str	r2, [r3, #0]
10001c64:	f387 8810 	msr	PRIMASK, r7
10001c68:	bdf8      	pop	{r3, r4, r5, r6, r7, pc}
10001c6a:	0008      	movs	r0, r1
10001c6c:	0053      	lsls	r3, r2, #1
10001c6e:	1899      	adds	r1, r3, r2
10001c70:	0089      	lsls	r1, r1, #2
10001c72:	1841      	adds	r1, r0, r1
10001c74:	26ff      	movs	r6, #255	; 0xff
10001c76:	718e      	strb	r6, [r1, #6]
10001c78:	4a0e      	ldr	r2, [pc, #56]	; (10001cb4 <irq_add_tail_to_free_list+0xe8>)
10001c7a:	808a      	strh	r2, [r1, #4]
10001c7c:	e7e9      	b.n	10001c52 <irq_add_tail_to_free_list+0x86>
10001c7e:	218c      	movs	r1, #140	; 0x8c
10001c80:	4b0d      	ldr	r3, [pc, #52]	; (10001cb8 <irq_add_tail_to_free_list+0xec>)
10001c82:	4a07      	ldr	r2, [pc, #28]	; (10001ca0 <irq_add_tail_to_free_list+0xd4>)
10001c84:	31ff      	adds	r1, #255	; 0xff
10001c86:	4807      	ldr	r0, [pc, #28]	; (10001ca4 <irq_add_tail_to_free_list+0xd8>)
10001c88:	f7ff fc72 	bl	10001570 <__assert_func>
10001c8c:	200001dc 	.word	0x200001dc
10001c90:	d0000124 	.word	0xd0000124
10001c94:	0000aaaa 	.word	0x0000aaaa
10001c98:	e000ed00 	.word	0xe000ed00
10001c9c:	10004b34 	.word	0x10004b34
10001ca0:	10004bcc 	.word	0x10004bcc
10001ca4:	10004988 	.word	0x10004988
10001ca8:	10004b5c 	.word	0x10004b5c
10001cac:	100001cd 	.word	0x100001cd
10001cb0:	20000435 	.word	0x20000435
10001cb4:	ffffbd00 	.word	0xffffbd00
10001cb8:	1000477c 	.word	0x1000477c

10001cbc <irq_init_priorities>:
10001cbc:	2200      	movs	r2, #0
10001cbe:	4b04      	ldr	r3, [pc, #16]	; (10001cd0 <irq_init_priorities+0x14>)
10001cc0:	e002      	b.n	10001cc8 <irq_init_priorities+0xc>
10001cc2:	4904      	ldr	r1, [pc, #16]	; (10001cd4 <irq_init_priorities+0x18>)
10001cc4:	c302      	stmia	r3!, {r1}
10001cc6:	3201      	adds	r2, #1
10001cc8:	2a07      	cmp	r2, #7
10001cca:	d9fa      	bls.n	10001cc2 <irq_init_priorities+0x6>
10001ccc:	4770      	bx	lr
10001cce:	46c0      	nop			; (mov r8, r8)
10001cd0:	e000e400 	.word	0xe000e400
10001cd4:	80808080 	.word	0x80808080

10001cd8 <pll_init>:
10001cd8:	b5f0      	push	{r4, r5, r6, r7, lr}
10001cda:	46ce      	mov	lr, r9
10001cdc:	b500      	push	{lr}
10001cde:	0004      	movs	r4, r0
10001ce0:	000e      	movs	r6, r1
10001ce2:	4691      	mov	r9, r2
10001ce4:	001f      	movs	r7, r3
10001ce6:	200c      	movs	r0, #12
10001ce8:	f001 f996 	bl	10003018 <__wrap___aeabi_uidiv>
10001cec:	0005      	movs	r5, r0
10001cee:	0143      	lsls	r3, r0, #5
10001cf0:	1a1b      	subs	r3, r3, r0
10001cf2:	0199      	lsls	r1, r3, #6
10001cf4:	1ac9      	subs	r1, r1, r3
10001cf6:	00c9      	lsls	r1, r1, #3
10001cf8:	1809      	adds	r1, r1, r0
10001cfa:	0189      	lsls	r1, r1, #6
10001cfc:	4648      	mov	r0, r9
10001cfe:	f001 f98b 	bl	10003018 <__wrap___aeabi_uidiv>
10001d02:	0002      	movs	r2, r0
10001d04:	3a10      	subs	r2, #16
10001d06:	2398      	movs	r3, #152	; 0x98
10001d08:	005b      	lsls	r3, r3, #1
10001d0a:	429a      	cmp	r2, r3
10001d0c:	d833      	bhi.n	10001d76 <pll_init+0x9e>
10001d0e:	1e7b      	subs	r3, r7, #1
10001d10:	2b06      	cmp	r3, #6
10001d12:	d836      	bhi.n	10001d82 <pll_init+0xaa>
10001d14:	9b06      	ldr	r3, [sp, #24]
10001d16:	3b01      	subs	r3, #1
10001d18:	2b06      	cmp	r3, #6
10001d1a:	d832      	bhi.n	10001d82 <pll_init+0xaa>
10001d1c:	9b06      	ldr	r3, [sp, #24]
10001d1e:	429f      	cmp	r7, r3
10001d20:	d335      	bcc.n	10001d8e <pll_init+0xb6>
10001d22:	464b      	mov	r3, r9
10001d24:	091a      	lsrs	r2, r3, #4
10001d26:	42aa      	cmp	r2, r5
10001d28:	d337      	bcc.n	10001d9a <pll_init+0xc2>
10001d2a:	043f      	lsls	r7, r7, #16
10001d2c:	9b06      	ldr	r3, [sp, #24]
10001d2e:	031d      	lsls	r5, r3, #12
10001d30:	432f      	orrs	r7, r5
10001d32:	6823      	ldr	r3, [r4, #0]
10001d34:	2b00      	cmp	r3, #0
10001d36:	db36      	blt.n	10001da6 <pll_init+0xce>
10001d38:	4b23      	ldr	r3, [pc, #140]	; (10001dc8 <pll_init+0xf0>)
10001d3a:	429c      	cmp	r4, r3
10001d3c:	d041      	beq.n	10001dc2 <pll_init+0xea>
10001d3e:	2580      	movs	r5, #128	; 0x80
10001d40:	016d      	lsls	r5, r5, #5
10001d42:	4b22      	ldr	r3, [pc, #136]	; (10001dcc <pll_init+0xf4>)
10001d44:	601d      	str	r5, [r3, #0]
10001d46:	4b22      	ldr	r3, [pc, #136]	; (10001dd0 <pll_init+0xf8>)
10001d48:	601d      	str	r5, [r3, #0]
10001d4a:	4a22      	ldr	r2, [pc, #136]	; (10001dd4 <pll_init+0xfc>)
10001d4c:	6892      	ldr	r2, [r2, #8]
10001d4e:	002b      	movs	r3, r5
10001d50:	4393      	bics	r3, r2
10001d52:	d1fa      	bne.n	10001d4a <pll_init+0x72>
10001d54:	6026      	str	r6, [r4, #0]
10001d56:	60a0      	str	r0, [r4, #8]
10001d58:	1d22      	adds	r2, r4, #4
10001d5a:	23c0      	movs	r3, #192	; 0xc0
10001d5c:	019b      	lsls	r3, r3, #6
10001d5e:	4313      	orrs	r3, r2
10001d60:	2221      	movs	r2, #33	; 0x21
10001d62:	601a      	str	r2, [r3, #0]
10001d64:	6822      	ldr	r2, [r4, #0]
10001d66:	2a00      	cmp	r2, #0
10001d68:	dafc      	bge.n	10001d64 <pll_init+0x8c>
10001d6a:	60e7      	str	r7, [r4, #12]
10001d6c:	2208      	movs	r2, #8
10001d6e:	601a      	str	r2, [r3, #0]
10001d70:	bc80      	pop	{r7}
10001d72:	46b9      	mov	r9, r7
10001d74:	bdf0      	pop	{r4, r5, r6, r7, pc}
10001d76:	4b18      	ldr	r3, [pc, #96]	; (10001dd8 <pll_init+0x100>)
10001d78:	4a18      	ldr	r2, [pc, #96]	; (10001ddc <pll_init+0x104>)
10001d7a:	2116      	movs	r1, #22
10001d7c:	4818      	ldr	r0, [pc, #96]	; (10001de0 <pll_init+0x108>)
10001d7e:	f7ff fbf7 	bl	10001570 <__assert_func>
10001d82:	4b18      	ldr	r3, [pc, #96]	; (10001de4 <pll_init+0x10c>)
10001d84:	4a15      	ldr	r2, [pc, #84]	; (10001ddc <pll_init+0x104>)
10001d86:	2119      	movs	r1, #25
10001d88:	4815      	ldr	r0, [pc, #84]	; (10001de0 <pll_init+0x108>)
10001d8a:	f7ff fbf1 	bl	10001570 <__assert_func>
10001d8e:	4b16      	ldr	r3, [pc, #88]	; (10001de8 <pll_init+0x110>)
10001d90:	4a12      	ldr	r2, [pc, #72]	; (10001ddc <pll_init+0x104>)
10001d92:	211f      	movs	r1, #31
10001d94:	4812      	ldr	r0, [pc, #72]	; (10001de0 <pll_init+0x108>)
10001d96:	f7ff fbeb 	bl	10001570 <__assert_func>
10001d9a:	4b14      	ldr	r3, [pc, #80]	; (10001dec <pll_init+0x114>)
10001d9c:	4a0f      	ldr	r2, [pc, #60]	; (10001ddc <pll_init+0x104>)
10001d9e:	2122      	movs	r1, #34	; 0x22
10001da0:	480f      	ldr	r0, [pc, #60]	; (10001de0 <pll_init+0x108>)
10001da2:	f7ff fbe5 	bl	10001570 <__assert_func>
10001da6:	6822      	ldr	r2, [r4, #0]
10001da8:	233f      	movs	r3, #63	; 0x3f
10001daa:	4013      	ands	r3, r2
10001dac:	42b3      	cmp	r3, r6
10001dae:	d1c3      	bne.n	10001d38 <pll_init+0x60>
10001db0:	68a3      	ldr	r3, [r4, #8]
10001db2:	051b      	lsls	r3, r3, #20
10001db4:	0d1b      	lsrs	r3, r3, #20
10001db6:	4283      	cmp	r3, r0
10001db8:	d1be      	bne.n	10001d38 <pll_init+0x60>
10001dba:	68e3      	ldr	r3, [r4, #12]
10001dbc:	2f00      	cmp	r7, #0
10001dbe:	d1bb      	bne.n	10001d38 <pll_init+0x60>
10001dc0:	e7d6      	b.n	10001d70 <pll_init+0x98>
10001dc2:	2580      	movs	r5, #128	; 0x80
10001dc4:	01ad      	lsls	r5, r5, #6
10001dc6:	e7bc      	b.n	10001d42 <pll_init+0x6a>
10001dc8:	4002c000 	.word	0x4002c000
10001dcc:	4000e000 	.word	0x4000e000
10001dd0:	4000f000 	.word	0x4000f000
10001dd4:	4000c000 	.word	0x4000c000
10001dd8:	10004be8 	.word	0x10004be8
10001ddc:	10004cf0 	.word	0x10004cf0
10001de0:	10004c04 	.word	0x10004c04
10001de4:	10004c70 	.word	0x10004c70
10001de8:	10004cbc 	.word	0x10004cbc
10001dec:	10004cd4 	.word	0x10004cd4

10001df0 <watchdog_start_tick>:
10001df0:	2380      	movs	r3, #128	; 0x80
10001df2:	009b      	lsls	r3, r3, #2
10001df4:	4303      	orrs	r3, r0
10001df6:	4a01      	ldr	r2, [pc, #4]	; (10001dfc <watchdog_start_tick+0xc>)
10001df8:	62d3      	str	r3, [r2, #44]	; 0x2c
10001dfa:	4770      	bx	lr
10001dfc:	40058000 	.word	0x40058000

10001e00 <xosc_init>:
10001e00:	4b06      	ldr	r3, [pc, #24]	; (10001e1c <xosc_init+0x1c>)
10001e02:	22aa      	movs	r2, #170	; 0xaa
10001e04:	0112      	lsls	r2, r2, #4
10001e06:	601a      	str	r2, [r3, #0]
10001e08:	222f      	movs	r2, #47	; 0x2f
10001e0a:	60da      	str	r2, [r3, #12]
10001e0c:	4b04      	ldr	r3, [pc, #16]	; (10001e20 <xosc_init+0x20>)
10001e0e:	4a05      	ldr	r2, [pc, #20]	; (10001e24 <xosc_init+0x24>)
10001e10:	601a      	str	r2, [r3, #0]
10001e12:	4b02      	ldr	r3, [pc, #8]	; (10001e1c <xosc_init+0x1c>)
10001e14:	685b      	ldr	r3, [r3, #4]
10001e16:	2b00      	cmp	r3, #0
10001e18:	dafb      	bge.n	10001e12 <xosc_init+0x12>
10001e1a:	4770      	bx	lr
10001e1c:	40024000 	.word	0x40024000
10001e20:	40026000 	.word	0x40026000
10001e24:	00fab000 	.word	0x00fab000

10001e28 <_out_null>:
10001e28:	4770      	bx	lr

10001e2a <_out_fct>:
10001e2a:	b510      	push	{r4, lr}
10001e2c:	2800      	cmp	r0, #0
10001e2e:	d002      	beq.n	10001e36 <_out_fct+0xc>
10001e30:	680b      	ldr	r3, [r1, #0]
10001e32:	6849      	ldr	r1, [r1, #4]
10001e34:	4798      	blx	r3
10001e36:	bd10      	pop	{r4, pc}

10001e38 <_atoi>:
10001e38:	0001      	movs	r1, r0
10001e3a:	2000      	movs	r0, #0
10001e3c:	680a      	ldr	r2, [r1, #0]
10001e3e:	7813      	ldrb	r3, [r2, #0]
10001e40:	3b30      	subs	r3, #48	; 0x30
10001e42:	b2db      	uxtb	r3, r3
10001e44:	2b09      	cmp	r3, #9
10001e46:	d808      	bhi.n	10001e5a <_atoi+0x22>
10001e48:	0083      	lsls	r3, r0, #2
10001e4a:	181b      	adds	r3, r3, r0
10001e4c:	005b      	lsls	r3, r3, #1
10001e4e:	1c50      	adds	r0, r2, #1
10001e50:	6008      	str	r0, [r1, #0]
10001e52:	7810      	ldrb	r0, [r2, #0]
10001e54:	18c0      	adds	r0, r0, r3
10001e56:	3830      	subs	r0, #48	; 0x30
10001e58:	e7f0      	b.n	10001e3c <_atoi+0x4>
10001e5a:	4770      	bx	lr

10001e5c <_out_rev>:
10001e5c:	b5f0      	push	{r4, r5, r6, r7, lr}
10001e5e:	46de      	mov	lr, fp
10001e60:	4657      	mov	r7, sl
10001e62:	464e      	mov	r6, r9
10001e64:	4645      	mov	r5, r8
10001e66:	b5e0      	push	{r5, r6, r7, lr}
10001e68:	b083      	sub	sp, #12
10001e6a:	4693      	mov	fp, r2
10001e6c:	001f      	movs	r7, r3
10001e6e:	9b0c      	ldr	r3, [sp, #48]	; 0x30
10001e70:	469a      	mov	sl, r3
10001e72:	9c0d      	ldr	r4, [sp, #52]	; 0x34
10001e74:	9b0e      	ldr	r3, [sp, #56]	; 0x38
10001e76:	4699      	mov	r9, r3
10001e78:	9b0f      	ldr	r3, [sp, #60]	; 0x3c
10001e7a:	079b      	lsls	r3, r3, #30
10001e7c:	d003      	beq.n	10001e86 <_out_rev+0x2a>
10001e7e:	46b8      	mov	r8, r7
10001e80:	000f      	movs	r7, r1
10001e82:	0006      	movs	r6, r0
10001e84:	e022      	b.n	10001ecc <_out_rev+0x70>
10001e86:	9201      	str	r2, [sp, #4]
10001e88:	46a3      	mov	fp, r4
10001e8a:	4688      	mov	r8, r1
10001e8c:	464e      	mov	r6, r9
10001e8e:	46b9      	mov	r9, r7
10001e90:	0007      	movs	r7, r0
10001e92:	42b4      	cmp	r4, r6
10001e94:	d207      	bcs.n	10001ea6 <_out_rev+0x4a>
10001e96:	1c55      	adds	r5, r2, #1
10001e98:	464b      	mov	r3, r9
10001e9a:	4641      	mov	r1, r8
10001e9c:	2020      	movs	r0, #32
10001e9e:	47b8      	blx	r7
10001ea0:	3401      	adds	r4, #1
10001ea2:	002a      	movs	r2, r5
10001ea4:	e7f5      	b.n	10001e92 <_out_rev+0x36>
10001ea6:	003d      	movs	r5, r7
10001ea8:	464f      	mov	r7, r9
10001eaa:	465c      	mov	r4, fp
10001eac:	9b01      	ldr	r3, [sp, #4]
10001eae:	469b      	mov	fp, r3
10001eb0:	46b1      	mov	r9, r6
10001eb2:	4646      	mov	r6, r8
10001eb4:	46b8      	mov	r8, r7
10001eb6:	0037      	movs	r7, r6
10001eb8:	002e      	movs	r6, r5
10001eba:	e007      	b.n	10001ecc <_out_rev+0x70>
10001ebc:	3c01      	subs	r4, #1
10001ebe:	1c55      	adds	r5, r2, #1
10001ec0:	4653      	mov	r3, sl
10001ec2:	5d18      	ldrb	r0, [r3, r4]
10001ec4:	4643      	mov	r3, r8
10001ec6:	0039      	movs	r1, r7
10001ec8:	47b0      	blx	r6
10001eca:	002a      	movs	r2, r5
10001ecc:	2c00      	cmp	r4, #0
10001ece:	d1f5      	bne.n	10001ebc <_out_rev+0x60>
10001ed0:	0035      	movs	r5, r6
10001ed2:	003e      	movs	r6, r7
10001ed4:	4647      	mov	r7, r8
10001ed6:	9b0f      	ldr	r3, [sp, #60]	; 0x3c
10001ed8:	079b      	lsls	r3, r3, #30
10001eda:	d407      	bmi.n	10001eec <_out_rev+0x90>
10001edc:	0010      	movs	r0, r2
10001ede:	b003      	add	sp, #12
10001ee0:	bcf0      	pop	{r4, r5, r6, r7}
10001ee2:	46bb      	mov	fp, r7
10001ee4:	46b2      	mov	sl, r6
10001ee6:	46a9      	mov	r9, r5
10001ee8:	46a0      	mov	r8, r4
10001eea:	bdf0      	pop	{r4, r5, r6, r7, pc}
10001eec:	46b0      	mov	r8, r6
10001eee:	464e      	mov	r6, r9
10001ef0:	46b9      	mov	r9, r7
10001ef2:	002f      	movs	r7, r5
10001ef4:	465d      	mov	r5, fp
10001ef6:	1b53      	subs	r3, r2, r5
10001ef8:	42b3      	cmp	r3, r6
10001efa:	d2ef      	bcs.n	10001edc <_out_rev+0x80>
10001efc:	1c54      	adds	r4, r2, #1
10001efe:	464b      	mov	r3, r9
10001f00:	4641      	mov	r1, r8
10001f02:	2020      	movs	r0, #32
10001f04:	47b8      	blx	r7
10001f06:	0022      	movs	r2, r4
10001f08:	e7f5      	b.n	10001ef6 <_out_rev+0x9a>

10001f0a <_ntoa_format>:
10001f0a:	b5f0      	push	{r4, r5, r6, r7, lr}
10001f0c:	46ce      	mov	lr, r9
10001f0e:	4647      	mov	r7, r8
10001f10:	b580      	push	{r7, lr}
10001f12:	b085      	sub	sp, #20
10001f14:	4694      	mov	ip, r2
10001f16:	4698      	mov	r8, r3
10001f18:	9d0c      	ldr	r5, [sp, #48]	; 0x30
10001f1a:	9c0d      	ldr	r4, [sp, #52]	; 0x34
10001f1c:	ab0e      	add	r3, sp, #56	; 0x38
10001f1e:	781b      	ldrb	r3, [r3, #0]
10001f20:	4699      	mov	r9, r3
10001f22:	9a10      	ldr	r2, [sp, #64]	; 0x40
10001f24:	9b11      	ldr	r3, [sp, #68]	; 0x44
10001f26:	9e12      	ldr	r6, [sp, #72]	; 0x48
10001f28:	07b7      	lsls	r7, r6, #30
10001f2a:	d41b      	bmi.n	10001f64 <_ntoa_format+0x5a>
10001f2c:	2b00      	cmp	r3, #0
10001f2e:	d008      	beq.n	10001f42 <_ntoa_format+0x38>
10001f30:	07f7      	lsls	r7, r6, #31
10001f32:	d506      	bpl.n	10001f42 <_ntoa_format+0x38>
10001f34:	464f      	mov	r7, r9
10001f36:	2f00      	cmp	r7, #0
10001f38:	d102      	bne.n	10001f40 <_ntoa_format+0x36>
10001f3a:	370c      	adds	r7, #12
10001f3c:	4237      	tst	r7, r6
10001f3e:	d000      	beq.n	10001f42 <_ntoa_format+0x38>
10001f40:	3b01      	subs	r3, #1
10001f42:	4294      	cmp	r4, r2
10001f44:	d208      	bcs.n	10001f58 <_ntoa_format+0x4e>
10001f46:	2c1f      	cmp	r4, #31
10001f48:	d806      	bhi.n	10001f58 <_ntoa_format+0x4e>
10001f4a:	2730      	movs	r7, #48	; 0x30
10001f4c:	552f      	strb	r7, [r5, r4]
10001f4e:	3401      	adds	r4, #1
10001f50:	e7f7      	b.n	10001f42 <_ntoa_format+0x38>
10001f52:	2730      	movs	r7, #48	; 0x30
10001f54:	552f      	strb	r7, [r5, r4]
10001f56:	3401      	adds	r4, #1
10001f58:	07f7      	lsls	r7, r6, #31
10001f5a:	d503      	bpl.n	10001f64 <_ntoa_format+0x5a>
10001f5c:	429c      	cmp	r4, r3
10001f5e:	d201      	bcs.n	10001f64 <_ntoa_format+0x5a>
10001f60:	2c1f      	cmp	r4, #31
10001f62:	d9f6      	bls.n	10001f52 <_ntoa_format+0x48>
10001f64:	06f7      	lsls	r7, r6, #27
10001f66:	d515      	bpl.n	10001f94 <_ntoa_format+0x8a>
10001f68:	0577      	lsls	r7, r6, #21
10001f6a:	d405      	bmi.n	10001f78 <_ntoa_format+0x6e>
10001f6c:	2c00      	cmp	r4, #0
10001f6e:	d003      	beq.n	10001f78 <_ntoa_format+0x6e>
10001f70:	4294      	cmp	r4, r2
10001f72:	d024      	beq.n	10001fbe <_ntoa_format+0xb4>
10001f74:	429c      	cmp	r4, r3
10001f76:	d022      	beq.n	10001fbe <_ntoa_format+0xb4>
10001f78:	9a0f      	ldr	r2, [sp, #60]	; 0x3c
10001f7a:	2a10      	cmp	r2, #16
10001f7c:	d02b      	beq.n	10001fd6 <_ntoa_format+0xcc>
10001f7e:	9a0f      	ldr	r2, [sp, #60]	; 0x3c
10001f80:	2a10      	cmp	r2, #16
10001f82:	d030      	beq.n	10001fe6 <_ntoa_format+0xdc>
10001f84:	9a0f      	ldr	r2, [sp, #60]	; 0x3c
10001f86:	2a02      	cmp	r2, #2
10001f88:	d035      	beq.n	10001ff6 <_ntoa_format+0xec>
10001f8a:	2c1f      	cmp	r4, #31
10001f8c:	d802      	bhi.n	10001f94 <_ntoa_format+0x8a>
10001f8e:	2230      	movs	r2, #48	; 0x30
10001f90:	552a      	strb	r2, [r5, r4]
10001f92:	3401      	adds	r4, #1
10001f94:	2c1f      	cmp	r4, #31
10001f96:	d805      	bhi.n	10001fa4 <_ntoa_format+0x9a>
10001f98:	464a      	mov	r2, r9
10001f9a:	2a00      	cmp	r2, #0
10001f9c:	d031      	beq.n	10002002 <_ntoa_format+0xf8>
10001f9e:	222d      	movs	r2, #45	; 0x2d
10001fa0:	552a      	strb	r2, [r5, r4]
10001fa2:	3401      	adds	r4, #1
10001fa4:	9603      	str	r6, [sp, #12]
10001fa6:	9302      	str	r3, [sp, #8]
10001fa8:	9401      	str	r4, [sp, #4]
10001faa:	9500      	str	r5, [sp, #0]
10001fac:	4643      	mov	r3, r8
10001fae:	4662      	mov	r2, ip
10001fb0:	f7ff ff54 	bl	10001e5c <_out_rev>
10001fb4:	b005      	add	sp, #20
10001fb6:	bcc0      	pop	{r6, r7}
10001fb8:	46b9      	mov	r9, r7
10001fba:	46b0      	mov	r8, r6
10001fbc:	bdf0      	pop	{r4, r5, r6, r7, pc}
10001fbe:	1e62      	subs	r2, r4, #1
10001fc0:	2c01      	cmp	r4, #1
10001fc2:	d006      	beq.n	10001fd2 <_ntoa_format+0xc8>
10001fc4:	9f0f      	ldr	r7, [sp, #60]	; 0x3c
10001fc6:	2f10      	cmp	r7, #16
10001fc8:	d001      	beq.n	10001fce <_ntoa_format+0xc4>
10001fca:	0014      	movs	r4, r2
10001fcc:	e7d4      	b.n	10001f78 <_ntoa_format+0x6e>
10001fce:	3c02      	subs	r4, #2
10001fd0:	e7d2      	b.n	10001f78 <_ntoa_format+0x6e>
10001fd2:	0014      	movs	r4, r2
10001fd4:	e7d0      	b.n	10001f78 <_ntoa_format+0x6e>
10001fd6:	06b2      	lsls	r2, r6, #26
10001fd8:	d4d1      	bmi.n	10001f7e <_ntoa_format+0x74>
10001fda:	2c1f      	cmp	r4, #31
10001fdc:	d8cf      	bhi.n	10001f7e <_ntoa_format+0x74>
10001fde:	2278      	movs	r2, #120	; 0x78
10001fe0:	552a      	strb	r2, [r5, r4]
10001fe2:	3401      	adds	r4, #1
10001fe4:	e7d1      	b.n	10001f8a <_ntoa_format+0x80>
10001fe6:	06b2      	lsls	r2, r6, #26
10001fe8:	d5cc      	bpl.n	10001f84 <_ntoa_format+0x7a>
10001fea:	2c1f      	cmp	r4, #31
10001fec:	d8ca      	bhi.n	10001f84 <_ntoa_format+0x7a>
10001fee:	2258      	movs	r2, #88	; 0x58
10001ff0:	552a      	strb	r2, [r5, r4]
10001ff2:	3401      	adds	r4, #1
10001ff4:	e7c9      	b.n	10001f8a <_ntoa_format+0x80>
10001ff6:	2c1f      	cmp	r4, #31
10001ff8:	d8c7      	bhi.n	10001f8a <_ntoa_format+0x80>
10001ffa:	3260      	adds	r2, #96	; 0x60
10001ffc:	552a      	strb	r2, [r5, r4]
10001ffe:	3401      	adds	r4, #1
10002000:	e7c3      	b.n	10001f8a <_ntoa_format+0x80>
10002002:	0772      	lsls	r2, r6, #29
10002004:	d503      	bpl.n	1000200e <_ntoa_format+0x104>
10002006:	222b      	movs	r2, #43	; 0x2b
10002008:	552a      	strb	r2, [r5, r4]
1000200a:	3401      	adds	r4, #1
1000200c:	e7ca      	b.n	10001fa4 <_ntoa_format+0x9a>
1000200e:	0732      	lsls	r2, r6, #28
10002010:	d5c8      	bpl.n	10001fa4 <_ntoa_format+0x9a>
10002012:	2220      	movs	r2, #32
10002014:	552a      	strb	r2, [r5, r4]
10002016:	3401      	adds	r4, #1
10002018:	e7c4      	b.n	10001fa4 <_ntoa_format+0x9a>

1000201a <_ntoa_long>:
1000201a:	b5f0      	push	{r4, r5, r6, r7, lr}
1000201c:	46de      	mov	lr, fp
1000201e:	4657      	mov	r7, sl
10002020:	464e      	mov	r6, r9
10002022:	4645      	mov	r5, r8
10002024:	b5e0      	push	{r5, r6, r7, lr}
10002026:	b093      	sub	sp, #76	; 0x4c
10002028:	4681      	mov	r9, r0
1000202a:	468a      	mov	sl, r1
1000202c:	9208      	str	r2, [sp, #32]
1000202e:	9309      	str	r3, [sp, #36]	; 0x24
10002030:	ab1c      	add	r3, sp, #112	; 0x70
10002032:	cb10      	ldmia	r3!, {r4}
10002034:	781b      	ldrb	r3, [r3, #0]
10002036:	469b      	mov	fp, r3
10002038:	9d1e      	ldr	r5, [sp, #120]	; 0x78
1000203a:	9b21      	ldr	r3, [sp, #132]	; 0x84
1000203c:	4698      	mov	r8, r3
1000203e:	2c00      	cmp	r4, #0
10002040:	d103      	bne.n	1000204a <_ntoa_long+0x30>
10002042:	2310      	movs	r3, #16
10002044:	4642      	mov	r2, r8
10002046:	439a      	bics	r2, r3
10002048:	4690      	mov	r8, r2
1000204a:	2380      	movs	r3, #128	; 0x80
1000204c:	00db      	lsls	r3, r3, #3
1000204e:	4646      	mov	r6, r8
10002050:	401e      	ands	r6, r3
10002052:	4642      	mov	r2, r8
10002054:	421a      	tst	r2, r3
10002056:	d012      	beq.n	1000207e <_ntoa_long+0x64>
10002058:	2c00      	cmp	r4, #0
1000205a:	d022      	beq.n	100020a2 <_ntoa_long+0x88>
1000205c:	2600      	movs	r6, #0
1000205e:	e00e      	b.n	1000207e <_ntoa_long+0x64>
10002060:	3330      	adds	r3, #48	; 0x30
10002062:	b2d9      	uxtb	r1, r3
10002064:	1c77      	adds	r7, r6, #1
10002066:	ab0a      	add	r3, sp, #40	; 0x28
10002068:	5599      	strb	r1, [r3, r6]
1000206a:	0029      	movs	r1, r5
1000206c:	0020      	movs	r0, r4
1000206e:	f000 ffd3 	bl	10003018 <__wrap___aeabi_uidiv>
10002072:	42ac      	cmp	r4, r5
10002074:	d316      	bcc.n	100020a4 <_ntoa_long+0x8a>
10002076:	2f1f      	cmp	r7, #31
10002078:	d814      	bhi.n	100020a4 <_ntoa_long+0x8a>
1000207a:	003e      	movs	r6, r7
1000207c:	0004      	movs	r4, r0
1000207e:	0029      	movs	r1, r5
10002080:	0020      	movs	r0, r4
10002082:	f000 ffc9 	bl	10003018 <__wrap___aeabi_uidiv>
10002086:	b2cb      	uxtb	r3, r1
10002088:	2b09      	cmp	r3, #9
1000208a:	d9e9      	bls.n	10002060 <_ntoa_long+0x46>
1000208c:	4642      	mov	r2, r8
1000208e:	0692      	lsls	r2, r2, #26
10002090:	d505      	bpl.n	1000209e <_ntoa_long+0x84>
10002092:	2141      	movs	r1, #65	; 0x41
10002094:	18c9      	adds	r1, r1, r3
10002096:	b2c9      	uxtb	r1, r1
10002098:	390a      	subs	r1, #10
1000209a:	b2c9      	uxtb	r1, r1
1000209c:	e7e2      	b.n	10002064 <_ntoa_long+0x4a>
1000209e:	2161      	movs	r1, #97	; 0x61
100020a0:	e7f8      	b.n	10002094 <_ntoa_long+0x7a>
100020a2:	0027      	movs	r7, r4
100020a4:	4643      	mov	r3, r8
100020a6:	9306      	str	r3, [sp, #24]
100020a8:	9b20      	ldr	r3, [sp, #128]	; 0x80
100020aa:	9305      	str	r3, [sp, #20]
100020ac:	9b1f      	ldr	r3, [sp, #124]	; 0x7c
100020ae:	9304      	str	r3, [sp, #16]
100020b0:	9503      	str	r5, [sp, #12]
100020b2:	465b      	mov	r3, fp
100020b4:	9302      	str	r3, [sp, #8]
100020b6:	9701      	str	r7, [sp, #4]
100020b8:	ab0a      	add	r3, sp, #40	; 0x28
100020ba:	9300      	str	r3, [sp, #0]
100020bc:	9b09      	ldr	r3, [sp, #36]	; 0x24
100020be:	9a08      	ldr	r2, [sp, #32]
100020c0:	4651      	mov	r1, sl
100020c2:	4648      	mov	r0, r9
100020c4:	f7ff ff21 	bl	10001f0a <_ntoa_format>
100020c8:	b013      	add	sp, #76	; 0x4c
100020ca:	bcf0      	pop	{r4, r5, r6, r7}
100020cc:	46bb      	mov	fp, r7
100020ce:	46b2      	mov	sl, r6
100020d0:	46a9      	mov	r9, r5
100020d2:	46a0      	mov	r8, r4
100020d4:	bdf0      	pop	{r4, r5, r6, r7, pc}

100020d6 <_ntoa_long_long>:
100020d6:	b5f0      	push	{r4, r5, r6, r7, lr}
100020d8:	46de      	mov	lr, fp
100020da:	4657      	mov	r7, sl
100020dc:	464e      	mov	r6, r9
100020de:	4645      	mov	r5, r8
100020e0:	b5e0      	push	{r5, r6, r7, lr}
100020e2:	b095      	sub	sp, #84	; 0x54
100020e4:	9008      	str	r0, [sp, #32]
100020e6:	9109      	str	r1, [sp, #36]	; 0x24
100020e8:	920a      	str	r2, [sp, #40]	; 0x28
100020ea:	930b      	str	r3, [sp, #44]	; 0x2c
100020ec:	9e1e      	ldr	r6, [sp, #120]	; 0x78
100020ee:	9c1f      	ldr	r4, [sp, #124]	; 0x7c
100020f0:	ab20      	add	r3, sp, #128	; 0x80
100020f2:	781b      	ldrb	r3, [r3, #0]
100020f4:	469b      	mov	fp, r3
100020f6:	9b22      	ldr	r3, [sp, #136]	; 0x88
100020f8:	4699      	mov	r9, r3
100020fa:	9d23      	ldr	r5, [sp, #140]	; 0x8c
100020fc:	9b26      	ldr	r3, [sp, #152]	; 0x98
100020fe:	469a      	mov	sl, r3
10002100:	0033      	movs	r3, r6
10002102:	4323      	orrs	r3, r4
10002104:	d103      	bne.n	1000210e <_ntoa_long_long+0x38>
10002106:	3310      	adds	r3, #16
10002108:	4652      	mov	r2, sl
1000210a:	439a      	bics	r2, r3
1000210c:	4692      	mov	sl, r2
1000210e:	2380      	movs	r3, #128	; 0x80
10002110:	00db      	lsls	r3, r3, #3
10002112:	4657      	mov	r7, sl
10002114:	401f      	ands	r7, r3
10002116:	4652      	mov	r2, sl
10002118:	421a      	tst	r2, r3
1000211a:	d019      	beq.n	10002150 <_ntoa_long_long+0x7a>
1000211c:	0033      	movs	r3, r6
1000211e:	4323      	orrs	r3, r4
10002120:	d02d      	beq.n	1000217e <_ntoa_long_long+0xa8>
10002122:	2700      	movs	r7, #0
10002124:	e014      	b.n	10002150 <_ntoa_long_long+0x7a>
10002126:	3330      	adds	r3, #48	; 0x30
10002128:	b2da      	uxtb	r2, r3
1000212a:	1c7b      	adds	r3, r7, #1
1000212c:	4698      	mov	r8, r3
1000212e:	ab0c      	add	r3, sp, #48	; 0x30
10002130:	55da      	strb	r2, [r3, r7]
10002132:	464a      	mov	r2, r9
10002134:	002b      	movs	r3, r5
10002136:	0030      	movs	r0, r6
10002138:	0021      	movs	r1, r4
1000213a:	f000 ffaf 	bl	1000309c <__wrap___aeabi_uldivmod>
1000213e:	42a5      	cmp	r5, r4
10002140:	d81f      	bhi.n	10002182 <_ntoa_long_long+0xac>
10002142:	d019      	beq.n	10002178 <_ntoa_long_long+0xa2>
10002144:	4643      	mov	r3, r8
10002146:	2b1f      	cmp	r3, #31
10002148:	d81b      	bhi.n	10002182 <_ntoa_long_long+0xac>
1000214a:	4647      	mov	r7, r8
1000214c:	0006      	movs	r6, r0
1000214e:	000c      	movs	r4, r1
10002150:	464a      	mov	r2, r9
10002152:	002b      	movs	r3, r5
10002154:	0030      	movs	r0, r6
10002156:	0021      	movs	r1, r4
10002158:	f000 ffa0 	bl	1000309c <__wrap___aeabi_uldivmod>
1000215c:	b2d3      	uxtb	r3, r2
1000215e:	2b09      	cmp	r3, #9
10002160:	d9e1      	bls.n	10002126 <_ntoa_long_long+0x50>
10002162:	4652      	mov	r2, sl
10002164:	0692      	lsls	r2, r2, #26
10002166:	d505      	bpl.n	10002174 <_ntoa_long_long+0x9e>
10002168:	2241      	movs	r2, #65	; 0x41
1000216a:	18d2      	adds	r2, r2, r3
1000216c:	b2d2      	uxtb	r2, r2
1000216e:	3a0a      	subs	r2, #10
10002170:	b2d2      	uxtb	r2, r2
10002172:	e7da      	b.n	1000212a <_ntoa_long_long+0x54>
10002174:	2261      	movs	r2, #97	; 0x61
10002176:	e7f8      	b.n	1000216a <_ntoa_long_long+0x94>
10002178:	45b1      	cmp	r9, r6
1000217a:	d9e3      	bls.n	10002144 <_ntoa_long_long+0x6e>
1000217c:	e001      	b.n	10002182 <_ntoa_long_long+0xac>
1000217e:	2300      	movs	r3, #0
10002180:	4698      	mov	r8, r3
10002182:	4653      	mov	r3, sl
10002184:	9306      	str	r3, [sp, #24]
10002186:	9b25      	ldr	r3, [sp, #148]	; 0x94
10002188:	9305      	str	r3, [sp, #20]
1000218a:	9b24      	ldr	r3, [sp, #144]	; 0x90
1000218c:	9304      	str	r3, [sp, #16]
1000218e:	464b      	mov	r3, r9
10002190:	9303      	str	r3, [sp, #12]
10002192:	465b      	mov	r3, fp
10002194:	9302      	str	r3, [sp, #8]
10002196:	4643      	mov	r3, r8
10002198:	9301      	str	r3, [sp, #4]
1000219a:	ab0c      	add	r3, sp, #48	; 0x30
1000219c:	9300      	str	r3, [sp, #0]
1000219e:	9b0b      	ldr	r3, [sp, #44]	; 0x2c
100021a0:	9a0a      	ldr	r2, [sp, #40]	; 0x28
100021a2:	9909      	ldr	r1, [sp, #36]	; 0x24
100021a4:	9808      	ldr	r0, [sp, #32]
100021a6:	f7ff feb0 	bl	10001f0a <_ntoa_format>
100021aa:	b015      	add	sp, #84	; 0x54
100021ac:	bcf0      	pop	{r4, r5, r6, r7}
100021ae:	46bb      	mov	fp, r7
100021b0:	46b2      	mov	sl, r6
100021b2:	46a9      	mov	r9, r5
100021b4:	46a0      	mov	r8, r4
100021b6:	bdf0      	pop	{r4, r5, r6, r7, pc}

100021b8 <_etoa>:
100021b8:	b5f0      	push	{r4, r5, r6, r7, lr}
100021ba:	46de      	mov	lr, fp
100021bc:	4657      	mov	r7, sl
100021be:	464e      	mov	r6, r9
100021c0:	4645      	mov	r5, r8
100021c2:	b5e0      	push	{r5, r6, r7, lr}
100021c4:	b091      	sub	sp, #68	; 0x44
100021c6:	4683      	mov	fp, r0
100021c8:	468a      	mov	sl, r1
100021ca:	920c      	str	r2, [sp, #48]	; 0x30
100021cc:	4698      	mov	r8, r3
100021ce:	9c1a      	ldr	r4, [sp, #104]	; 0x68
100021d0:	9408      	str	r4, [sp, #32]
100021d2:	9d1b      	ldr	r5, [sp, #108]	; 0x6c
100021d4:	9509      	str	r5, [sp, #36]	; 0x24
100021d6:	0022      	movs	r2, r4
100021d8:	002b      	movs	r3, r5
100021da:	0020      	movs	r0, r4
100021dc:	0029      	movs	r1, r5
100021de:	f001 f9ec 	bl	100035ba <__wrap___aeabi_dcmpun>
100021e2:	2800      	cmp	r0, #0
100021e4:	d000      	beq.n	100021e8 <_etoa+0x30>
100021e6:	e0e5      	b.n	100023b4 <_etoa+0x1fc>
100021e8:	2201      	movs	r2, #1
100021ea:	4252      	negs	r2, r2
100021ec:	4bd3      	ldr	r3, [pc, #844]	; (1000253c <_etoa+0x384>)
100021ee:	0020      	movs	r0, r4
100021f0:	0029      	movs	r1, r5
100021f2:	f001 f9dd 	bl	100035b0 <__wrap___aeabi_dcmpgt>
100021f6:	2800      	cmp	r0, #0
100021f8:	d000      	beq.n	100021fc <_etoa+0x44>
100021fa:	e0db      	b.n	100023b4 <_etoa+0x1fc>
100021fc:	2201      	movs	r2, #1
100021fe:	4252      	negs	r2, r2
10002200:	4bcf      	ldr	r3, [pc, #828]	; (10002540 <_etoa+0x388>)
10002202:	0020      	movs	r0, r4
10002204:	0029      	movs	r1, r5
10002206:	f001 f9bd 	bl	10003584 <__wrap___aeabi_dcmplt>
1000220a:	2800      	cmp	r0, #0
1000220c:	d000      	beq.n	10002210 <_etoa+0x58>
1000220e:	e0d1      	b.n	100023b4 <_etoa+0x1fc>
10002210:	2200      	movs	r2, #0
10002212:	2300      	movs	r3, #0
10002214:	9d08      	ldr	r5, [sp, #32]
10002216:	0028      	movs	r0, r5
10002218:	9e09      	ldr	r6, [sp, #36]	; 0x24
1000221a:	0031      	movs	r1, r6
1000221c:	f001 f9b2 	bl	10003584 <__wrap___aeabi_dcmplt>
10002220:	2800      	cmp	r0, #0
10002222:	d000      	beq.n	10002226 <_etoa+0x6e>
10002224:	e0dd      	b.n	100023e2 <_etoa+0x22a>
10002226:	9808      	ldr	r0, [sp, #32]
10002228:	9909      	ldr	r1, [sp, #36]	; 0x24
1000222a:	9006      	str	r0, [sp, #24]
1000222c:	9107      	str	r1, [sp, #28]
1000222e:	2380      	movs	r3, #128	; 0x80
10002230:	00db      	lsls	r3, r3, #3
10002232:	9a1e      	ldr	r2, [sp, #120]	; 0x78
10002234:	401a      	ands	r2, r3
10002236:	920d      	str	r2, [sp, #52]	; 0x34
10002238:	9a1e      	ldr	r2, [sp, #120]	; 0x78
1000223a:	421a      	tst	r2, r3
1000223c:	d101      	bne.n	10002242 <_etoa+0x8a>
1000223e:	2306      	movs	r3, #6
10002240:	931c      	str	r3, [sp, #112]	; 0x70
10002242:	9806      	ldr	r0, [sp, #24]
10002244:	9907      	ldr	r1, [sp, #28]
10002246:	0004      	movs	r4, r0
10002248:	000d      	movs	r5, r1
1000224a:	000a      	movs	r2, r1
1000224c:	0006      	movs	r6, r0
1000224e:	4302      	orrs	r2, r0
10002250:	d100      	bne.n	10002254 <_etoa+0x9c>
10002252:	e0cd      	b.n	100023f0 <_etoa+0x238>
10002254:	0d08      	lsrs	r0, r1, #20
10002256:	0540      	lsls	r0, r0, #21
10002258:	0d40      	lsrs	r0, r0, #21
1000225a:	4cba      	ldr	r4, [pc, #744]	; (10002544 <_etoa+0x38c>)
1000225c:	46a4      	mov	ip, r4
1000225e:	4460      	add	r0, ip
10002260:	030a      	lsls	r2, r1, #12
10002262:	0b12      	lsrs	r2, r2, #12
10002264:	4bb8      	ldr	r3, [pc, #736]	; (10002548 <_etoa+0x390>)
10002266:	4313      	orrs	r3, r2
10002268:	001f      	movs	r7, r3
1000226a:	f001 f9b9 	bl	100035e0 <__wrap___aeabi_i2d>
1000226e:	4ab7      	ldr	r2, [pc, #732]	; (1000254c <_etoa+0x394>)
10002270:	4bb7      	ldr	r3, [pc, #732]	; (10002550 <_etoa+0x398>)
10002272:	f001 f944 	bl	100034fe <__wrap___aeabi_dmul>
10002276:	4ab7      	ldr	r2, [pc, #732]	; (10002554 <_etoa+0x39c>)
10002278:	4bb7      	ldr	r3, [pc, #732]	; (10002558 <_etoa+0x3a0>)
1000227a:	f001 f919 	bl	100034b0 <__wrap___aeabi_dadd>
1000227e:	0004      	movs	r4, r0
10002280:	000d      	movs	r5, r1
10002282:	2200      	movs	r2, #0
10002284:	4bb5      	ldr	r3, [pc, #724]	; (1000255c <_etoa+0x3a4>)
10002286:	0030      	movs	r0, r6
10002288:	0039      	movs	r1, r7
1000228a:	f001 f908 	bl	1000349e <__wrap___aeabi_dsub>
1000228e:	4ab4      	ldr	r2, [pc, #720]	; (10002560 <_etoa+0x3a8>)
10002290:	4bb4      	ldr	r3, [pc, #720]	; (10002564 <_etoa+0x3ac>)
10002292:	f001 f934 	bl	100034fe <__wrap___aeabi_dmul>
10002296:	0002      	movs	r2, r0
10002298:	000b      	movs	r3, r1
1000229a:	0020      	movs	r0, r4
1000229c:	0029      	movs	r1, r5
1000229e:	f001 f907 	bl	100034b0 <__wrap___aeabi_dadd>
100022a2:	f001 f9b5 	bl	10003610 <__wrap___aeabi_d2iz>
100022a6:	4681      	mov	r9, r0
100022a8:	f001 f99a 	bl	100035e0 <__wrap___aeabi_i2d>
100022ac:	0004      	movs	r4, r0
100022ae:	000d      	movs	r5, r1
100022b0:	4aad      	ldr	r2, [pc, #692]	; (10002568 <_etoa+0x3b0>)
100022b2:	4bae      	ldr	r3, [pc, #696]	; (1000256c <_etoa+0x3b4>)
100022b4:	f001 f923 	bl	100034fe <__wrap___aeabi_dmul>
100022b8:	2200      	movs	r2, #0
100022ba:	4bad      	ldr	r3, [pc, #692]	; (10002570 <_etoa+0x3b8>)
100022bc:	f001 f8f8 	bl	100034b0 <__wrap___aeabi_dadd>
100022c0:	f001 f9a6 	bl	10003610 <__wrap___aeabi_d2iz>
100022c4:	0006      	movs	r6, r0
100022c6:	4aab      	ldr	r2, [pc, #684]	; (10002574 <_etoa+0x3bc>)
100022c8:	4bab      	ldr	r3, [pc, #684]	; (10002578 <_etoa+0x3c0>)
100022ca:	0020      	movs	r0, r4
100022cc:	0029      	movs	r1, r5
100022ce:	f001 f916 	bl	100034fe <__wrap___aeabi_dmul>
100022d2:	0004      	movs	r4, r0
100022d4:	000d      	movs	r5, r1
100022d6:	0030      	movs	r0, r6
100022d8:	f001 f982 	bl	100035e0 <__wrap___aeabi_i2d>
100022dc:	4aa7      	ldr	r2, [pc, #668]	; (1000257c <_etoa+0x3c4>)
100022de:	4ba8      	ldr	r3, [pc, #672]	; (10002580 <_etoa+0x3c8>)
100022e0:	f001 f90d 	bl	100034fe <__wrap___aeabi_dmul>
100022e4:	0002      	movs	r2, r0
100022e6:	000b      	movs	r3, r1
100022e8:	0020      	movs	r0, r4
100022ea:	0029      	movs	r1, r5
100022ec:	f001 f8d7 	bl	1000349e <__wrap___aeabi_dsub>
100022f0:	0004      	movs	r4, r0
100022f2:	000d      	movs	r5, r1
100022f4:	0002      	movs	r2, r0
100022f6:	000b      	movs	r3, r1
100022f8:	f001 f901 	bl	100034fe <__wrap___aeabi_dmul>
100022fc:	900a      	str	r0, [sp, #40]	; 0x28
100022fe:	910b      	str	r1, [sp, #44]	; 0x2c
10002300:	4ba0      	ldr	r3, [pc, #640]	; (10002584 <_etoa+0x3cc>)
10002302:	18f3      	adds	r3, r6, r3
10002304:	2600      	movs	r6, #0
10002306:	051f      	lsls	r7, r3, #20
10002308:	0022      	movs	r2, r4
1000230a:	002b      	movs	r3, r5
1000230c:	0020      	movs	r0, r4
1000230e:	0029      	movs	r1, r5
10002310:	f001 f8ce 	bl	100034b0 <__wrap___aeabi_dadd>
10002314:	900e      	str	r0, [sp, #56]	; 0x38
10002316:	910f      	str	r1, [sp, #60]	; 0x3c
10002318:	0022      	movs	r2, r4
1000231a:	002b      	movs	r3, r5
1000231c:	2000      	movs	r0, #0
1000231e:	2180      	movs	r1, #128	; 0x80
10002320:	05c9      	lsls	r1, r1, #23
10002322:	f001 f8bc 	bl	1000349e <__wrap___aeabi_dsub>
10002326:	0004      	movs	r4, r0
10002328:	000d      	movs	r5, r1
1000232a:	2200      	movs	r2, #0
1000232c:	4b96      	ldr	r3, [pc, #600]	; (10002588 <_etoa+0x3d0>)
1000232e:	980a      	ldr	r0, [sp, #40]	; 0x28
10002330:	990b      	ldr	r1, [sp, #44]	; 0x2c
10002332:	f001 f8c6 	bl	100034c2 <__wrap___aeabi_ddiv>
10002336:	2200      	movs	r2, #0
10002338:	4b94      	ldr	r3, [pc, #592]	; (1000258c <_etoa+0x3d4>)
1000233a:	f001 f8b9 	bl	100034b0 <__wrap___aeabi_dadd>
1000233e:	0002      	movs	r2, r0
10002340:	000b      	movs	r3, r1
10002342:	980a      	ldr	r0, [sp, #40]	; 0x28
10002344:	990b      	ldr	r1, [sp, #44]	; 0x2c
10002346:	f001 f8bc 	bl	100034c2 <__wrap___aeabi_ddiv>
1000234a:	2200      	movs	r2, #0
1000234c:	4b90      	ldr	r3, [pc, #576]	; (10002590 <_etoa+0x3d8>)
1000234e:	f001 f8af 	bl	100034b0 <__wrap___aeabi_dadd>
10002352:	0002      	movs	r2, r0
10002354:	000b      	movs	r3, r1
10002356:	980a      	ldr	r0, [sp, #40]	; 0x28
10002358:	990b      	ldr	r1, [sp, #44]	; 0x2c
1000235a:	f001 f8b2 	bl	100034c2 <__wrap___aeabi_ddiv>
1000235e:	0002      	movs	r2, r0
10002360:	000b      	movs	r3, r1
10002362:	0020      	movs	r0, r4
10002364:	0029      	movs	r1, r5
10002366:	f001 f8a3 	bl	100034b0 <__wrap___aeabi_dadd>
1000236a:	0002      	movs	r2, r0
1000236c:	000b      	movs	r3, r1
1000236e:	980e      	ldr	r0, [sp, #56]	; 0x38
10002370:	990f      	ldr	r1, [sp, #60]	; 0x3c
10002372:	f001 f8a6 	bl	100034c2 <__wrap___aeabi_ddiv>
10002376:	2200      	movs	r2, #0
10002378:	4b73      	ldr	r3, [pc, #460]	; (10002548 <_etoa+0x390>)
1000237a:	f001 f899 	bl	100034b0 <__wrap___aeabi_dadd>
1000237e:	0032      	movs	r2, r6
10002380:	003b      	movs	r3, r7
10002382:	f001 f8bc 	bl	100034fe <__wrap___aeabi_dmul>
10002386:	0006      	movs	r6, r0
10002388:	000f      	movs	r7, r1
1000238a:	0004      	movs	r4, r0
1000238c:	000d      	movs	r5, r1
1000238e:	9a06      	ldr	r2, [sp, #24]
10002390:	9b07      	ldr	r3, [sp, #28]
10002392:	f001 f90d 	bl	100035b0 <__wrap___aeabi_dcmpgt>
10002396:	2800      	cmp	r0, #0
10002398:	d02c      	beq.n	100023f4 <_etoa+0x23c>
1000239a:	2301      	movs	r3, #1
1000239c:	425b      	negs	r3, r3
1000239e:	469c      	mov	ip, r3
100023a0:	44e1      	add	r9, ip
100023a2:	2200      	movs	r2, #0
100023a4:	4b79      	ldr	r3, [pc, #484]	; (1000258c <_etoa+0x3d4>)
100023a6:	0030      	movs	r0, r6
100023a8:	0039      	movs	r1, r7
100023aa:	f001 f88a 	bl	100034c2 <__wrap___aeabi_ddiv>
100023ae:	0004      	movs	r4, r0
100023b0:	000d      	movs	r5, r1
100023b2:	e01f      	b.n	100023f4 <_etoa+0x23c>
100023b4:	9b1e      	ldr	r3, [sp, #120]	; 0x78
100023b6:	9304      	str	r3, [sp, #16]
100023b8:	9b1d      	ldr	r3, [sp, #116]	; 0x74
100023ba:	9303      	str	r3, [sp, #12]
100023bc:	9b1c      	ldr	r3, [sp, #112]	; 0x70
100023be:	9302      	str	r3, [sp, #8]
100023c0:	9a08      	ldr	r2, [sp, #32]
100023c2:	9b09      	ldr	r3, [sp, #36]	; 0x24
100023c4:	9200      	str	r2, [sp, #0]
100023c6:	9301      	str	r3, [sp, #4]
100023c8:	4643      	mov	r3, r8
100023ca:	9a0c      	ldr	r2, [sp, #48]	; 0x30
100023cc:	4651      	mov	r1, sl
100023ce:	4658      	mov	r0, fp
100023d0:	f000 f8f8 	bl	100025c4 <_ftoa>
100023d4:	b011      	add	sp, #68	; 0x44
100023d6:	bcf0      	pop	{r4, r5, r6, r7}
100023d8:	46bb      	mov	fp, r7
100023da:	46b2      	mov	sl, r6
100023dc:	46a9      	mov	r9, r5
100023de:	46a0      	mov	r8, r4
100023e0:	bdf0      	pop	{r4, r5, r6, r7, pc}
100023e2:	9506      	str	r5, [sp, #24]
100023e4:	2380      	movs	r3, #128	; 0x80
100023e6:	061b      	lsls	r3, r3, #24
100023e8:	469c      	mov	ip, r3
100023ea:	4466      	add	r6, ip
100023ec:	9607      	str	r6, [sp, #28]
100023ee:	e71e      	b.n	1000222e <_etoa+0x76>
100023f0:	2300      	movs	r3, #0
100023f2:	4699      	mov	r9, r3
100023f4:	464b      	mov	r3, r9
100023f6:	3363      	adds	r3, #99	; 0x63
100023f8:	2bc6      	cmp	r3, #198	; 0xc6
100023fa:	d81f      	bhi.n	1000243c <_etoa+0x284>
100023fc:	2604      	movs	r6, #4
100023fe:	9b1e      	ldr	r3, [sp, #120]	; 0x78
10002400:	051b      	lsls	r3, r3, #20
10002402:	d527      	bpl.n	10002454 <_etoa+0x29c>
10002404:	002b      	movs	r3, r5
10002406:	4323      	orrs	r3, r4
10002408:	d010      	beq.n	1000242c <_etoa+0x274>
1000240a:	4a62      	ldr	r2, [pc, #392]	; (10002594 <_etoa+0x3dc>)
1000240c:	4b62      	ldr	r3, [pc, #392]	; (10002598 <_etoa+0x3e0>)
1000240e:	9806      	ldr	r0, [sp, #24]
10002410:	9907      	ldr	r1, [sp, #28]
10002412:	f001 f8c5 	bl	100035a0 <__wrap___aeabi_dcmpge>
10002416:	2800      	cmp	r0, #0
10002418:	d100      	bne.n	1000241c <_etoa+0x264>
1000241a:	e083      	b.n	10002524 <_etoa+0x36c>
1000241c:	2200      	movs	r2, #0
1000241e:	4b5f      	ldr	r3, [pc, #380]	; (1000259c <_etoa+0x3e4>)
10002420:	9806      	ldr	r0, [sp, #24]
10002422:	9907      	ldr	r1, [sp, #28]
10002424:	f001 f8ae 	bl	10003584 <__wrap___aeabi_dcmplt>
10002428:	2800      	cmp	r0, #0
1000242a:	d07b      	beq.n	10002524 <_etoa+0x36c>
1000242c:	9b1c      	ldr	r3, [sp, #112]	; 0x70
1000242e:	454b      	cmp	r3, r9
10002430:	dd06      	ble.n	10002440 <_etoa+0x288>
10002432:	464a      	mov	r2, r9
10002434:	1a98      	subs	r0, r3, r2
10002436:	1e43      	subs	r3, r0, #1
10002438:	931c      	str	r3, [sp, #112]	; 0x70
1000243a:	e003      	b.n	10002444 <_etoa+0x28c>
1000243c:	2605      	movs	r6, #5
1000243e:	e7de      	b.n	100023fe <_etoa+0x246>
10002440:	2300      	movs	r3, #0
10002442:	931c      	str	r3, [sp, #112]	; 0x70
10002444:	2380      	movs	r3, #128	; 0x80
10002446:	00db      	lsls	r3, r3, #3
10002448:	9a1e      	ldr	r2, [sp, #120]	; 0x78
1000244a:	431a      	orrs	r2, r3
1000244c:	921e      	str	r2, [sp, #120]	; 0x78
1000244e:	2600      	movs	r6, #0
10002450:	2300      	movs	r3, #0
10002452:	4699      	mov	r9, r3
10002454:	9b1d      	ldr	r3, [sp, #116]	; 0x74
10002456:	429e      	cmp	r6, r3
10002458:	d26e      	bcs.n	10002538 <_etoa+0x380>
1000245a:	1b9f      	subs	r7, r3, r6
1000245c:	2302      	movs	r3, #2
1000245e:	9a1e      	ldr	r2, [sp, #120]	; 0x78
10002460:	401a      	ands	r2, r3
10002462:	920a      	str	r2, [sp, #40]	; 0x28
10002464:	9a1e      	ldr	r2, [sp, #120]	; 0x78
10002466:	4213      	tst	r3, r2
10002468:	d002      	beq.n	10002470 <_etoa+0x2b8>
1000246a:	2e00      	cmp	r6, #0
1000246c:	d000      	beq.n	10002470 <_etoa+0x2b8>
1000246e:	2700      	movs	r7, #0
10002470:	464b      	mov	r3, r9
10002472:	2b00      	cmp	r3, #0
10002474:	d007      	beq.n	10002486 <_etoa+0x2ce>
10002476:	0022      	movs	r2, r4
10002478:	002b      	movs	r3, r5
1000247a:	9806      	ldr	r0, [sp, #24]
1000247c:	9907      	ldr	r1, [sp, #28]
1000247e:	f001 f820 	bl	100034c2 <__wrap___aeabi_ddiv>
10002482:	9006      	str	r0, [sp, #24]
10002484:	9107      	str	r1, [sp, #28]
10002486:	2200      	movs	r2, #0
10002488:	2300      	movs	r3, #0
1000248a:	9808      	ldr	r0, [sp, #32]
1000248c:	9909      	ldr	r1, [sp, #36]	; 0x24
1000248e:	f001 f879 	bl	10003584 <__wrap___aeabi_dcmplt>
10002492:	2800      	cmp	r0, #0
10002494:	d000      	beq.n	10002498 <_etoa+0x2e0>
10002496:	e085      	b.n	100025a4 <_etoa+0x3ec>
10002498:	4b41      	ldr	r3, [pc, #260]	; (100025a0 <_etoa+0x3e8>)
1000249a:	9a1e      	ldr	r2, [sp, #120]	; 0x78
1000249c:	4013      	ands	r3, r2
1000249e:	9304      	str	r3, [sp, #16]
100024a0:	9703      	str	r7, [sp, #12]
100024a2:	9b1c      	ldr	r3, [sp, #112]	; 0x70
100024a4:	9302      	str	r3, [sp, #8]
100024a6:	9b06      	ldr	r3, [sp, #24]
100024a8:	9c07      	ldr	r4, [sp, #28]
100024aa:	9300      	str	r3, [sp, #0]
100024ac:	9401      	str	r4, [sp, #4]
100024ae:	4643      	mov	r3, r8
100024b0:	9a0c      	ldr	r2, [sp, #48]	; 0x30
100024b2:	4651      	mov	r1, sl
100024b4:	4658      	mov	r0, fp
100024b6:	f000 f885 	bl	100025c4 <_ftoa>
100024ba:	2e00      	cmp	r6, #0
100024bc:	d100      	bne.n	100024c0 <_etoa+0x308>
100024be:	e789      	b.n	100023d4 <_etoa+0x21c>
100024c0:	9b1e      	ldr	r3, [sp, #120]	; 0x78
100024c2:	069b      	lsls	r3, r3, #26
100024c4:	d57a      	bpl.n	100025bc <_etoa+0x404>
100024c6:	2545      	movs	r5, #69	; 0x45
100024c8:	1c44      	adds	r4, r0, #1
100024ca:	4643      	mov	r3, r8
100024cc:	0002      	movs	r2, r0
100024ce:	4651      	mov	r1, sl
100024d0:	0028      	movs	r0, r5
100024d2:	47d8      	blx	fp
100024d4:	464b      	mov	r3, r9
100024d6:	17da      	asrs	r2, r3, #31
100024d8:	189b      	adds	r3, r3, r2
100024da:	4053      	eors	r3, r2
100024dc:	2205      	movs	r2, #5
100024de:	9205      	str	r2, [sp, #20]
100024e0:	3e01      	subs	r6, #1
100024e2:	9604      	str	r6, [sp, #16]
100024e4:	2200      	movs	r2, #0
100024e6:	9203      	str	r2, [sp, #12]
100024e8:	320a      	adds	r2, #10
100024ea:	9202      	str	r2, [sp, #8]
100024ec:	464a      	mov	r2, r9
100024ee:	0fd0      	lsrs	r0, r2, #31
100024f0:	9001      	str	r0, [sp, #4]
100024f2:	9300      	str	r3, [sp, #0]
100024f4:	4643      	mov	r3, r8
100024f6:	0022      	movs	r2, r4
100024f8:	4651      	mov	r1, sl
100024fa:	4658      	mov	r0, fp
100024fc:	f7ff fd8d 	bl	1000201a <_ntoa_long>
10002500:	9b0a      	ldr	r3, [sp, #40]	; 0x28
10002502:	2b00      	cmp	r3, #0
10002504:	d100      	bne.n	10002508 <_etoa+0x350>
10002506:	e765      	b.n	100023d4 <_etoa+0x21c>
10002508:	0002      	movs	r2, r0
1000250a:	465f      	mov	r7, fp
1000250c:	9e0c      	ldr	r6, [sp, #48]	; 0x30
1000250e:	9d1d      	ldr	r5, [sp, #116]	; 0x74
10002510:	1b93      	subs	r3, r2, r6
10002512:	42ab      	cmp	r3, r5
10002514:	d254      	bcs.n	100025c0 <_etoa+0x408>
10002516:	1c54      	adds	r4, r2, #1
10002518:	4643      	mov	r3, r8
1000251a:	4651      	mov	r1, sl
1000251c:	2020      	movs	r0, #32
1000251e:	47b8      	blx	r7
10002520:	0022      	movs	r2, r4
10002522:	e7f5      	b.n	10002510 <_etoa+0x358>
10002524:	9b1c      	ldr	r3, [sp, #112]	; 0x70
10002526:	2b00      	cmp	r3, #0
10002528:	d094      	beq.n	10002454 <_etoa+0x29c>
1000252a:	9b0d      	ldr	r3, [sp, #52]	; 0x34
1000252c:	2b00      	cmp	r3, #0
1000252e:	d091      	beq.n	10002454 <_etoa+0x29c>
10002530:	9b1c      	ldr	r3, [sp, #112]	; 0x70
10002532:	3b01      	subs	r3, #1
10002534:	931c      	str	r3, [sp, #112]	; 0x70
10002536:	e78d      	b.n	10002454 <_etoa+0x29c>
10002538:	2700      	movs	r7, #0
1000253a:	e78f      	b.n	1000245c <_etoa+0x2a4>
1000253c:	7fefffff 	.word	0x7fefffff
10002540:	ffefffff 	.word	0xffefffff
10002544:	fffffc01 	.word	0xfffffc01
10002548:	3ff00000 	.word	0x3ff00000
1000254c:	509f79fb 	.word	0x509f79fb
10002550:	3fd34413 	.word	0x3fd34413
10002554:	8b60c8b3 	.word	0x8b60c8b3
10002558:	3fc68a28 	.word	0x3fc68a28
1000255c:	3ff80000 	.word	0x3ff80000
10002560:	636f4361 	.word	0x636f4361
10002564:	3fd287a7 	.word	0x3fd287a7
10002568:	0979a371 	.word	0x0979a371
1000256c:	400a934f 	.word	0x400a934f
10002570:	3fe00000 	.word	0x3fe00000
10002574:	bbb55516 	.word	0xbbb55516
10002578:	40026bb1 	.word	0x40026bb1
1000257c:	fefa39ef 	.word	0xfefa39ef
10002580:	3fe62e42 	.word	0x3fe62e42
10002584:	000003ff 	.word	0x000003ff
10002588:	402c0000 	.word	0x402c0000
1000258c:	40240000 	.word	0x40240000
10002590:	40180000 	.word	0x40180000
10002594:	eb1c432d 	.word	0xeb1c432d
10002598:	3f1a36e2 	.word	0x3f1a36e2
1000259c:	412e8480 	.word	0x412e8480
100025a0:	fffff7ff 	.word	0xfffff7ff
100025a4:	9c06      	ldr	r4, [sp, #24]
100025a6:	9d07      	ldr	r5, [sp, #28]
100025a8:	0022      	movs	r2, r4
100025aa:	0029      	movs	r1, r5
100025ac:	2080      	movs	r0, #128	; 0x80
100025ae:	0600      	lsls	r0, r0, #24
100025b0:	4684      	mov	ip, r0
100025b2:	4461      	add	r1, ip
100025b4:	000b      	movs	r3, r1
100025b6:	9206      	str	r2, [sp, #24]
100025b8:	9307      	str	r3, [sp, #28]
100025ba:	e76d      	b.n	10002498 <_etoa+0x2e0>
100025bc:	2565      	movs	r5, #101	; 0x65
100025be:	e783      	b.n	100024c8 <_etoa+0x310>
100025c0:	0010      	movs	r0, r2
100025c2:	e707      	b.n	100023d4 <_etoa+0x21c>

100025c4 <_ftoa>:
100025c4:	b5f0      	push	{r4, r5, r6, r7, lr}
100025c6:	46de      	mov	lr, fp
100025c8:	4657      	mov	r7, sl
100025ca:	464e      	mov	r6, r9
100025cc:	4645      	mov	r5, r8
100025ce:	b5e0      	push	{r5, r6, r7, lr}
100025d0:	b095      	sub	sp, #84	; 0x54
100025d2:	9006      	str	r0, [sp, #24]
100025d4:	9107      	str	r1, [sp, #28]
100025d6:	4693      	mov	fp, r2
100025d8:	4699      	mov	r9, r3
100025da:	9f20      	ldr	r7, [sp, #128]	; 0x80
100025dc:	9a1e      	ldr	r2, [sp, #120]	; 0x78
100025de:	9b1f      	ldr	r3, [sp, #124]	; 0x7c
100025e0:	0010      	movs	r0, r2
100025e2:	0019      	movs	r1, r3
100025e4:	f000 ffe9 	bl	100035ba <__wrap___aeabi_dcmpun>
100025e8:	2800      	cmp	r0, #0
100025ea:	d131      	bne.n	10002650 <_ftoa+0x8c>
100025ec:	2201      	movs	r2, #1
100025ee:	4252      	negs	r2, r2
100025f0:	4bbf      	ldr	r3, [pc, #764]	; (100028f0 <_ftoa+0x32c>)
100025f2:	981e      	ldr	r0, [sp, #120]	; 0x78
100025f4:	991f      	ldr	r1, [sp, #124]	; 0x7c
100025f6:	f000 ffc5 	bl	10003584 <__wrap___aeabi_dcmplt>
100025fa:	2800      	cmp	r0, #0
100025fc:	d137      	bne.n	1000266e <_ftoa+0xaa>
100025fe:	2201      	movs	r2, #1
10002600:	4252      	negs	r2, r2
10002602:	4bbc      	ldr	r3, [pc, #752]	; (100028f4 <_ftoa+0x330>)
10002604:	981e      	ldr	r0, [sp, #120]	; 0x78
10002606:	991f      	ldr	r1, [sp, #124]	; 0x7c
10002608:	f000 ffd2 	bl	100035b0 <__wrap___aeabi_dcmpgt>
1000260c:	2800      	cmp	r0, #0
1000260e:	d13d      	bne.n	1000268c <_ftoa+0xc8>
10002610:	2200      	movs	r2, #0
10002612:	4bb9      	ldr	r3, [pc, #740]	; (100028f8 <_ftoa+0x334>)
10002614:	981e      	ldr	r0, [sp, #120]	; 0x78
10002616:	991f      	ldr	r1, [sp, #124]	; 0x7c
10002618:	f000 ffca 	bl	100035b0 <__wrap___aeabi_dcmpgt>
1000261c:	2800      	cmp	r0, #0
1000261e:	d150      	bne.n	100026c2 <_ftoa+0xfe>
10002620:	2200      	movs	r2, #0
10002622:	4bb6      	ldr	r3, [pc, #728]	; (100028fc <_ftoa+0x338>)
10002624:	981e      	ldr	r0, [sp, #120]	; 0x78
10002626:	991f      	ldr	r1, [sp, #124]	; 0x7c
10002628:	f000 ffac 	bl	10003584 <__wrap___aeabi_dcmplt>
1000262c:	2800      	cmp	r0, #0
1000262e:	d148      	bne.n	100026c2 <_ftoa+0xfe>
10002630:	2200      	movs	r2, #0
10002632:	2300      	movs	r3, #0
10002634:	981e      	ldr	r0, [sp, #120]	; 0x78
10002636:	991f      	ldr	r1, [sp, #124]	; 0x7c
10002638:	f000 ffa4 	bl	10003584 <__wrap___aeabi_dcmplt>
1000263c:	2800      	cmp	r0, #0
1000263e:	d150      	bne.n	100026e2 <_ftoa+0x11e>
10002640:	2300      	movs	r3, #0
10002642:	4698      	mov	r8, r3
10002644:	9b22      	ldr	r3, [sp, #136]	; 0x88
10002646:	055b      	lsls	r3, r3, #21
10002648:	d400      	bmi.n	1000264c <_ftoa+0x88>
1000264a:	e0b6      	b.n	100027ba <_ftoa+0x1f6>
1000264c:	2400      	movs	r4, #0
1000264e:	e058      	b.n	10002702 <_ftoa+0x13e>
10002650:	9b22      	ldr	r3, [sp, #136]	; 0x88
10002652:	9303      	str	r3, [sp, #12]
10002654:	9b21      	ldr	r3, [sp, #132]	; 0x84
10002656:	9302      	str	r3, [sp, #8]
10002658:	2303      	movs	r3, #3
1000265a:	9301      	str	r3, [sp, #4]
1000265c:	4ba8      	ldr	r3, [pc, #672]	; (10002900 <_ftoa+0x33c>)
1000265e:	9300      	str	r3, [sp, #0]
10002660:	464b      	mov	r3, r9
10002662:	465a      	mov	r2, fp
10002664:	9907      	ldr	r1, [sp, #28]
10002666:	9806      	ldr	r0, [sp, #24]
10002668:	f7ff fbf8 	bl	10001e5c <_out_rev>
1000266c:	e10e      	b.n	1000288c <_ftoa+0x2c8>
1000266e:	9b22      	ldr	r3, [sp, #136]	; 0x88
10002670:	9303      	str	r3, [sp, #12]
10002672:	9b21      	ldr	r3, [sp, #132]	; 0x84
10002674:	9302      	str	r3, [sp, #8]
10002676:	2304      	movs	r3, #4
10002678:	9301      	str	r3, [sp, #4]
1000267a:	4ba2      	ldr	r3, [pc, #648]	; (10002904 <_ftoa+0x340>)
1000267c:	9300      	str	r3, [sp, #0]
1000267e:	464b      	mov	r3, r9
10002680:	465a      	mov	r2, fp
10002682:	9907      	ldr	r1, [sp, #28]
10002684:	9806      	ldr	r0, [sp, #24]
10002686:	f7ff fbe9 	bl	10001e5c <_out_rev>
1000268a:	e0ff      	b.n	1000288c <_ftoa+0x2c8>
1000268c:	2304      	movs	r3, #4
1000268e:	9a22      	ldr	r2, [sp, #136]	; 0x88
10002690:	401a      	ands	r2, r3
10002692:	9922      	ldr	r1, [sp, #136]	; 0x88
10002694:	420b      	tst	r3, r1
10002696:	d010      	beq.n	100026ba <_ftoa+0xf6>
10002698:	4b9b      	ldr	r3, [pc, #620]	; (10002908 <_ftoa+0x344>)
1000269a:	2a00      	cmp	r2, #0
1000269c:	d00f      	beq.n	100026be <_ftoa+0xfa>
1000269e:	2204      	movs	r2, #4
100026a0:	9922      	ldr	r1, [sp, #136]	; 0x88
100026a2:	9103      	str	r1, [sp, #12]
100026a4:	9921      	ldr	r1, [sp, #132]	; 0x84
100026a6:	9102      	str	r1, [sp, #8]
100026a8:	9201      	str	r2, [sp, #4]
100026aa:	9300      	str	r3, [sp, #0]
100026ac:	464b      	mov	r3, r9
100026ae:	465a      	mov	r2, fp
100026b0:	9907      	ldr	r1, [sp, #28]
100026b2:	9806      	ldr	r0, [sp, #24]
100026b4:	f7ff fbd2 	bl	10001e5c <_out_rev>
100026b8:	e0e8      	b.n	1000288c <_ftoa+0x2c8>
100026ba:	4b94      	ldr	r3, [pc, #592]	; (1000290c <_ftoa+0x348>)
100026bc:	e7ed      	b.n	1000269a <_ftoa+0xd6>
100026be:	2203      	movs	r2, #3
100026c0:	e7ee      	b.n	100026a0 <_ftoa+0xdc>
100026c2:	9b22      	ldr	r3, [sp, #136]	; 0x88
100026c4:	9304      	str	r3, [sp, #16]
100026c6:	9b21      	ldr	r3, [sp, #132]	; 0x84
100026c8:	9303      	str	r3, [sp, #12]
100026ca:	9702      	str	r7, [sp, #8]
100026cc:	9b1e      	ldr	r3, [sp, #120]	; 0x78
100026ce:	9c1f      	ldr	r4, [sp, #124]	; 0x7c
100026d0:	9300      	str	r3, [sp, #0]
100026d2:	9401      	str	r4, [sp, #4]
100026d4:	464b      	mov	r3, r9
100026d6:	465a      	mov	r2, fp
100026d8:	9907      	ldr	r1, [sp, #28]
100026da:	9806      	ldr	r0, [sp, #24]
100026dc:	f7ff fd6c 	bl	100021b8 <_etoa>
100026e0:	e0d4      	b.n	1000288c <_ftoa+0x2c8>
100026e2:	9a1e      	ldr	r2, [sp, #120]	; 0x78
100026e4:	9b1f      	ldr	r3, [sp, #124]	; 0x7c
100026e6:	2000      	movs	r0, #0
100026e8:	2100      	movs	r1, #0
100026ea:	f000 fed8 	bl	1000349e <__wrap___aeabi_dsub>
100026ee:	901e      	str	r0, [sp, #120]	; 0x78
100026f0:	911f      	str	r1, [sp, #124]	; 0x7c
100026f2:	2301      	movs	r3, #1
100026f4:	4698      	mov	r8, r3
100026f6:	e7a5      	b.n	10002644 <_ftoa+0x80>
100026f8:	ab0c      	add	r3, sp, #48	; 0x30
100026fa:	2230      	movs	r2, #48	; 0x30
100026fc:	551a      	strb	r2, [r3, r4]
100026fe:	3f01      	subs	r7, #1
10002700:	3401      	adds	r4, #1
10002702:	2c1f      	cmp	r4, #31
10002704:	d801      	bhi.n	1000270a <_ftoa+0x146>
10002706:	2f09      	cmp	r7, #9
10002708:	d8f6      	bhi.n	100026f8 <_ftoa+0x134>
1000270a:	981e      	ldr	r0, [sp, #120]	; 0x78
1000270c:	991f      	ldr	r1, [sp, #124]	; 0x7c
1000270e:	f000 ff7f 	bl	10003610 <__wrap___aeabi_d2iz>
10002712:	0005      	movs	r5, r0
10002714:	f000 ff64 	bl	100035e0 <__wrap___aeabi_i2d>
10002718:	0002      	movs	r2, r0
1000271a:	000b      	movs	r3, r1
1000271c:	981e      	ldr	r0, [sp, #120]	; 0x78
1000271e:	991f      	ldr	r1, [sp, #124]	; 0x7c
10002720:	f000 febd 	bl	1000349e <__wrap___aeabi_dsub>
10002724:	00fa      	lsls	r2, r7, #3
10002726:	4b7a      	ldr	r3, [pc, #488]	; (10002910 <_ftoa+0x34c>)
10002728:	189b      	adds	r3, r3, r2
1000272a:	681a      	ldr	r2, [r3, #0]
1000272c:	685b      	ldr	r3, [r3, #4]
1000272e:	920a      	str	r2, [sp, #40]	; 0x28
10002730:	930b      	str	r3, [sp, #44]	; 0x2c
10002732:	f000 fee4 	bl	100034fe <__wrap___aeabi_dmul>
10002736:	9008      	str	r0, [sp, #32]
10002738:	9109      	str	r1, [sp, #36]	; 0x24
1000273a:	f000 ff8d 	bl	10003658 <__wrap___aeabi_d2uiz>
1000273e:	0006      	movs	r6, r0
10002740:	f000 ff4a 	bl	100035d8 <__wrap___aeabi_ui2d>
10002744:	0002      	movs	r2, r0
10002746:	000b      	movs	r3, r1
10002748:	9808      	ldr	r0, [sp, #32]
1000274a:	9909      	ldr	r1, [sp, #36]	; 0x24
1000274c:	f000 fea7 	bl	1000349e <__wrap___aeabi_dsub>
10002750:	9008      	str	r0, [sp, #32]
10002752:	9109      	str	r1, [sp, #36]	; 0x24
10002754:	2200      	movs	r2, #0
10002756:	4b6f      	ldr	r3, [pc, #444]	; (10002914 <_ftoa+0x350>)
10002758:	f000 ff2a 	bl	100035b0 <__wrap___aeabi_dcmpgt>
1000275c:	2800      	cmp	r0, #0
1000275e:	d02e      	beq.n	100027be <_ftoa+0x1fa>
10002760:	3601      	adds	r6, #1
10002762:	0030      	movs	r0, r6
10002764:	f000 ff38 	bl	100035d8 <__wrap___aeabi_ui2d>
10002768:	0002      	movs	r2, r0
1000276a:	000b      	movs	r3, r1
1000276c:	980a      	ldr	r0, [sp, #40]	; 0x28
1000276e:	990b      	ldr	r1, [sp, #44]	; 0x2c
10002770:	f000 ff0e 	bl	10003590 <__wrap___aeabi_dcmple>
10002774:	2800      	cmp	r0, #0
10002776:	d001      	beq.n	1000277c <_ftoa+0x1b8>
10002778:	3501      	adds	r5, #1
1000277a:	2600      	movs	r6, #0
1000277c:	2f00      	cmp	r7, #0
1000277e:	d12c      	bne.n	100027da <_ftoa+0x216>
10002780:	0028      	movs	r0, r5
10002782:	f000 ff2d 	bl	100035e0 <__wrap___aeabi_i2d>
10002786:	0002      	movs	r2, r0
10002788:	000b      	movs	r3, r1
1000278a:	981e      	ldr	r0, [sp, #120]	; 0x78
1000278c:	991f      	ldr	r1, [sp, #124]	; 0x7c
1000278e:	f000 fe86 	bl	1000349e <__wrap___aeabi_dsub>
10002792:	0006      	movs	r6, r0
10002794:	000f      	movs	r7, r1
10002796:	2200      	movs	r2, #0
10002798:	4b5e      	ldr	r3, [pc, #376]	; (10002914 <_ftoa+0x350>)
1000279a:	f000 fef3 	bl	10003584 <__wrap___aeabi_dcmplt>
1000279e:	2800      	cmp	r0, #0
100027a0:	d142      	bne.n	10002828 <_ftoa+0x264>
100027a2:	2200      	movs	r2, #0
100027a4:	4b5b      	ldr	r3, [pc, #364]	; (10002914 <_ftoa+0x350>)
100027a6:	0030      	movs	r0, r6
100027a8:	0039      	movs	r1, r7
100027aa:	f000 ff01 	bl	100035b0 <__wrap___aeabi_dcmpgt>
100027ae:	2800      	cmp	r0, #0
100027b0:	d13a      	bne.n	10002828 <_ftoa+0x264>
100027b2:	07eb      	lsls	r3, r5, #31
100027b4:	d538      	bpl.n	10002828 <_ftoa+0x264>
100027b6:	3501      	adds	r5, #1
100027b8:	e036      	b.n	10002828 <_ftoa+0x264>
100027ba:	2706      	movs	r7, #6
100027bc:	e746      	b.n	1000264c <_ftoa+0x88>
100027be:	2200      	movs	r2, #0
100027c0:	4b54      	ldr	r3, [pc, #336]	; (10002914 <_ftoa+0x350>)
100027c2:	9808      	ldr	r0, [sp, #32]
100027c4:	9909      	ldr	r1, [sp, #36]	; 0x24
100027c6:	f000 fedd 	bl	10003584 <__wrap___aeabi_dcmplt>
100027ca:	2800      	cmp	r0, #0
100027cc:	d1d6      	bne.n	1000277c <_ftoa+0x1b8>
100027ce:	2e00      	cmp	r6, #0
100027d0:	d001      	beq.n	100027d6 <_ftoa+0x212>
100027d2:	07f3      	lsls	r3, r6, #31
100027d4:	d5d2      	bpl.n	1000277c <_ftoa+0x1b8>
100027d6:	3601      	adds	r6, #1
100027d8:	e7d0      	b.n	1000277c <_ftoa+0x1b8>
100027da:	46aa      	mov	sl, r5
100027dc:	2c1f      	cmp	r4, #31
100027de:	d811      	bhi.n	10002804 <_ftoa+0x240>
100027e0:	3f01      	subs	r7, #1
100027e2:	210a      	movs	r1, #10
100027e4:	0030      	movs	r0, r6
100027e6:	f000 fc17 	bl	10003018 <__wrap___aeabi_uidiv>
100027ea:	1c65      	adds	r5, r4, #1
100027ec:	3130      	adds	r1, #48	; 0x30
100027ee:	ab0c      	add	r3, sp, #48	; 0x30
100027f0:	5519      	strb	r1, [r3, r4]
100027f2:	210a      	movs	r1, #10
100027f4:	0030      	movs	r0, r6
100027f6:	f000 fc0f 	bl	10003018 <__wrap___aeabi_uidiv>
100027fa:	2e09      	cmp	r6, #9
100027fc:	d926      	bls.n	1000284c <_ftoa+0x288>
100027fe:	0006      	movs	r6, r0
10002800:	002c      	movs	r4, r5
10002802:	e7eb      	b.n	100027dc <_ftoa+0x218>
10002804:	4655      	mov	r5, sl
10002806:	e004      	b.n	10002812 <_ftoa+0x24e>
10002808:	aa0c      	add	r2, sp, #48	; 0x30
1000280a:	2130      	movs	r1, #48	; 0x30
1000280c:	5511      	strb	r1, [r2, r4]
1000280e:	001f      	movs	r7, r3
10002810:	3401      	adds	r4, #1
10002812:	2c1f      	cmp	r4, #31
10002814:	d802      	bhi.n	1000281c <_ftoa+0x258>
10002816:	1e7b      	subs	r3, r7, #1
10002818:	2f00      	cmp	r7, #0
1000281a:	d1f5      	bne.n	10002808 <_ftoa+0x244>
1000281c:	2c1f      	cmp	r4, #31
1000281e:	d803      	bhi.n	10002828 <_ftoa+0x264>
10002820:	ab0c      	add	r3, sp, #48	; 0x30
10002822:	222e      	movs	r2, #46	; 0x2e
10002824:	551a      	strb	r2, [r3, r4]
10002826:	3401      	adds	r4, #1
10002828:	2c1f      	cmp	r4, #31
1000282a:	d814      	bhi.n	10002856 <_ftoa+0x292>
1000282c:	210a      	movs	r1, #10
1000282e:	0028      	movs	r0, r5
10002830:	f000 fbca 	bl	10002fc8 <__wrap___aeabi_idiv>
10002834:	1c66      	adds	r6, r4, #1
10002836:	3130      	adds	r1, #48	; 0x30
10002838:	ab0c      	add	r3, sp, #48	; 0x30
1000283a:	5519      	strb	r1, [r3, r4]
1000283c:	210a      	movs	r1, #10
1000283e:	0028      	movs	r0, r5
10002840:	f000 fbc2 	bl	10002fc8 <__wrap___aeabi_idiv>
10002844:	1e05      	subs	r5, r0, #0
10002846:	d005      	beq.n	10002854 <_ftoa+0x290>
10002848:	0034      	movs	r4, r6
1000284a:	e7ed      	b.n	10002828 <_ftoa+0x264>
1000284c:	002b      	movs	r3, r5
1000284e:	4655      	mov	r5, sl
10002850:	001c      	movs	r4, r3
10002852:	e7de      	b.n	10002812 <_ftoa+0x24e>
10002854:	0034      	movs	r4, r6
10002856:	2303      	movs	r3, #3
10002858:	9a22      	ldr	r2, [sp, #136]	; 0x88
1000285a:	4013      	ands	r3, r2
1000285c:	2b01      	cmp	r3, #1
1000285e:	d01c      	beq.n	1000289a <_ftoa+0x2d6>
10002860:	2c1f      	cmp	r4, #31
