:020000041000EA
:1000000000B5324B212058609868022188439860DF
:10001000D860186158612E4B002199600221596106
:100020000121F02299502B49196001219960352056
:1000300000F044F80222904214D00621196600F024
:1000400034F8196E01211966002018661A6600F04E
:100050002CF8196E196E196E052000F02FF8012189
:100060000842F9D1002199601B49196000215960AB
:100070001A491B48016001219960EB211966A021F2
:10008000196600F012F800219960164914480160C1
:100090000121996001BC002800D000471248134993
:1000A000086003C880F30888084703B5996A0420EC
:1000B0000142FBD001200142F8D103BD02B5186610
:1000C0001866FFF7F2FF186E186E02BD00000240BE
:1000D000000000180000070000035F00212200005C
:1000E000F4000018222000A00001001008ED00E03C
:1000F00000000000000000000000000074B24E7A12
:1001000000200420F7010010C3010010C5010010F9
:10011000C1010010C1010010C1010010C101001097
:10012000C1010010C1010010C1010010C701001081
:10013000C1010010C1010010C9010010CB01001065
:10014000CD010010CD010010CD010010CD01001037
:10015000CD010010CD010010CD010010CD01001027
:10016000CD010010CD010010CD010010CD01001017
:10017000CD010010CD010010CD010010CD01001007
:10018000CD010010CD010010CD010010CD010010F7
:10019000CD010010CD010010CD010010CD010010E7
:1001A000CD010010CD010010CD010010CD010010D7
:1001B000CD010010CD010010CD010010CD010010C7
:1001C00000BE00BE00BE00BE00BE00BE00F04BF888
:1001D000103800BEF2EB8871A41F0010C41F00107D
:1001E0003402001090A31AE700202149086006C8D5
:1001F00081F3088810471F48006800282FD10DA4FC
:100200000ECC002902D000F012F8F9E71A491B4A77
:10021000002000E001C19142FCD1194988471949E9
:1002200088471949884700BEFDE701C901C29A42C3
:10023000FBD37047C41F0010C00000202C02002018
:1002400030210010000004200000042030210010A4
:1002500000100420001004200000000070470B482C
:1002600001F05AFB0047EFF30580C0B27047000071
:1002700008ED00E0000000D030020020FC05002066
:10028000E51000104D030010D51100105756000066
:1002900006005250ABB36053541F0010060052507A
:1002A000861C0302481F0010060052505422A29DD3
:1002B000641F001005005250DE65F4683021001004
:1002C000F8B5C04610B5064C2378002B07D1054B76
:1002D000002B02D0044800E000BF0123237010BDB2
:1002E0003003002000000000B01E0010044B10B5C9
:1002F000002B03D00349044800E000BF10BDC046F6
:100300000000000034030020B01E001010B500F003
:1003100043F810BD0123D02283401206002901D0EA
:10032000536270479362FCE7D0231B065B68C340AF
:10033000012018407047C0460123D0228340120696
:10034000002901D0536170479361FCE710B500F0BC
:1003500007F8002010BDC0460000000000000000AB
:100360001920FFF7D3FF19200121FFF7D3FF094818
:1003700000F02CFB00F001F8F9E700B51920FFF7B9
:10038000D3FF002801D0002100E001211920FFF750
:10039000D3FF00BDF40100000123D02283401206E8
:1003A00093629361094A830094464022634419682A
:1003B000C0004A40C02111408022520113431960FD
:1003C000034B9C46052360444360704704C00140D2
:1003D00000400140F8B5EFF3108772B60E4E336857
:1003E000002BFCD0BFF35F8FCB08C4180725A446B1
:1003F000C45C01230D40AB4018002040234208D1CB
:10040000624623431370BFF35F8F306087F3108819
:10041000F8BD100000F0E0FE2C0100D0024B18687F
:100420008007C00F7047C04600C006400021044B43
:10043000044ABFF35F8F02C39342FAD17047C046AC
:10044000000100D0800100D0044A1078431CDBB2C8
:10045000172B00D9102313707047C0467C01002071
:1004600083680B4810B58446614462440901120157
:100470009A18591854684B6801209C4201D802D040
:100480000020C0B210BD12680B689A42F9D8F7E795
:10049000FFFFFF0F0A4B1968EFF3108072B60A686E
:1004A000002AFCD0BFF35F8F1B68BFF35F8F002271
:1004B0001A6080F3108840BF002000217047C046BA
:1004C000E4030020F8B557464E464546DE46E0B503
:1004D000434D81468A466A68EFF3108872B6136806
:1004E000002BFCD0BFF35F8F2E68B47B002C3ED076
:1004F000670033683F19033FDA195378B373002B51
:1005000000D1F3730023937053701370A968354AB8
:100510008C464946A218120162441160514651604E
:100520003149D36091603268D2199370537013705F
:10053000737B9B46002B35D022001900B06873688E
:1005400098473268002820D05B4658465B005B44E1
:10055000D719033BB870D118D35C002B00D07B7047
:100560005B460C7073735C451DD0002626E06B68FB
:10057000BFF35F8F1C6088F3108801204042F0BCFD
:10058000BB46B246A946A046F8BD5B465B005B444D
:10059000033BD3189C70D119D25D002A00D05A7049
:1005A0005B460B7074734A465346287D00F0F2FA9E
:1005B000061EDAD02100286800F056FDEB686A6854
:1005C0001B19013B1B78BFF35F8F0021116088F37B
:1005D00010880020002ED2D118022043CFE7C04659
:1005E00080010020FFFFFF0F95040010F8B557466B
:1005F00045464E46DE46E0B599460CAB19780DAB44
:100600001B78050090469A460768002912D1BE7BE8
:10061000002E45D074003B68A419033C1B195A787E
:100620003100BA73002A00D1FA7300229A705A700E
:100630001A7003E00E004C006418033C2C4B00229F
:100640009C46AB6861449C464346090161440B608B
:100650004B464B600A9B8B600B9BCB603B681B1926
:100660009A705A701A707B7B9B46002B2CD03200FC
:100670005946B8687B6898473A68002817D05B46A7
:1006800058465B005B441419033BA070D118D35C3F
:10069000002B00D063705B460E707B73B34514D0A3
:1006A0003000F0BCBB46B246A946A046F8BD5B464A
:1006B0005B005B44033BD3189E701119125D002A46
:1006C00000D05A705B460B707E7342464B46287DC5
:1006D00000F060FA041E06D05346002B03D131000F
:1006E000286800F0C1FC0E9B002BD9D01C70D7E706
:1006F000FFFFFF0FF0B5DE464E4657464546002346
:10070000E0B58DB00A936B4B8200D3580B9099469D
:1007100000239B464B46079300F0DCF9079C06003C
:100720000F006268EFF3108572B61368002BFCD0DF
:1007300022000794BFF35F8F2468637B9946002BE8
:1007400067D092685C4B90464B441B0198444346EB
:100750001A685B6810001900801BB94100295FDD31
:100760000B9800F017FA00230026984600279A46B7
:10077000079C6368BFF35F8F5A461A6085F3108841
:100780005346002B08D10028C6D10DB0F0BCBB46A3
:10079000B246A946A046F0BD0A9B414618024B4608
:1007A0001843D047089009916268EFF3108572B63C
:1007B0001368002BFCD00794BFF35F8F0899099A48
:1007C000002A48DB114303D0079B1B69002B5DD136
:1007D000079B1B68DA7B002A07D051008A1819682A
:1007E0008C4649466244033A51704A46DA734B4696
:1007F000079A013BD168CA5C0132CA545B46079A2A
:1008000013615368BFF35F8F5A461A6085F31088EF
:1008100082E700230026984600279A460020A7E793
:10082000002901D100289BD10021200000F07EFB8F
:1008300043461E685F689B68079A9A464346DB6892
:100840009846D3684B44013B1B780A931B02034331
:10085000136100208CE72369002BB9D033003C00E2
:100860005B1A94411A002300A74219D89F421BD05B
:100870005946049101210391494602914146019153
:10088000514607980091FFF7B1FEB7E700F022F953
:10089000089A099B06000F0092197B419942E5D9FD
:1008A00001225242D317E3E79642E1D90122524294
:1008B000D317DDE7D0030020FFFFFF0F10B5124C68
:1008C0006368002B04D00A21104800F0F5F910BD30
:1008D00023000F4A1021206800F046FA032000F0A0
:1008E000EDF8032000F0C8F903200A4900F00CF9E4
:1008F000FFF7AAFD084B9C46032360442375074B72
:1009000080006060DC60DEE780010020E4030020FE
:1009100061040010F506001040000034D0030020F0
:10092000F0B504000D0006267642F717C6463619C4
:100930006F4100B58F4213D810D000F0CBF83200D1
:100940003B00121A8B41002B14DC002B37D02900FE
:10095000200000F0C9F880BCB846F0BD8642ECD952
:100960000026002700F0B6F832003B00121A8B4137
:10097000002BEADD30003900FFF7A4FD0028E6DB9C
:1009800000239846BC460F4A0F4F7B6A9C4504D80B
:10099000B96A8E42DBD99C45D9D11168EFF310803A
:1009A00072B60B68002BFCD0BFF35F8F1368BFF3E8
:1009B0005F8F4146196080F3108820BFE5E7002A69
:1009C000C5D0D7E7E40300200040054070B506001D
:1009D00000F080F8FA2204000D000023300000210E
:1009E000920001F063F8001969418D4205D802D0E8
:1009F000FFF796FF70BD8442FAD901204042C1172B
:100A0000F6E7C046F0B5D6464F464646C0B5EFF3CA
:100A100005833F22134018001038EFF3108C72B694
:100A2000204D2A68002AFCD0BFF35F8F01221100FD
:100A300081401D4C884661631C4917000E788A4628
:100A40003100C1400F400A4215D019498200646A42
:100A500051588C4219D3174BD25843469E435346A4
:100A60001E70BFF35F8F00232B608CF31088002A69
:100A700006D0904704E0BFF35F8F2F608CF310889F
:100A8000E0BCBA46B146A846F0BD0B4A9B00904672
:100A900043441A681A60BFF35F8F00232B608CF306
:100AA0001088EDE7280100D000400540FA0300203F
:100AB000E80300204C030020D03F054010B50100A2
:100AC000024A0348FFF786FC10BDC046B01E001066
:100AD000F8030020034B596A0A00986A596A8A424F
:100AE000FAD1704700400540064A536A9942FCD843
:100AF00007D1044B02E05A6A914202D19A6A8242BB
:100B0000F9D370470040054070B504000D00EFF3C5
:100B1000108672B61A4A1368002BFCD0BFF35F8FA1
:100B2000002D1BD0200000F0E5FC164981420AD0C0
:100B3000200000F0E7FC0121200000F0C9FC0123A7
:100B4000A340114A1360114BA400E550BFF35F8F1F
:100B500000220B4B1A6086F3108870BD0B4BA2006D
:100B6000D5500122A2400A4920000B7893430B7014
:100B7000044900F0F1FC0021200000F0A9FCE5E7A9
:100B8000280100D0050A0010386005404C03002001
:100B9000FA030020F0B54F46D6464646C0B50700DA
:100BA000304C616A0D00A66A616AA942FAD18B4293
:100BB00008D805D00120E0BCBA46B146A846F0BD31
:100BC000B242F7D9EFF3108972B6274801680029BD
:100BD000FCD0BFF35F8F01252449BD408C460978C6
:100BE000204C0E002E438846F1B28A46614650469C
:100BF0000870391D1E48890065630A51B9000B5001
:100C0000216A0020294219D0616A0800A66A616A37
:100C10008142FAD18B4219D801D1B24216D8C245CD
:100C20001DD0104B1F201D625D6301230740BB4098
:100C3000104A1E381360634642461A70BFF35F8F36
:100C40000022094B1A6089F31088B4E70020BFF333
:100C50005F8F0022044B1A6089F31088ABE70120F4
:100C6000ECE7C04600400540280100D0FA03002010
:100C7000E803002080E200E010B5EFF3108472B6C4
:100C80000A490B68002BFCD0BFF35F8F0123834020
:100C9000074A0848136202789A430270BFF35F8FD5
:100CA00000230B6084F3108810BDC046280100D0DB
:100CB00000400540FA030020024B9C466144890035
:100CC000016070474000003410B50400FFF7BCFB22
:100CD00001002000FFF7F0FFFF232371BFF35F8FB8
:100CE00010BDC04610B50400FFF7AEFB01002000A8
:100CF000FFF7E2FFFF23A380BFF35F8F10BDC04665
:100D000070B505000E001400002924D0002A24D05C
:100D100080686B689847296800280ED063001B190B
:100D20007200033B9219CB18033A9E7088188A5CB4
:100D3000002A14D1047030000EE073009B19620089
:100D4000033B1219CB18033A9C7088188A5C002A5E
:100D500000D05A700670200070BD0800FCE75A7081
:100D600004703000F8E7C04630B583600023CCB291
:100D700043730133047342608373C4730D000068CE
:100D8000012C06D9421C0133DBB2137003329C42A2
:100D9000F9D1FF2129404B0059180023401803388E
:100DA000437030BDF8B5CE46474606000C0080B50E
:100DB000002907D04D0003686D18033D5A19577874
:100DC000002F04D12000C0BCB946B046F8BD790060
:100DD000C919033988464344597889460021597016
:100DE000517073683A002100806898473368002882
:100DF00014D042469A18947059195B5D002B00D0AC
:100E000053700F70270049463000FFF7CBFF3900C1
:100E100002003000FFF774FF0400D3E7424641466A
:100E20005D19AF709A185B5C002B00D06B7014706A
:100E3000E9E7C046F0B557464546DE464E46E0B5C2
:100E40000D006B0001685B19DF1E0400C85D83B0F4
:100E50000192CA1900284CD043001B18033BCB1841
:100E60005E78B446002E16D1019E002E3ED0E67B61
:100E7000002E04D073009B19CB18033B5D70E57303
:100E800000282FD10023537003B0F0BCBB46B246FC
:100E9000A946A046F0BD72006244033A89184A7818
:100EA000904600224A7091465A700100320020009C
:100EB000FFF726FF43468246002B07D05B002168E0
:100EC0004344033BCB185A78002A16D14246514678
:100ED0002000FFF715FF2168019BCA19002BC6D11E
:100EE0000028CFD043001B18033BCB18002199707A
:100EF000C8E7019B002BBAD1C4E750008018033823
:100F00000918487883464846487058704146200082
:100F1000FFF7F6FE594680462000FFF743FF4146A3
:100F200002002000FFF7ECFE8046CFE7F0B54E460A
:100F30004546DE465746E0B5467B0400750000682E
:100F4000AD19033D83B00191415D421900294ED096
:100F50004B005B18033BC3185F78BC46002F18D1C9
:100F6000019D002D40D0E57B002D04D06B005B1966
:100F7000C318033B5E70E673002931D100233000B3
:100F80005370617303B0F0BCBB46B246A946A0469D
:100F9000F0BD7A006244033A8018427893460022FA
:100FA000427091465A7020003A00FFF7A9FE5B4656
:100FB0008046002B07D05B0021685B44033BCB18C5
:100FC0005A78002A17D15A4641462000FFF798FE6A
:100FD000019B010020684219002BC4D10029CDD00B
:100FE0004B005B18033BC31800209870C6E7019BB9
:100FF000002BB8D1C2E75000801803380918487890
:10100000824648464870587059462000FFF778FEDF
:1010100053468346002B07D05B0021685344033BB3
:10102000CB185A78002A06D1594652462000FFF7BD
:1010300067FE8346C7E75000801803380918484602
:101040004F784870587051462000FFF759FE39001C
:1010500081462000FFF7A6FE494602002000FFF768
:101060004FFE8246E0E7C04670B5040000292CD050
:10107000437B8B422ED0056848004018033828185F
:101080008278002A21D053009B18033BEA5CEE18BB
:101090008A4202D11BE0002A08D053009B18033B70
:1010A000EB185A788A42F6D142785A70002301220E
:1010B000837043702000FFF7BDFE617B02002000BB
:1010C000FFF71EFE6073012000E0002070BD437832
:1010D0003370EBE701221900FFF7ACFE60730120CB
:1010E000F4E7C0462C4B2D4A70B51A602C4A2D4BA4
:1010F0002D491A6010008B689843FBD12B4C2C4B68
:101100009C4209D2013B1D1BAD080135AD002D19D4
:1011100008CC9847AC42FBD100F07CF8254A214B23
:101120001A60214A9368DB018033FBD14022224BB5
:10113000224C234D9A675A671A67DA66AC4208D286
:1011400023682000002B21D00834FFF7CBFDAC42F0
:10115000F6D31C4C1C4DA168C022280000F010FDE5
:10116000A560FFF763F900F02FFBFFF7A7FB174C13
:10117000174B9C4209D2013B1D1BAD080135AD0048
:101180002D1908CC9847A542FBD170BD0834FFF754
:101190009BFDAC42D4D3DCE700E00040BFCDFBFEBA
:1011A000FE7F3C0000F0004000C00040180200201C
:1011B00028020020FFFFFF0100F001401002002084
:1011C0001802002000ED00E00000002028020020AE
:1011D0002C02002000BEFDE70FB400B5084883B024
:1011E00000F0F8FD049B002B07D005A91800019121
:1011F00000F072FB034800F0EDFD00BEFDE7C046C5
:10120000D41E0010E41E001010B50148FFF7E4FFE3
:10121000E81E001030B50C2083B000F039FBFFF75A
:10122000FDF800280ED0944B944A1A605A609A60D8
:10123000DA601A615A619A61DA611A62904A5A62F6
:1012400003B030BD8F4CA06700F02AFB01228E4B0B
:101250001A60636C012BFCD103228C4B1A60894A03
:10126000936B012BFCD102240121894A8948053363
:10127000009400F0BBFA0523874A012187480094B7
:1012800000F0B4FA864B5A68FF2A02D88022520036
:101290005A608022784C7D4B21691201804D1A6082
:1012A000002905D0606900F065FB01300138FDD1EF
:1012B000E0217B4B02201A681140802252012A4310
:1012C00011601968484003210140116004219A68A7
:1012D0001142FCD08022802192012A430901116031
:1012E000802252005A606F4B23616F4B5968FF296F
:1012F00000D85A6003226C48634B01211A60020037
:1013000093681942FCD0E02513681D4080235B01DF
:1013100003431D6012684A400321114019600221F5
:10132000614A93681942FCD0802380219B010343CA
:101330000901196080215D4B4900516063615C4B7C
:101340005A68FF2A00D8596080225A4BE16912017D
:10135000574D1A60002905D0606900F00BFB013081
:101360000138FDD1E02252490B681A4080235B010D
:101370002B431A60802380229B012B4312011A60A9
:1013800080223E4B52004A60E3614B4B5968FF2973
:1013900000D85A608022494B216A1201464D1A60DA
:1013A000002905D0606900F0E5FA01300138FDD16F
:1013B000E02241490B681A4080235B012B431A60ED
:1013C000802380229B012B4312011A6080238022FC
:1013D0005B004B60294BD2022362394B5968914222
:1013E00000D25A608022374B616A1201344D1A6074
:1013F000002905D0606900F0BDFA01300138FDD147
:10140000E0222F490B681A4080235B012B431A60AE
:10141000802380229B012B4312011A608023DB0270
:101420004B60174B6362284B5A68FF2A02D8802210
:1014300052005A608022254BA1691201224D1A6088
:10144000002905D0606900F095FA01300138FDD11E
:10145000E0221D490B681A4080235B012B431A6070
:10146000802380229B012B4312011A6080235B00A2
:101470004B600E4BA361E3E65C030020006CDC02D2
:101480001BB70000008000403CB0004030B000407E
:10149000002F68590080024000389C1C00C00240A8
:1014A00030800040001BB7003C800040405973076B
:1014B0005480004054B000406080004060B0004064
:1014C0006C8000406CB000404880004048B0004054
:1014D00001238340002904D0034A1360034A1360A8
:1014E0007047034A1360FBE780E200E000E100E0A0
:1014F00080E100E0024B10309B688000C0587047CC
:1015000000ED00E070B50D00EFF3108672B60F4AE3
:101510001368002BFCD0BFF35F8F0D4B10309B681E
:1015200084001B590B4A934203D09D4201D0FFF720
:101530006BFE074B9B681D51BFF35F8FBFF35F8F3F
:101540000022024B1A6086F3108870BD240100D07F
:1015500000ED00E0CD010010F0B5DE4657464E46E6
:101560004546E0B50C0083B0EFF3108A72B65B4AD3
:101570001368002BFCD0BFF35F8F1022914681448B
:101580004A46574B96009B689D59564B98469D423C
:1015900005D0A54216D0544FEB1B2F2B14D9504B1E
:1015A0009B689D51BFF35F8FBFF35F8F00224B4B52
:1015B0001A608AF3108803B0F0BCBB46B246A94655
:1015C000A046F0BD1D00EAE7012383409B465A4632
:1015D000464B1B681A4000925A46454B1A60BFF3AF
:1015E0005F8FFEF740FE0190002803D0814501D0B7
:1015F000FFF70AFE01232A009A4313003D49DB1B33
:101600005B415943090D93689C4208D15BE043005C
:101610001B189B00FB189868A04211D01A000620E6
:1016200010560028F3DA009B002B05D05A46324BA7
:101630001A602E4B1A60B2E75A462D4B1A60AEE77D
:1016400006201856002822DB4200111889007C1859
:101650008846A1689960E179D9710621615699712E
:10166000A1797F291FD8A488F91A64052415444458
:101670000919E0240905490D240221439980121813
:101680001E4B9200BF181A781870BA71CBE70198F8
:1016900000280BD1FF30907119489080174A1078BC
:1016A00011709871BFE7BD210902E7E7154A164995
:1016B000D21A083A5002400D01439980134952084A
:1016C0000A43DA80AFE70620105613000028BBDA81
:1016D000019A002AEAD14546E0E7C046240100D03D
:1016E00000ED00E0CD010010A801002000E100E0C5
:1016F00080E100E0AAAA000080E200E0F9030020F7
:1017000000BDFFFFE201002000F0FFFF00F8FFFF37
:10171000F8B5012504000543FEF7A5FD0300EFF32E
:10172000108672B621490A68002AFCD0BFF35F8F89
:101730001F4A20001F49801A40414143090D1E489D
:101740009B00876849B2FF58AF421CD00623D3568E
:101750008B421CD01223D3568B4222D01E23D35649
:101760008B4220D02A23D35603208B4210D0134B18
:101770001A781970A271BFF35F8F00220B4B1A60A9
:1017800086F31088F8BD82680D48D050EFE700203E
:1017900043001B189B00D218FF239371094B9380C1
:1017A000E5E70120F4E70220F2E7C046240100D07B
:1017B000A8010020AAAA000000ED00E0F903002023
:1017C000CD01001000BDFFFF054B064A1360064A1D
:1017D000136053609360D3601361536193617047EA
:1017E0008080808000E400E004E400E0F8B50400BC
:1017F0000C2017001D000E0000F0BCF84101091A72
:101800008B01591AC90009188901380000F0B2F893
:10181000069A2B04120313432268002A21DB184A7C
:10182000A21851424A41802149018C4652420A4045
:10183000144962440A6014490A60144917008D680B
:10184000AF43FBD1C021221D890111432122266013
:10185000A0600A602268002AFCDAE36008230B60BB
:10186000F8BD3F2221680A40B242D8D1A2681205D1
:10187000120D8242D3D1E268002BD0D1F0E7C046EE
:101880000040FDBF00E0004000F0004000C000400C
:101890008023024A9B000343D362704700800540C7
:1018A000AA23064A1B0113602F230549D360054B69
:1018B00019605368002BFCDA7047C04600400240B4
:1018C00000B0FA000060024010B5002800D110BD41
:1018D00000F02EFAFBE7C04610B5094A0300146871
:1018E00084B0002C08D0012200910648524203A97E
:1018F000A047012004B010BD00F06CFA0020F9E709
:10190000CC030020C918001001480421014B1847DE
:10191000F001002039190010142310B501001888B7
:1019200004331B88984710BD162310B50100188892
:1019300002331B88984710BDF0B5C64600B5002994
:1019400016D014230400012598461827890046184C
:101950004346216818883B88984701C4431E984134
:1019600040420540A642F3D1280080BCB846F0BDF5
:101970000125F9E7114A936F9B0813D2106651664F
:10198000002905D0FFE7FFE7FFE7516F106F7047B1
:1019900004B5002801D00020C04300F071FA0021F6
:1019A00004BDC046F0B5146E556E576F166FFFF745
:1019B000E5FF1466556657671667F0BD000000D056
:1019C000132370B51D78012D15D010DD2748FFF7C2
:1019D000ABFF274C01008022200000F0D1F8022D3F
:1019E00006D02448FFF798FF234B186070BD204CA9
:1019F000224AA264F5E72E001D4C204AA3085B4250
:101A00001E401D422FD0330022602020B1006118FB
:101A1000801B0A604A608A60CA600A614A618A6102
:101A2000CA610A624A628A62CA620A634A638A6354
:101A3000CA630A644A648A64CA640A654A658A6534
:101A4000CA650A664A668A66CA660A674A674008BD
:101A5000102803D18A67CA67A264C2E71E339B00BD
:101A6000E250A264BDE70023CFE7C0465344000024
:101A7000FC0300204C330000E0030020811A00101A
:101A800007B5604601880A0A0230DF2AFAD1C9B2D6
:101A9000820804D3028840880004104300E00068F4
:101AA000014A5050039007BDFC03002051434343BB
:101AB000C9188C46110C83B24B4310B4040C61431B
:101AC00092B280B2504362431C041B0C001910BC3C
:101AD00059411304120CC018514161447047000071
:101AE000132310B512481C78FFF71EFF0100012CCC
:101AF0000AD003DD80220F4800F042F80E48FFF7BD
:101B00000BFF0E4B186010BD0A4C5422200000F051
:101B100037F80B4B6365A365E36523666366A366CD
:101B2000E36623676367A367E3672362E361E5E72F
:101B300053460000FC0400204C330000E00300206A
:101B4000451B001007B5604601880A0A0230DF2AEB
:101B5000FAD1C9B2820804D3028840880004104335
:101B600000E00068014A5050039007BDFC040020CB
:101B700001480421014B18470002002039190010C8
:101B8000014B5B681847000000020020030010B5FD
:101B900008001B681100984710BDC046F8B54746BD
:101BA000CE4680B5437C07000D001600002B37D0D1
:101BB00000240020002A1EDD4B1E98461B4B994630
:101BC000002C2BD043461B5D0D3B5A425341DBB2E8
:101BD0002A5D0A2A13D00134A642F1DC864203DDD5
:101BE000311A3B6828189847AD19013D2B780D3BF9
:101BF0005A4253413B74C0BCB946B046F8BD002BB5
:101C0000E9D1A04203DA211A3B68281898474846D0
:101C100002213B68013498472000DDE73B7CD7E791
:101C20000368110028009847E5E7C046A01F001090
:101C3000F0B557464E464546DE461C00D023E0B57B
:101C40001B061F68354B83B006000D00180001A964
:101C500091469A4600F01CF98046002808D1019B65
:101C60007FB29F4204D0504600F01AF901239846F3
:101C70006B1C03D1300000F0CBF80500002C2AD1FA
:101C8000274F284B1C68002C18D04B46002B24D122
:101C9000254B994602E0E468002C0FD02368002B06
:101CA000F9D04B461B68002B01D0A342F3D1200092
:101CB0002A003100B847E468002CEFD14346002BDE
:101CC00028D1681E8541E8B203B0F0BCBB46B246DD
:101CD000A946A046F0BD154FD3E7134B99460A23FA
:101CE0009B4602E0E468002CE8D02368002BF9D082
:101CF0004B461B68002B01D0A342F3D12A003100D0
:101D00002000B8475A466B4620001A7101A90122EB
:101D1000B847E7E7504600F0ABF8D2E710020020E2
:101D20009D1B0010C4030020C80300208D1B001061
:101D3000F0B54746CE4680B583B06B46DF1CD02356
:101D400038701B061C68204B060001A91800984635
:101D500000F09EF8051E22D01C4B1C68002C2AD0D7
:101D60001B4B994602E0E468002C10D02368002B3E
:101D7000F9D04B461B68002B01D0A342F3D12000C1
:101D800001223900FFF70AFFE468002CEED1002D94
:101D900011D1300003B0C0BCB946B046F0BD019BC4
:101DA00064B29C420BD0404600F07AF8074B012504
:101DB0001C68002CD4D1404600F05AF8E9E7034BE8
:101DC0001C68002CCCD1E4E710020020C4030020E2
:101DD000C803002070B5040000F01AF800230100C9
:101DE000050001222000FFF723FF084B1C68002C90
:101DF00006D06368002B05D09847E468002CF8D122
:101E0000280070BDE468002CF3D1F9E7C40300207A
:101E100010B583070AD00300032102E001330B420F
:101E200005D01A78002AF9D1181A10BD03001968D4
:101E30000C4A0D4C8A188A4322420FD15968094A2C
:101E400004338A188A43224208D15968054A043368
:101E50008A188A432242F1D000E001331A78002A1E
:101E6000FBD1E1E7FFFEFEFE80808080F8B5C04632
:101E700001B40248844601BC604700BF5101002004
:101E800001B40248844601BC604700BF79010020CC
:101E900001B40248844601BC604700BF090100202C
:101EA00001B40248844601BC604700BFC100002065
:101EB000486172647761726520616C61726D202582
:101EC0006420616C726561647920636C61696D6521
:101ED000640000000A2A2A2A2050414E4943202A41
:101EE0002A2A0A000A0000004861726420617373A4
:101EF0006572740052656C6561736500626F6F7422
:101F0000325F773235713038300000006874747099
:101F1000733A2F2F6769746875622E636F6D2F7225
:101F2000617370626572727970692F7069636F2D69
:101F3000617070732F747265652F484541442F6539
:101F400078616D706C65732F626C696E6B5F617325
:101F50006D000000312E332E300000007069636F79
:101F6000000000004665622020322032303232000C
:101F700006005250BBFF3CB65C1F001006005250DA
:101F80009A2356180C1F001006005250E182887FD9
:101F9000FC1E001006005250D3F07542F41E0010D3
:041FA0000D0A000026
:101FA400B4020010A80200109C020010701F001060
:101FB400900200107C1F0010881F0010941F001056
:101FC400D02330B500251B0600245D5706E00368C6
:101FD400BFF35F8F1C6081F3108820BF0268EFF3AA
:101FE400108172B61368002BFCD0BFF35F8F0379A6
:101FF4007F2BECD905710368BFF35F8F00221A6051
:1020040081F3108830BDC046030010B50068EFF3BB
:10201400108472B60268002AFCD0BFF35F8F0422DA
:102024009A56002A0BDB00290FD000200A601B6897
:10203400BFF35F8F00221A6084F3108810BDD02292
:102044001206126801201A71F1E70020EFE7C0467A
:102054000268EFF3108172B61368002BFCD0BFF353
:102064005F8FFF2303710368BFF35F8F00221A6041
:1020740081F3108840BF70477047C04610000000CD
:10208400980100200000000030020020840300209A
:102094000000000000000000940300200000000085
:1020A400000000001000000000000000000001001B
:1020B400000000000000000000000200000000001A
:1020C4000000000000000300000000000000000009
:1020D4000000FF000000000000B5486801318E4692
:1020E4000047704609380149884700BD11170010A0
:1020F400503300004C3300005433000052330000CE
:102104004D5300004D43000053340000433400009D
:102114000000000000000000711B001009190010ED
:0C212400C1190010E11A0010ED020010BB
:04000005100001E9FD
:00000001FF
